:100000000C9492000C94BA000C94BA000C94BA00B0
:100010000C94BA000C94BA000C94BA000C94BA0078
:100020000C94BA000C94BA000C94BA000C94BA0068
:100030000C94BA000C94BA000C94BA000C94BA0058
:100040000C94AC060C94BA000C9439040C94BA00CD
:100050000C94BA000C94BA000C94BA000C94BA0038
:100060000C94BA000C94BA004A616E756172790002
:100070004665627275617279004D61726368004114
:100080007072696C004D6179004A756E65004A7541
:100090006C79004175677573740053657074656D94
:1000A000626572004F63746F626572004E6F7665B1
:1000B0006D62657200446563656D6265720068001B
:1000C000700079007F00850089008E0093009A00FF
:1000D000A400AC00B50053756E646179004D6F6E7D
:1000E0006461790054756573646179005765646E65
:1000F0006573646179005468757273646179004650
:10010000726964617900536174757264617900D6B3
:1001100000DD00E400EC00F600FF00060100B6017F
:100120003E023A0511241FBECFEFD8E0DEBFCDBF9F
:1001300012E0A0E0B1E0E2E3F0E102C005900D9230
:10014000A232B107D9F712E0A2E2B2E001C01D92DB
:10015000AF3DB107E1F711E0C4E2D1E004C022975E
:10016000FE010E941308CE31D107C9F70E94320464
:100170000C9417080C940000FB01DC0105900D9213
:100180000020E1F708952F923F924F925F926F9275
:100190007F928F929F92AF92BF92CF92DF92EF9217
:1001A000FF920F931F93DF93CF9300D000D0CDB772
:1001B000DEB7FB013A0129011801FA82E982BC820B
:1001C000AB825401E080F18002811381C801B70144
:1001D0002CE330E040E050E00E94E207D3016C9352
:1001E000C801B7012CE330E040E050E00E94E20794
:1001F000122F032FF42EE52E622F732F842F952FAD
:100200002CE330E040E050E00E94E207F20160831E
:10021000612F702F8F2D9E2D2CE330E040E050E0B9
:100220000E94E207122F032FF42EE52E622F732F68
:10023000842F952F28E130E040E050E00E94E20753
:10024000D1016C93612F702F8F2D9E2D28E130E00E
:1002500040E050E00E94E20779018A01C801B7013D
:100260006C5F7F4F8F4F9F4F27E030E040E050E0C2
:100270000E94E207F6016083E6E420E030E040E01F
:1002800050E001C0EF5F6E2F70E063707070611519
:10029000710529F08DE691E0A0E0B0E004C08EE6A3
:1002A00091E0A0E0B0E0280F391F4A1F5B1FC90191
:1002B000A0E0B0E0E816F9060A071B071CF7D50115
:1002C000EC936115710529F48EE691E0A0E0B0E0B1
:1002D00004C08DE691E0A0E0B0E0281B390B4A0B8A
:1002E0005B0BD801C701821B930BA40BB50B9C01C0
:1002F000AD01E0E1F2E090E0913039F46115710573
:1003000011F08CE103C08DE101C08081E82EFF2453
:1003100000E010E02E153F054007510744F02E196C
:100320003F09400B510B9F5F31969C3029F7AB8101
:10033000BC819C93822F8F5FE981FA8180830F902B
:100340000F900F900F90CF91DF911F910F91FF9021
:10035000EF90DF90CF90BF90AF909F908F907F9065
:100360006F905F904F903F902F90089510922B02C6
:1003700010922A020895CF93DF93EC0113C0888175
:100380009981AA81BB810196A11DB11D88839983A2
:10039000AA83BB8328513C4F4F4F5F4F2C833D8333
:1003A0004E835F830E941C072C813D814E815F81BB
:1003B000621B730B840B950B685E7340804090400A
:1003C000F0F6688179818A819B81DF91CF910895D0
:1003D0008F929F92AF92BF92CF92DF92EF92FF9255
:1003E0000F931F93CF93DF93EC0188859985892B19
:1003F00011F480E020C0CE010E94BB019E01255F68
:100400003F4F8E01065F1F4FFE013D96DE011E9697
:100410009FE0A92EB12CAC0EBD1E80E1882E912C40
:100420008C0E9D1ECE01BE012C96AE017F016D018A
:100430000E94C30081E0DF91CF911F910F91FF9047
:10044000EF90DF90CF90BF90AF909F908F900895E6
:100450000F931F938C01FC0140835183628373834C
:100460000E941C07F801648375838683978382E06A
:1004700090E0918780871F910F91089510923C0220
:1004800008950F931F93182F092FE62FF0E0EE0F1A
:10049000FF1FE15FFE4F65917491812F0E94BC00A8
:1004A000812F902F1F910F9108950F931F93182F55
:1004B000092FE62FF0E0EE0FFF1FE254FF4F65918A
:1004C0007491902F0E94BC00812F902F1F910F914B
:1004D000089581EC92E00E94DF048823D1F381EC3F
:1004E00092E00E94F304982F80538A3030F4292F31
:1004F000332727FD309520533040C9010895AF922E
:10050000BF92CF92DF92EF92FF920F931F935C0105
:1005100061ECC62E62E0D62EC60160E071E00E945A
:10052000B8050E9469029C018C0153E0000F111F65
:100530005A95E1F7220F331F020F131F0E94690221
:10054000080F191F780193E0EE0CFF1C9A95E1F754
:10055000000F111FE00EF11E0E946902E80EF91E45
:10056000F501F182E082C6016EE471E00E94790536
:10057000F50160817181C6010E945F06C60167E6D0
:1005800071E00E94B80581E01F910F91FF90EF90FC
:10059000DF90CF90BF90AF9008951F93182F81ECFC
:1005A00092E062E771E00E9479051A3028F481EC4C
:1005B00092E060E30E947105412F50E060E070E03E
:1005C00081EC92E02AE030E00E948C061F910895B1
:1005D000AF92BF92CF92DF92EF92FF920F931F9351
:1005E00081EC92E064E771E00E94B8050E94690224
:1005F000AA2797FDA095BA2FBC01CD012AE030E0D3
:1006000040E050E00E948E077B018C010E9469024D
:10061000AA2797FDA095BA2FE80EF91E0A1F1B1FE7
:1006200088E1E816F1040105110508F053C00E94A5
:100630006902AA2797FDA095BA2FBC01CD012AE037
:1006400030E040E050E00E948E075B016C010E94A8
:100650006902AA2797FDA095BA2FA80EB91ECA1E37
:10066000DB1E9CE3A916B104C104D10498F581EC0A
:1006700092E0B801A7010E9465068A2D0E94CD0272
:1006800081EC92E00E949105C801B70120E13EE0B3
:1006900040E050E00E948E077B018C0180E893E4EB
:1006A000ADE6B8E3E80EF91E0A1F1B1FC601B5012F
:1006B0002CE330E040E050E00E948E07E60EF71E8B
:1006C000081F191F82E292E0B801A7010E942802C8
:1006D00081E001C080E01F910F91FF90EF90DF90CB
:1006E000CF90BF90AF900895CF92DF92EF92FF929C
:1006F0000F931F9382E292E00E94E80101EC12E066
:1007000040912C0250E060E070E0C8012AE030E047
:100710000E948C0680912D020E94CD0280912E02B3
:100720000E94CD02E6E8EE2EE1E0FE2EC801B70100
:100730000E94790573E3C72E72E0D72EC60160913F
:1007400030020E944102BC01C8010E947905C80123
:10075000B7010E947905C601609131020E945502DD
:10076000BC01C8010E947905C801B7010E94790542
:1007700040912F0250E060E070E0C8012AE030E0D4
:100780000E94A1061F910F91FF90EF90DF90CF90F4
:1007900008951F9381EC92E068E871E00E94B8052B
:1007A00081EC92E00E94DF048823D1F381EC92E097
:1007B0000E94F304182F81EC92E0612F0E94A8059B
:1007C000133719F40E94E80221C01436B9F40E94CC
:1007D000740381EC92E067EE71E00E94790560910C
:1007E0000E0270910F0281EC92E00E945F0681EC94
:1007F00092E06BEF71E00E94B80509C01D3611F060
:1008000080E006C08EE092E00E947F02811181E0CC
:100810001F9108950E94C903882381F481EC92E01E
:1008200064E072E00E94B80581EC92E00E941B0532
:1008300064E670E080E090E00E942A07089581EC71
:1008400092E040E855E260E070E00E94760482E2C7
:1008500092E040E853E46DE678E30E9428020E94AB
:10086000740308950E9454070E941F040E940A0402
:10087000FDCF1F920F920FB60F9211242F933F932B
:100880004F935F936F937F938F939F93AF93BF9398
:10089000EF93FF934091C600E091BD02F091BE023C
:1008A000CF01019660E870E00E94AD079C01809145
:1008B000BF029091C0022817390739F0E35CFD4F61
:1008C00040833093BE022093BD02FF91EF91BF9110
:1008D000AF919F918F917F916F915F914F913F91D8
:1008E0002F910F900FBE0F901F901895AF92BF924F
:1008F000CF92DF92EF92FF920F931F93CF93DF93EC
:100900006C017A018B01DC011496AD90BC901597B7
:10091000CB01BA0122E030E040E050E00E94E20763
:10092000205C3D4B404F5F4FCA01B901A8019701C0
:100930000E94E207C901DA010197A109B109292F33
:100940003A2F4B2F552747FD5A950196A11DB11DF2
:10095000E5012883E601EE81FF8181508083EA85ED
:10096000FB85208141E050E0CA010E8402C0880F5F
:10097000991F0A94E2F7282B2083EA85FB852081C2
:10098000CA010F8402C0880F991F0A94E2F7282B2E
:100990002083EA85FB858081088802C0440F551FAB
:1009A0000A94E2F7842B8083DF91CF911F910F91FE
:1009B000FF90EF90DF90CF90BF90AF900895DC0153
:1009C0001296ED91FC911397E058FF4F8191919110
:1009D00080589F4F20813181821B930B60E870E02B
:1009E0000E94AD070895CF93DF93DC011296ED913D
:1009F000FC911397EF01CE57DF4F48815981E058A2
:100A0000FF4F80819181E058F0408417950719F4D9
:100A10002FEF3FEF0CC0E40FF51F2081CA010196B4
:100A200060E870E00E94AD079983888330E0C901D7
:100A3000DF91CF910895DC011296ED91FC9113970F
:100A4000EE57FF4F80819181929382930895FC012C
:100A5000A085B18521898C9190E0022E02C09595E8
:100A600087950A94E2F780FFF6CF0484F585E02DA0
:100A70006083089580E292E09093C2028093C10265
:100A80008DE392E09093C4028093C30285EC90E0E2
:100A90009093C6028093C50284EC90E09093C802C4
:100AA0008093C70280EC90E09093CA028093C902C1
:100AB00081EC90E09093CC028093CB0286EC90E0A6
:100AC0009093CE028093CD0284E08093CF0283E0A6
:100AD0008093D00287E08093D10285E08093D20298
:100AE0000895DC01ED91FC910190F081E02D0995D4
:100AF00008950F931F93CF93DF938C01EB0109C0EF
:100B00002196D801ED91FC910190F081E02DC80172
:100B1000099568816623A1F7DF91CF911F910F910D
:100B200008950F931F938C01DC01ED91FC910190CE
:100B3000F081E02D6DE00995D801ED91FC910190D7
:100B4000F081E02DC8016AE009951F910F91089589
:100B50000F931F938C01DC01ED91FC910190F081CA
:100B6000E02D0995C8010E9491051F910F910895EC
:100B70000F931F938C010E947905C8010E94910573
:100B80001F910F9108952F923F924F925F926F9213
:100B90007F928F929F92AF92BF92CF92DF92EF920D
:100BA000FF920F931F93DF93CF93CDB7DEB7A0973C
:100BB0000FB6F894DEBF0FBECDBF1C016A017B01EA
:100BC000411551056105710549F4DC01ED91FC9178
:100BD0000190F081E02D60E3099554C088249924A8
:100BE0005401422E55246624772401E010E00C0FB6
:100BF0001D1F080D191DC701B601A30192010E9416
:100C0000C007F80160830894811C911CA11CB11CD1
:100C1000C701B601A30192010E94C007C901DA0110
:100C20006C017D01C114D104E104F104F1F681E00D
:100C3000E82EF12CEC0EFD1EE80CF91C3E01089488
:100C4000611C711CD501C4010197A109B1096C0196
:100C5000C818D90814C0F601EE0DFF1D60816A3076
:100C600010F4605D01C0695CD101ED91FC910190CF
:100C7000F081E02DC10109950894E108F1086E1496
:100C80007F0449F7A0960FB6F894DEBF0FBECDBF24
:100C9000CF91DF911F910F91FF90EF90DF90CF9058
:100CA000BF90AF909F908F907F906F905F904F908C
:100CB0003F902F9008952AE00E94C3050895AB014C
:100CC00060E070E00E945B060895EF92FF920F9340
:100CD0001F93CF93DF93EC017A018B0177FF0FC055
:100CE000E881F9810190F081E02D6DE20995109580
:100CF0000095F094E094E11CF11C011D111DCE0142
:100D0000B801A7012AE00E94C305DF91CF911F918E
:100D10000F91FF90EF900895DC012115310541F40A
:100D2000ED91FC910190F081E02D642F09950895DB
:100D30002A30310519F40E94650608950E94C30502
:100D400008950F931F938C010E948C06C8010E9486
:100D500091051F910F9108951F920F920FB60F9258
:100D600011242F938F939F93AF93BF938091D302BE
:100D70009091D402A091D502B091D6020196A11D06
:100D8000B11D8093D3029093D402A093D502B09367
:100D9000D6028091D7029091D802A091D902B09149
:100DA000DA028050904CAF4FBF4F8093D7029093A0
:100DB000D802A093D902B093DA0227C08091D7025B
:100DC0009091D802A091D902B091DA0280589E4346
:100DD000A040B0408093D7029093D802A093D9024C
:100DE000B093DA028091DB029091DC02A091DD02E7
:100DF000B091DE020196A11DB11D8093DB0290939C
:100E0000DC02A093DD02B093DE028091D7029091C4
:100E1000D802A091D902B091DA0281589E43A04035
:100E2000B04060F6BF91AF919F918F912F910F903D
:100E30000FBE0F901F9018958FB7F8942091DB028A
:100E40003091DC024091DD025091DE028FBFB9018A
:100E5000CA010895EF92FF920F931F937B018C01BB
:100E60008FB7F8944091DB025091DC026091DD0273
:100E70007091DE028FBF2FB7F8948091DB029091C2
:100E8000DC02A091DD02B091DE022FBF841B950B26
:100E9000A60BB70BE816F9060A071B0760F71F91A8
:100EA0000F91FF90EF900895789484B5826084BD8F
:100EB00084B5816084BD85B5826085BD85B581605E
:100EC00085BDEEE6F0E0808181608083E1E8F0E0BE
:100ED000808182608083808181608083E0E8F0E0AF
:100EE000808181608083E1EBF0E080818460808399
:100EF000E0EBF0E0808181608083EAE7F0E08081D0
:100F0000846080838081826080838081816080832F
:100F10008081806880831092C1000895629FD00113
:100F2000739FF001829FE00DF11D649FE00DF11DA4
:100F3000929FF00D839FF00D749FF00D659FF00D53
:100F40009927729FB00DE11DF91F639FB00DE11D40
:100F5000F91FBD01CF011124089597FB092E072623
:100F60000AD077FD04D049D006D000201AF470953D
:100F700061957F4F0895F6F7909581959F4F08955D
:100F8000A1E21A2EAA1BBB1BFD010DC0AA1FBB1F8D
:100F9000EE1FFF1FA217B307E407F50720F0A21BFF
:100FA000B30BE40BF50B661F771F881F991F1A946C
:100FB00069F760957095809590959B01AC01BD0196
:100FC000CF01089597FB092E05260ED057FD04D0BA
:100FD000D7DF0AD0001C38F4509540953095219504
:100FE0003F4F4F4F5F4F0895F6F79095809570955E
:100FF00061957F4F8F4F9F4F0895AA1BBB1B51E1F7
:1010000007C0AA1FBB1FA617B70710F0A61BB70B78
:10101000881F991F5A95A9F780959095BC01CD011D
:101020000895EE0FFF1F0590F491E02D0994F894B8
:02103000FFCFF0
:10103200456E74657220746865206C6F6767696EAF
:101042006720696E74657276616C20696E206D69C5
:101052006E75746573202D2078787820286D6178FC
:1010620020323430202D207061642066726F6E74DD
:101072002077697468207A65726F657329004C6FF6
:101082006767696E6720696E74657276616C20733A
:10109200657420746F2000206D696E757465287305
:1010A20029003A00456E7465722074696D65202DC1
:1010B2002068686D6D002000456E74657220732093
:1010C200746F207365742074696D652C206D2074B3
:1010D2006F2073657420696E74657276616C286D19
:1010E200696E75746573292C206420746F2064699D
:1010F20073706C61792073797374656D20696E66A3
:101102006F202874696D652C20696E746572766132
:101112006C202E2E2E2900696E74657276616C2009
:1011220069732073657420746F2000206D696E7579
:101132007465730074727920616761696E000100E1
:101142001F1C1F1E1F1E1F1F1E1F1E1F0000000030
:0211520027056F
:00000001FF
