:100000000C9462000C948A000C948A000C948A0070
:100010000C948A000C948A000C948A000C948A0038
:100020000C948A000C948A000C948A000C948A0028
:100030000C948A000C948A000C948A000C948A0018
:100040000C9424030C948A000C94EA000C948A000B
:100050000C948A000C948A000C948A000C948A00F8
:100060000C948A000C948A000000000024002700F1
:100070002A0000000000250028002B0000000000DE
:1000800023002600290004040404040404040202DA
:100090000202020203030303030301020408102007
:1000A0004080010204081020010204081020000012
:1000B0000007000201000003040600000000000029
:1000C0000000DF0111241FBECFEFD8E0DEBFCDBF9F
:1000D00011E0A0E0B1E0EEE4F9E002C005900D927D
:1000E000A434B107D9F711E0A4E4B1E001C01D9236
:1000F000A83EB107E1F710E0C4ECD0E004C02297BD
:10010000FE010E94A104C23CD107C9F70E94E3008E
:100110000C94A5040C9400008DE061E00E94CE03D5
:100120008DE061E00E94EE0308958DE061E00E94A1
:10013000CE038DE060E00E94EE0308958AEC91E02A
:100140000E949001882399F18AEC91E00E94A40119
:10015000AC019093450180934401662757FD60955B
:10016000762F8AEC91E020E030E00E940F0380912E
:100170004401909145018C34910539F40E948C0022
:100180008AEC91E060E071E009C08C36910549F499
:100190000E9495008AEC91E06DE071E00E944502BA
:1001A00008958AEC91E06BE171E00E9445020895A8
:1001B0008AEC91E040E855E260E070E00E9427019F
:1001C0000E94950008950E9494030E94D8000E9406
:1001D0009E00FDCF1F920F920FB60F9211242F9306
:1001E0003F934F935F936F937F938F939F93AF93BF
:1001F000BF93EF93FF934091C600E091C601F09149
:10020000C701CF01019660E870E00E943B049C01A9
:100210008091C8019091C9012817390739F0EA5B2C
:10022000FE4F40833093C7012093C601FF91EF91A9
:10023000BF91AF919F918F917F916F915F914F91FE
:100240003F912F910F900FBE0F901F901895AF9276
:10025000BF92CF92DF92EF92FF920F931F93CF93B3
:10026000DF936C017A018B01DC011496AD90BC9098
:100270001597CB01BA0122E030E040E050E00E9447
:100280007004205C3D4B404F5F4FCA01B901A8018B
:1002900097010E947004C901DA010197A109B1090F
:1002A000292F3A2F4B2F552747FD5A950196A11D0F
:1002B000B11DE5012883E601EE81FF818150808335
:1002C000EA85FB85208141E050E0CA010E8402C02E
:1002D000880F991F0A94E2F7282B2083EA85FB8573
:1002E0002081CA010F8402C0880F991F0A94E2F787
:1002F000282B2083EA85FB858081088802C0440F73
:10030000551F0A94E2F7842B8083DF91CF911F91D0
:100310000F91FF90EF90DF90CF90BF90AF90089536
:10032000DC011296ED91FC911397E058FF4F8191FB
:10033000919180589F4F20813181821B930B60E8FF
:1003400070E00E943B040895CF93DF93DC01129686
:10035000ED91FC911397EF01CE57DF4F4881598102
:10036000E058FF4F80819181E058F0408417950755
:1003700019F42FEF3FEF0CC0E40FF51F2081CA01E5
:10038000019660E870E00E943B049983888330E026
:10039000C901DF91CF910895FC01A085B185218924
:1003A0008C9190E0022E02C0959587950A94E2F711
:1003B00080FFF6CF0484F585E02D6083089581E405
:1003C00091E09093CB018093CA0186E491E09093F1
:1003D000CD018093CC0185EC90E09093CF01809388
:1003E000CE0184EC90E09093D1018093D00180EC19
:1003F00090E09093D3018093D20181EC90E09093B0
:10040000D5018093D40186EC90E09093D70180933E
:10041000D60184E08093D80183E08093D90187E0FE
:100420008093DA0185E08093DB0108950F931F9399
:10043000CF93DF938C01EB0109C02196D801ED9198
:10044000FC910190F081E02DC80109956881662337
:10045000A1F7DF91CF911F910F9108950F931F93F3
:100460008C01DC01ED91FC910190F081E02D6DE0BB
:100470000995D801ED91FC910190F081E02DC80122
:100480006AE009951F910F9108950F931F938C01B6
:100490000E941602C8010E942E021F910F9108951A
:1004A0002F923F924F925F926F927F928F929F9284
:1004B000AF92BF92CF92DF92EF92FF920F931F9372
:1004C000DF93CF93CDB7DEB7A0970FB6F894DEBF1A
:1004D0000FBECDBF1C016A017B01411551056105AD
:1004E000710549F4DC01ED91FC910190F081E02D62
:1004F00060E3099554C0882499245401422E552460
:100500006624772401E010E00C0F1D1F080D191D53
:10051000C701B601A30192010E944E04F801608355
:100520000894811C911CA11CB11CC701B601A30138
:1005300092010E944E04C901DA016C017D01C114CF
:10054000D104E104F104F1F681E0E82EF12CEC0E87
:10055000FD1EE80CF91C3E010894611C711CD501BC
:10056000C4010197A109B1096C01C818D90814C0C8
:10057000F601EE0DFF1D60816A3010F4605D01C070
:10058000695CD101ED91FC910190F081E02DC101F8
:1005900009950894E108F1086E147F0449F7A096C4
:1005A0000FB6F894DEBF0FBECDBFCF91DF911F9184
:1005B0000F91FF90EF90DF90CF90BF90AF909F9002
:1005C0008F907F906F905F904F903F902F90089505
:1005D000EF92FF920F931F93CF93DF93EC017A0179
:1005E0008B0177FF0FC0E881F9810190F081E02D48
:1005F0006DE2099510950095F094E094E11CF11CD2
:10060000011D111DCE01B801A7012AE00E94500270
:10061000DF91CF911F910F91FF90EF900895DC0132
:100620002115310541F4ED91FC910190F081E02D0F
:10063000642F099508952A30310519F40E94E802C3
:1006400008950E94500208951F920F920FB60F92C4
:1006500011242F938F939F93AF93BF938091DC01CD
:100660009091DD01A091DE01B091DF010196A11D05
:10067000B11D8093DC019093DD01A093DE01B09366
:10068000DF018091E0019091E101A091E201B09140
:10069000E3018050904CAF4FBF4F8093E0019093A7
:1006A000E101A093E201B093E30127C08091E00152
:1006B0009091E101A091E201B091E30180589E4345
:1006C000A040B0408093E0019093E101A093E2014B
:1006D000B093E3018091E4019091E501A091E601DE
:1006E000B091E7010196A11DB11D8093E4019093A3
:1006F000E501A093E601B093E7018091E0019091BC
:10070000E101A091E201B091E30181589E43A04034
:10071000B04060F6BF91AF919F918F912F910F9054
:100720000FBE0F901F901895789484B5826084BD99
:1007300084B5816084BD85B5826085BD85B58160E5
:1007400085BDEEE6F0E0808181608083E1E8F0E045
:10075000808182608083808181608083E0E8F0E036
:10076000808181608083E1EBF0E080818460808320
:10077000E0EBF0E0808181608083EAE7F0E0808157
:1007800084608083808182608083808181608083B7
:100790008081806880831092C1000895282F30E006
:1007A000C90186569F4FFC0194912A573F4FF9018A
:1007B0008491882391F0E82FF0E0EE0FFF1FE859B5
:1007C000FF4FA591B491662329F48C9190958923CC
:1007D0008C9308958C91892B8C930895482F50E029
:1007E000CA0182559F4FFC012491CA0186569F4F32
:1007F000FC0194914A575F4FFA0134913323D1F1B0
:10080000222331F1233021F4809180008F7705C0BD
:10081000243031F4809180008F7D8093800018C057
:10082000213019F484B58F7704C0223021F484B5C7
:100830008F7D84BD0DC0263021F48091B0008F776C
:1008400005C0273029F48091B0008F7D8093B000DF
:10085000E32FF0E0EE0FFF1FEE58FF4FA591B4918C
:10086000662329F48C91909589238C9308958C911B
:10087000892B8C93089597FB092E07260AD077FDC4
:1008800004D049D006D000201AF4709561957F4FAE
:100890000895F6F7909581959F4F0895A1E21A2E3D
:1008A000AA1BBB1BFD010DC0AA1FBB1FEE1FFF1F14
:1008B000A217B307E407F50720F0A21BB30BE40B64
:1008C000F50B661F771F881F991F1A9469F76095AB
:1008D0007095809590959B01AC01BD01CF01089565
:1008E00097FB092E05260ED057FD04D0D7DF0AD07E
:1008F000001C38F450954095309521953F4F4F4F4F
:100900005F4F0895F6F790958095709561957F4FAC
:100910008F4F9F4F0895AA1BBB1B51E107C0AA1F11
:10092000BB1FA617B70710F0A61BB70B881F991F90
:100930005A95A9F780959095BC01CD010895EE0FC9
:0E094000FF1F0590F491E02D0994F894FFCF6D
:10094E006261636B6C69676874206F6E00626163CD
:10095E006B6C69676874206F6666006F7074696F80
:10096E006E733A204C202D204C6564204F6E3B2038
:10097E006C202D204C6564204F66663B0000000005
:04098E0000CC010098
:00000001FF
