:100000000C94C0000C94E8000C94E8000C94E800F8
:100010000C94E8000C94E8000C94E8000C94E800C0
:100020000C94E8000C94E8000C94E8000C94E800B0
:100030000C94E8000C94E8000C94E8000C94E800A0
:100040000C94120E0C94E8000C940C0B0C94E80029
:100050000C94E8000C94E8000C94E8000C94E80080
:100060000C94E8000C94E8004A616E7561727900A6
:100070004665627275617279004D61726368004114
:100080007072696C004D6179004A756E65004A7541
:100090006C79004175677573740053657074656D94
:1000A000626572004F63746F626572004E6F7665B1
:1000B0006D62657200446563656D6265720068001B
:1000C000700079007F00850089008E0093009A00FF
:1000D000A400AC00B50053756E646179004D6F6E7D
:1000E0006461790054756573646179005765646E65
:1000F0006573646179005468757273646179004650
:10010000726964617900536174757264617900D6B3
:1001100000DD00E400EC00F600FF00060100000036
:1001200000240027002A0000000000250028002BE2
:100130000000000000230026002900040404040439
:100140000404040202020202020303030303030184
:10015000020408102040800102040810200102045B
:100160000810200000000700020100000304060040
:100170000000000000000000E4016C02EF040D0C20
:1001800011241FBECFEFD8E0DEBFCDBF13E0A0E04B
:10019000B1E0E0ECF4E202C005900D92AC32B107A0
:1001A000D9F714E0ACE2B3E001C01D92A632B1076A
:1001B000E1F711E0C0E8D1E004C02297FE010E94FF
:1001C0005A12C837D107C9F70E94050B0C945E126A
:1001D0000C940000FB01DC0105900D920020E1F77A
:1001E00008952F923F924F925F926F927F928F92DB
:1001F0009F92AF92BF92CF92DF92EF92FF920F93B6
:100200001F93DF93CF9300D000D0CDB7DEB7FB01B3
:100210003A0129011801FA82E982BC82AB825401B9
:10022000E080F18002811381C801B7012CE330E046
:1002300040E050E00E942912D3016C93C801B7013D
:100240002CE330E040E050E00E942912122F032FEF
:10025000F42EE52E622F732F842F952F2CE330E0A0
:1002600040E050E00E942912F2016083612F702F5C
:100270008F2D9E2D2CE330E040E050E00E942912AB
:10028000122F032FF42EE52E622F732F842F952F1C
:1002900028E130E040E050E00E942912D1016C9347
:1002A000612F702F8F2D9E2D28E130E040E050E02F
:1002B0000E94291279018A01C801B7016C5F7F4F42
:1002C0008F4F9F4F27E030E040E050E00E9429121E
:1002D000F6016083E6E420E030E040E050E001C059
:1002E000EF5F6E2F70E0637070706115710529F01B
:1002F0008DE691E0A0E0B0E004C08EE691E0A0E0E1
:10030000B0E0280F391F4A1F5B1FC901A0E0B0E011
:10031000E816F9060A071B071CF7D501EC936115CF
:10032000710529F48EE691E0A0E0B0E004C08DE60E
:1003300091E0A0E0B0E0281B390B4A0B5B0BD80121
:10034000C701821B930BA40BB50B9C01AD01E5E12A
:10035000F3E090E0913039F46115710511F08CE112
:1003600003C08DE101C08081E82EFF2400E010E091
:100370002E153F054007510744F02E193F09400B49
:10038000510B9F5F31969C3029F7AB81BC819C93C8
:10039000822F8F5FE981FA8180830F900F900F90F9
:1003A0000F90CF91DF911F910F91FF90EF90DF9011
:1003B000CF90BF90AF909F908F907F906F905F9005
:1003C0004F903F902F900895109235031092340370
:1003D0000895CF93DF93EC0113C088819981AA819E
:1003E000BB810196A11DB11D88839983AA83BB831C
:1003F00028513C4F4F4F5F4F2C833D834E835F838B
:100400000E94820E2C813D814E815F81621B730BA5
:10041000840B950B685E734080409040F0F66881D5
:1004200079818A819B81DF91CF9108958F929F92EC
:10043000AF92BF92CF92DF92EF92FF920F931F93F2
:10044000CF93DF93EC0188859985892B11F480E0A7
:1004500020C0CE010E94E9019E01255F3F4F8E0121
:10046000065F1F4FFE013D96DE011E969FE0A92EFE
:10047000B12CAC0EBD1E80E1882E912C8C0E9D1EE1
:10048000CE01BE012C96AE017F016D010E94F100EC
:1004900081E0DF91CF911F910F91FF90EF90DF905E
:1004A000CF90BF90AF909F908F9008950F931F9320
:1004B0008C01FC0140835183628373830E94820E0E
:1004C000F801648375838683978382E090E0918747
:1004D00080871F910F9108951092460308950F93FE
:1004E0001F93182F092FE62FF0E0EE0FFF1FE15F9B
:1004F000FE4F65917491812F0E94EA00812F902F09
:100500001F910F9108950F931F93182F092FE62F16
:10051000F0E0EE0FFF1FE254FF4F65917491902FB2
:100520000E94EA00812F902F1F910F910895F99951
:10053000FECF72BD61BDF89A80B50895F999FECFDE
:100540001FBA72BD61BD40BD0FB6F894FA9AF99A10
:100550000FBE0895DC011A966C931A97462F50E04F
:10056000CA01855C9E4FFC0124911B962C931B971E
:10057000415B5E4FFA0184911C968C931C9730E08E
:10058000220F331FF901E95DFE4F859194911E966C
:100590009C938E931D97F901EF5CFE4F859194918A
:1005A00050969C938E931F97F901E35EFE4F8591C1
:1005B000949152969C938E9351978FEF18968C93AB
:1005C000189719961C92199787E0FD01E80FF11D05
:1005D0001082882311F08150F8CF0895DC018FEF4D
:1005E00018968C93189719961C92199787E0FD011D
:1005F000E80FF11D1082882311F08150F8CF089583
:10060000FF920F931F938C01DC015196ED91FC91A9
:10061000529780811C969C911C97892B80831D96F4
:10062000ED91FC911E9790811C968C918095892369
:10063000808381E090E00E94BA0ED8015196ED913E
:10064000FC91529790811C968C9180958923808390
:1006500085E090E00E94BA0ED8011F96ED91FC91C2
:1006600050972081FF2430E01C968C9190E0282345
:100670003923232B11F0FF24F39482E390E00E94AE
:10068000BA0E8F2D1F910F91FF900895EF92FF9258
:100690000F931F93CF93DF937C0101E010E0C0E044
:1006A000D0E0C7010E9400038111102B000F21969A
:1006B000C830D105B1F7812FDF91CF911F910F91F4
:1006C000FF90EF900895EF92FF920F931F937C019C
:1006D000062FDC015196ED91FC91529780811C967A
:1006E0009C911C97892B80831D96ED91FC911E9700
:1006F00090811C968C91809589238083017010E0F5
:10070000F801ED5DFC4F808190E00E94BA0ED701A8
:100710001D96ED91FC911E9780811C969C91892BD2
:1007200080830F5D1C4FF801808190E00E94BA0E1B
:100730001F910F91FF90EF900895CF92DF92EF926B
:10074000FF920F931F93CF93DF938C01E42EFF242E
:10075000F394C0E0D0E0C62EDD2460E08F2D90E061
:100760008C219D21892B09F061E0C8010E9463035F
:10077000FF0C2196C830D10581F7EE2051F4F80125
:10078000828560E00E94020FF801828560E00E948D
:10079000220FDF91CF911F910F91FF90EF90DF908B
:1007A000CF900895EF92FF920F931F93CF93DF9313
:1007B0008C017B0165E540E00E949D03C0E0D0E034
:1007C000F701EC0FFD1FC801608140E00E949D030E
:1007D0002196C830D105A1F7DF91CF911F910F91DC
:1007E000FF90EF9008951F93CF93DF93EC018A85DC
:1007F00060E00E94020F1DE7115010F410E028C0C5
:1008000082E090E00E94BA0E8A850E946F0F892BC9
:1008100099F38A8560E00E94220F8A8561E00E9438
:10082000020F84EF91E00E94BA0E8A8560E00E9478
:10083000020F81E490E00E94BA0E8A850E946F0F39
:1008400010E0892B09F411E08AEE91E00E94BA0EC3
:10085000812FDF91CF911F9108958F929F92AF9238
:10086000BF92DF92EF92FF920F931F93CF93DF938C
:10087000EC015B018985882309F080C0CE010E94CC
:10088000F303882309F47AC0CE0160EF40E00E94B0
:100890009D03DD24DA94EE24E39400E010E021E0EF
:1008A000822E912CCE010E940003F82ECE010E94D0
:1008B0000003282F502F569556955695C8018770DE
:1008C0009070B40102C0660F771F8A95E2F7462F39
:1008D000FF2029F0222309F051C09F2D21C022239F
:1008E00039F58885992787FD90950817190711F420
:1008F000D8860EC0081719076CF4262F30E0FE01C9
:10090000E50FF11D808190E028233923232B19F076
:1009100091E003C0088790E0EE24D02E992341F0A7
:10092000FE01E50FF11D8081842B8083F92E07C025
:10093000FE01E50FF11D4095808148234083CE01E3
:100940006F2D0E9463030F5F1F4F0034110509F0E4
:10095000A9CFEE2011F081E0898720E030E0F50199
:10096000E20FF31FDE01A20FB31F8C9180832F5F74
:100970003F4F2830310599F781E001C080E0DF91D9
:10098000CF911F910F91FF90EF90DF90BF90AF90AC
:100990009F908F9008959C0164E070E00E94F41194
:1009A000AB01B901660F771F620F731F660F771FC8
:1009B000640F751F882777FD8095982F0E94C210BD
:1009C00060935103709352038093530390935403A5
:1009D00020E030E048EC52E40E94271008958AE6B7
:1009E00093E06AE00E94AA02089588E094E00E94E1
:1009F000B20B8823D1F388E094E00E94C60B982FB5
:100A000080538A3030F4292F332727FD3095205327
:100A10003040C9010895AF92BF92CF92DF92EF921A
:100A2000FF920F931F935C0168E0C62E64E0D62E00
:100A3000C60160E071E00E948B0C0E94F5049C01ED
:100A40008C0153E0000F111F5A95E1F7220F331F5D
:100A5000020F131F0E94F504080F191F780133E0DD
:100A6000EE0CFF1C3A95E1F7000F111FE00EF11E8E
:100A70000E94F504E80EF91EF501F182E082C6013C
:100A800064E471E00E944C0CF50160817181C60143
:100A90000E94320DC6016DE571E00E948B0C81E071
:100AA0001F910F91FF90EF90DF90CF90BF90AF908C
:100AB00008951F93182F88E094E068E671E00E9483
:100AC0004C0C1A3028F488E094E060E30E94440C57
:100AD000412F50E060E070E088E094E02AE030E0F0
:100AE0000E94670D1F910895AF92BF92CF92DF923F
:100AF000EF92FF920F931F9388E094E06AE671E013
:100B00000E948B0C0E94F504AA2797FDA095BA2F8E
:100B1000BC01CD012AE030E040E050E00E94D51158
:100B20007B018C010E94F504AA2797FDA095BA2F9E
:100B3000E80EF91E0A1F1B1F88E1E816F1040105E3
:100B4000110508F053C00E94F504AA2797FDA0954F
:100B5000BA2FBC01CD012AE030E040E050E00E9415
:100B6000D5115B016C010E94F504AA2797FDA095A1
:100B7000BA2FA80EB91ECA1EDB1E9CE3A916B1042B
:100B8000C104D10498F588E094E0B801A7010E945F
:100B9000380D8A2D0E94590588E094E00E94640C6B
:100BA000C801B70120E13EE040E050E00E94D511CD
:100BB0007B018C0180E893E4ADE6B8E3E80EF91E12
:100BC0000A1F1B1FC601B5012CE330E040E050E0D6
:100BD0000E94D511E60EF71E081F191F8CE293E044
:100BE000B801A7010E94560281E001C080E01F9178
:100BF0000F91FF90EF90DF90CF90BF90AF9008954E
:100C0000CF93DF93C2E6D3E0499150E060E070E01B
:100C100088E094E020E130E00E94670D83E0CA366E
:100C2000D80791F7DF91CF910895CF92DF92EF929D
:100C3000FF920F931F938CE293E00E94160208E04C
:100C400014E04091360350E060E070E0C8012AE013
:100C500030E00E94670D809137030E945905809112
:100C600038030E945905ECE7EE2EE1E0FE2EC801A4
:100C7000B7010E944C0C7DE3C72E73E0D72EC6014E
:100C800060913A030E946F02BC01C8010E944C0CA3
:100C9000C801B7010E944C0CC60160913B030E9441
:100CA0008302BC01C8010E944C0CC801B7010E941C
:100CB0004C0C4091390350E060E070E0C8012AE03C
:100CC00030E00E947C0D1F910F91FF90EF90DF901C
:100CD000CF900895CF93DF93C0E0D0E087E493E016
:100CE000BE010E949702482F50E060E070E088E06B
:100CF00094E020E030E00E94670D219682E0C03051
:100D0000D80761F788E094E00E94640CDF91CF91EE
:100D1000089588E094E00E94B20B8823D1F388E024
:100D200094E00E94C60B813639F40E946A0688E07E
:100D300094E00E94EE0BEDCF08954F925F926F9278
:100D40007F928F929F92AF92BF92CF92DF92EF925B
:100D5000FF920F931F93CF93DF9388E094E06EE7A9
:100D600071E00E944C0C87E493E060E070E00E9428
:100D70009702482F50E060E070E088E094E02AE0BD
:100D800030E00E94670D88E094E068E671E00E9420
:100D90004C0C87E493E061E070E00E949702482FDA
:100DA00050E060E070E088E094E02AE030E00E94EB
:100DB000670D88E094E063E971E00E944C0C87E4E1
:100DC00093E062E070E00E949702482F50E060E0FC
:100DD00070E088E094E02AE030E00E94670D88E04F
:100DE00094E060EA71E00E944C0C87E493E063E0D9
:100DF00070E00E949702482F50E060E070E088E0C9
:100E000094E02AE030E00E947C0D64E070E074C061
:100E1000B601A501440D551D661D771D88E094E0BF
:100E20002AE030E00E94670D88E094E065EC71E014
:100E30000E944C0C8E0187E493E0BE010E94970251
:100E4000E82EFF24A701662757FD6095762F88E0DE
:100E500094E020E130E00E94670D88E094E06CE7C8
:100E600071E00E944C0C22960F5F1F4F87E493E0C5
:100E7000B8010E949702082F10E0A801662757FDCD
:100E80006095762F88E094E020E130E00E94670DC5
:100E900088E094E067EC71E00E944C0CFE2CEE249C
:100EA000C701800F911F0E94CB04AB01BC0188E0F9
:100EB00094E00E940E0E88E094E069EC71E00E94DC
:100EC0004C0C0894811C911C82E090E0A0E0B0E002
:100ED000A80EB91ECA1EDB1E8091480390E088163A
:100EE00099060CF495CF88E094E00E94640C91E0A0
:100EF000CF3FD9076CF4BE01EB0188249924AA24C2
:100F0000BB2465012B01662457FC6094762CE4CF4A
:100F100088E094E00E94640CDF91CF911F910F91C3
:100F2000FF90EF90DF90CF90BF90AF909F908F9009
:100F30007F906F905F904F9008951F9388E094E0AA
:100F40006BEC71E00E948B0C10E017C01F5F412F0B
:100F500050E060E070E088E094E02AE030E00E9439
:100F6000670D88E094E069EC71E00E944C0C0E94EF
:100F7000000688E094E00E94640C8AE693E062E652
:100F800073E00E942D04882309F7812F1F91089593
:100F9000CF93DF93C4E0D0E087E493E0BE0140E06C
:100FA0000E949E02219682E0C030D807A9F7DF9107
:100FB000CF9108958CE293E00E941602882379F085
:100FC00087E493E060E070E0409136030E949E0267
:100FD00087E493E061E070E0409137030CC087E460
:100FE00093E060E070E04FEF0E949E0287E493E0A0
:100FF00061E070E04FEF0E949E0287E493E062E0C0
:1010000070E0409149030E949E0287E493E063E010
:1010100070E0409148030E949E0208954F925F92B3
:101020006F927F928F929F92AF92BF92CF92DF92F8
:10103000EF92FF920F931F93DF93CF93CDB7DEB75D
:10104000A7970FB6F894DEBF0FBECDBF8E010B5E23
:101050001F4FC8016AE00E94AA02C8010E94EE0266
:10106000AA2468014E010894811C911C19E0412EAC
:10107000512C4C0E5D1EB2E16B2E712C6C0E7D1E40
:10108000CCC0C601B4010E942D04C6010E94F30326
:10109000C601B4010E94D203C60164E441E00E948B
:1010A0009D0368EE73E080E090E00E94900EC60120
:1010B0000E94F303C601B4010E94D203C6016EEB85
:1010C00040E00E949D038201C6010E944603F80190
:1010D00081938F01E615F705B9F7B9844A856091C8
:1010E000810370918203F1E06F3F7F070CF07BC0BA
:1010F000EB2CFF24042F10E087E493E00E949E0273
:101100004091810350918203662757FD6095762FA9
:1011100088E094E02AE030E00E94670D88E094E0E7
:1011200069ED71E00E944C0CA801662757FD60959F
:10113000762F88E094E020E130E00E94670D609116
:101140008103709182036F5F7F4F7093820360937E
:10115000810387E493E04B2D0E949E02409181031E
:1011600050918203662757FD6095762F88E094E0C2
:101170002AE030E00E94670D88E094E06CED71E0B9
:101180000E944C0CA701662757FD6095762F88E0DA
:1011900094E020E130E00E94670D88E094E06CE785
:1011A00071E00E944C0C88E094E06FED71E00E94C9
:1011B0004C0C102F00270E0D1F1D88E094E0B80185
:1011C0000E945F0D88E094E069EC71E00E944C0C95
:1011D0008091810390918203019690938203809382
:1011E0008103A3941AC081E08093830388E094E094
:1011F00062EE71E00E944C0C409181035091820399
:1012000041505040662757FD6095762F88E094E066
:101210002AE030E00E947C0D05C080914803A816AA
:1012200008F42FCF88E094E00E94640CA7960FB6D4
:10123000F894DEBF0FBECDBFCF91DF911F910F910C
:10124000FF90EF90DF90CF90BF90AF909F908F90E6
:101250007F906F905F904F900895FF920F931F9330
:10126000CF93DF938AE693E00E94EE02FF24BBC097
:101270008AE693E062E673E00E942D044F2D50E071
:1012800060E070E088E094E02AE030E00E94670DC2
:1012900088E094E065EC71E00E944C0C0E9400062E
:1012A00088E094E063E072E00E944C0C8AE693E0F0
:1012B0000E94F3038AE693E062E673E00E94D203A1
:1012C0008AE693E064E441E00E949D0368EE73E0E7
:1012D00080E090E00E94900E8AE693E00E94F30383
:1012E000809355038AE693E062E673E00E94D2039E
:1012F0008AE693E06EEB40E00E949D03C6E5D3E0F2
:101300008AE693E00E944603899383E0CF35D807AD
:10131000B9F78091560390E090934E0380934D036C
:101320002091570320934B0310924C03122F00E09F
:10133000800F911F9093500380934F0388E094E0B7
:1013400066E072E00E944C0C40914B0350914C03BC
:10135000662757FD6095762F88E094E020E130E025
:101360000E94670D88E094E06CED71E00E944C0CE7
:1013700040914D0350914E03662757FD6095762F9F
:1013800088E094E020E130E00E94670D88E094E07E
:101390006FED71E00E944C0C60914F03709150030F
:1013A00088E094E00E945F0D88E094E06CE771E0D3
:1013B0000E944C0C80914F03909150030E94CB04EB
:1013C000AB01BC0188E094E00E940E0E88E094E03E
:1013D00068E072E00E944C0C88E094E069EC71E0F7
:1013E0000E944C0CF39480914803F81608F440CF07
:1013F00088E094E00E94640CDF91CF911F910F91DF
:10140000FF900895EF92FF920F931F930E94820E18
:101410007B018C0180917D0390917E03A0917F03DD
:10142000B0918003E81AF90A0A0B1B0B609149037B
:1014300070914A0380E090E020E63AEE40E050E010
:101440000E94D5116E157F058007910710F080E08E
:101450000BC00E94820E60937D0370937E03809385
:101460007F039093800381E01F910F91FF90EF9095
:10147000089584E090E090938203809381030E941A
:10148000DA070E94C80788E094E00E94EE0B0AC0C9
:101490000E94020A882311F00E940E0880918303A3
:1014A000882331F488E094E00E94B20B882381F312
:1014B00088E094E06AE072E00E948B0C88E094E09F
:1014C0000E94EE0B08951F9388E094E06FE172E0B4
:1014D0000E948B0C88E094E061E972E00E948B0C22
:1014E00088E094E00E94B20B8823D1F388E094E076
:1014F0000E94C60B182F88E094E0612F0E947B0C9D
:10150000133719F40E94740521C01436C9F40E94DF
:10151000150688E094E068EC72E00E944C0C609143
:10152000490370914A0388E094E00E94320D88E0FC
:1015300094E06CED72E00E948B0C0E942D091BC0A0
:101540001D3639F489E493E00E940B058823A1F04D
:1015500012C01C3419F40E94390A0DC01F3419F44A
:101560000E949D0608C0143711F080E005C00E945B
:101570002D090E940E0881E01F9108950E94630AC0
:10158000882381F488E094E065EE72E00E948B0C81
:1015900088E094E00E94EE0B64E670E080E090E06A
:1015A0000E94900E08950F931F9308E014E0C80165
:1015B00040E855E260E070E00E94490B0E94890615
:1015C0008CE293E040E853E46DE678E30E94560233
:1015D0000E9415060E949D0780934803C8016FEE84
:1015E00072E00E944C0C4091480350E060E070E0D3
:1015F000C8012AE030E00E947C0DC80160E073E081
:101600000E948B0C1F910F9108950E94C80E0E949A
:10161000D30A0E94BE0AFDCF1F920F920FB60F92FF
:1016200011242F933F934F935F936F937F938F93E7
:101630009F93AF93BF93EF93FF934091C600E091C8
:101640000404F0910504CF01019660E870E00E9467
:10165000F4119C0180910604909107042817390722
:1016600039F0EC57FC4F4083309305042093040479
:10167000FF91EF91BF91AF919F918F917F916F916A
:101680005F914F913F912F910F900FBE0F901F9040
:101690001895AF92BF92CF92DF92EF92FF920F9385
:1016A0001F93CF93DF936C017A018B01DC011496B9
:1016B000AD90BC901597CB01BA0122E030E040E03C
:1016C00050E00E942912205C3D4B404F5F4FCA0101
:1016D000B901A80197010E942912C901DA010197F5
:1016E000A109B109292F3A2F4B2F552747FD5A95AC
:1016F0000196A11DB11DE5012883E601EE81FF8160
:1017000081508083EA85FB85208141E050E0CA0159
:101710000E8402C0880F991F0A94E2F7282B2083B9
:10172000EA85FB852081CA010F8402C0880F991FBA
:101730000A94E2F7282B2083EA85FB8580810888BC
:1017400002C0440F551F0A94E2F7842B8083DF9177
:10175000CF911F910F91FF90EF90DF90CF90BF90AE
:10176000AF900895DC011296ED91FC911397E0582B
:10177000FF4F8191919180589F4F20813181821B31
:10178000930B60E870E00E94F4110895CF93DF930B
:10179000DC011296ED91FC911397EF01CE57DF4FCC
:1017A00048815981E058FF4F80819181E058F04095
:1017B0008417950719F42FEF3FEF0CC0E40FF51FC6
:1017C0002081CA01019660E870E00E94F4119983BB
:1017D000888330E0C901DF91CF910895DC01129632
:1017E000ED91FC911397EE57FF4F80819181929379
:1017F00082930895FC01A085B18521898C9190E0A8
:10180000022E02C0959587950A94E2F780FFF6CFE5
:101810000484F585E02D6083089589E293E0909338
:1018200009048093080484E893E090930B04809368
:101830000A0485EC90E090930D0480930C0484ECF2
:1018400090E090930F0480930E0480EC90E09093CE
:1018500011048093100481EC90E090931304809322
:10186000120486EC90E0909315048093140484E0B5
:101870008093160483E08093170487E08093180414
:1018800085E0809319040895DC01ED91FC910190AD
:10189000F081E02D099508950F931F93CF93DF9367
:1018A0008C01EB0109C02196D801ED91FC910190CA
:1018B000F081E02DC801099568816623A1F7DF91C9
:1018C000CF911F910F9108950F931F938C01DC010D
:1018D000ED91FC910190F081E02D6DE00995D8012A
:1018E000ED91FC910190F081E02DC8016AE009952D
:1018F0001F910F9108950F931F938C01DC01ED91BF
:10190000FC910190F081E02D0995C8010E94640CC2
:101910001F910F9108950F931F938C010E944C0CFF
:10192000C8010E94640C1F910F9108952F923F925D
:101930004F925F926F927F928F929F92AF92BF92DF
:10194000CF92DF92EF92FF920F931F93DF93CF938B
:10195000CDB7DEB7A0970FB6F894DEBF0FBECDBFF0
:101960001C016A017B01411551056105710549F4AE
:10197000DC01ED91FC910190F081E02D60E309958F
:1019800054C0882499245401422E55246624772477
:1019900001E010E00C0F1D1F080D191DC701B60155
:1019A000A30192010E940712F80160830894811C30
:1019B000911CA11CB11CC701B601A30192010E9498
:1019C0000712C901DA016C017D01C114D104E104DF
:1019D000F104F1F681E0E82EF12CEC0EFD1EE80C8E
:1019E000F91C3E010894611C711CD501C4010197CA
:1019F000A109B1096C01C818D90814C0F601EE0D8F
:101A0000FF1D60816A3010F4605D01C0695CD10126
:101A1000ED91FC910190F081E02DC10109950894B0
:101A2000E108F1086E147F0449F7A0960FB6F89408
:101A3000DEBF0FBECDBFCF91DF911F910F91FF9001
:101A4000EF90DF90CF90BF90AF909F908F907F905E
:101A50006F905F904F903F902F9008952AE00E94E2
:101A6000960C0895AB0160E070E00E942E0D089581
:101A7000EF92FF920F931F93CF93DF93EC017A01C4
:101A80008B0177FF0FC0E881F9810190F081E02D93
:101A90006DE2099510950095F094E094E11CF11C1D
:101AA000011D111DCE01B801A7012AE00E94960C6C
:101AB000DF91CF911F910F91FF90EF900895AB01AF
:101AC000662757FD6095762F0E94380D0895DC013A
:101AD0002115310541F4ED91FC910190F081E02D4B
:101AE000642F099508952A30310519F40E94380DA4
:101AF00008950E94960C08950F931F938C010E94E5
:101B0000670DC8010E94640C1F910F9108959F9268
:101B1000AF92BF92CF92DF92EF92FF920F931F93FB
:101B2000CF93DF93EC017A018B01922ECB01BA01A6
:101B300020E030E040E050E00E942310882364F46D
:101B4000E881F9810190F081E02DCE016DE20995E7
:101B500017FB109517F9109520E030E040E05FE3A7
:101B6000AA240BC0CA01B90120E030E040E251E4F0
:101B70000E9427109B01AC01A394A91498F3C801FB
:101B8000B7010E94BF0F5B016C010E9494107B01A2
:101B90008C01CE01B801A7010E942E0D992029F0D9
:101BA000CE0163E173E00E944C0CC801B7010E94B2
:101BB000C0109B01AC01C601B5010E94BE0F20C040
:101BC00020E030E040E251E40E9472117B018C0180
:101BD0000E948F105B016C01CC24B7FCC094DC2CFC
:101BE000CE01B601A5010E94380DC601B5010E94C3
:101BF000C2109B01AC01C801B7010E94BE0F9A94AC
:101C00009920F1F6DF91CF911F910F91FF90EF9006
:101C1000DF90CF90BF90AF909F90089522E00E94F8
:101C2000870D08951F920F920FB60F9211242F93D4
:101C30008F939F93AF93BF9380911A0490911B044D
:101C4000A0911C04B0911D040196A11DB11D8093AB
:101C50001A0490931B04A0931C04B0931D0480915C
:101C60001E0490911F04A0912004B0912104805083
:101C7000904CAF4FBF4F80931E0490931F04A093CE
:101C80002004B093210427C080911E0490911F046A
:101C9000A0912004B091210480589E43A040B04000
:101CA00080931E0490931F04A0932004B0932104FA
:101CB0008091220490912304A0912404B0912504E2
:101CC0000196A11DB11D8093220490932304A0933B
:101CD0002404B093250480911E0490911F04A091C8
:101CE0002004B091210481589E43A040B04060F68A
:101CF000BF91AF919F918F912F910F900FBE0F9039
:101D00001F9018958FB7F8942091220430912304E6
:101D100040912404509125048FBFB901CA01089550
:101D2000EF92FF920F931F937B018C018FB7F89472
:101D30004091220450912304609124047091250461
:101D40008FBF2FB7F8948091220490912304A09123
:101D50002404B09125042FBF841B950BA60BB70B51
:101D6000E816F9060A071B0760F71F910F91FF900D
:101D7000EF900895019759F0FC01EE0FFF1FEE0F51
:101D8000FF1F32978FB7F8943197F1F78FBF0895FF
:101D9000789484B5826084BD84B5816084BD85B546
:101DA000826085BD85B5816085BDEEE6F0E080810D
:101DB00081608083E1E8F0E08081826080838081BF
:101DC00081608083E0E8F0E0808181608083E1EBE6
:101DD000F0E0808184608083E0EBF0E080818160CE
:101DE0008083EAE7F0E08081846080838081826084
:101DF000808380818160808380818068808310926D
:101E0000C1000895282F30E0C901815B9E4FFC017D
:101E10009491255C3E4FF9018491882391F0E82F3D
:101E2000F0E0EE0FFF1FE35EFE4FA591B491662335
:101E300029F48C91909589238C9308958C91892B0A
:101E40008C930895482F50E0CA018D599E4FFC0194
:101E50002491CA01815B9E4FFC019491455C5E4FC9
:101E6000FA0134913323D1F1222331F1233021F4CB
:101E7000809180008F7705C0243031F480918000FC
:101E80008F7D8093800018C0213019F484B58F773E
:101E900004C0223021F484B58F7D84BD0DC026306E
:101EA00021F48091B0008F7705C0273029F480910C
:101EB000B0008F7D8093B000E32FF0E0EE0FFF1FA6
:101EC000E95DFE4FA591B491662329F48C9190951C
:101ED00089238C9308958C91892B8C930895682F76
:101EE00070E0CB018D599E4FFC012491CB01815BA9
:101EF0009E4FFC014491655C7E4FFB0194919923B8
:101F000019F420E030E038C0222331F1233021F4ED
:101F1000809180008F7705C0243031F4809180005B
:101F20008F7D8093800018C0213019F484B58F779D
:101F300004C0223021F484B58F7D84BD0DC02630CD
:101F400021F48091B0008F7705C0273029F480916B
:101F5000B0008F7D8093B000892F90E0880F991F8B
:101F60008F5C9E4FFC01A591B4918C9120E030E0F4
:101F7000842311F021E030E0C90108955058BB27B7
:101F8000AA270ED075C166D130F06BD120F031F4A4
:101F90009F3F11F41EF45BC10EF4E095E7FB51C1C5
:101FA000E92F77D180F3BA17620773078407950783
:101FB00018F071F49EF58FC10EF4E0950B2EBA2F38
:101FC000A02D0B01B90190010C01CA01A00111243F
:101FD000FF27591B99F0593F50F4503E68F11A16EB
:101FE000F040A22F232F342F4427585FF3CF46957C
:101FF00037952795A795F0405395C9F77EF41F169E
:10200000BA0B620B730B840BBAF09150A1F0FF0F67
:10201000BB1F661F771F881FC2F70EC0BA0F621F53
:10202000731F841F48F4879577956795B795F79543
:102030009E3F08F0B3CF9395880F08F09927EE0FD5
:10204000979587950895D9D008F481E008950CD02C
:102050000FC107D140F0FED030F021F45F3F19F0FE
:10206000F0C0511139C1F3C014D198F39923C9F3C9
:102070005523B1F3951B550BBB27AA27621773078E
:10208000840738F09F5F5F4F220F331F441FAA1F42
:10209000A9F333D00E2E3AF0E0E830D09150504002
:1020A000E695001CCAF729D0FE2F27D0660F771FB0
:1020B000881FBB1F261737074807AB07B0E809F092
:1020C000BB0B802DBF01FF2793585F4F2AF09E3F27
:1020D000510568F0B6C000C15F3FECF3983EDCF3F9
:1020E000869577956795B795F7959F5FC9F7880FA0
:1020F000911D9695879597F90895E1E0660F771FF2
:10210000881FBB1F621773078407BA0720F0621B82
:10211000730B840BBA0BEE1F88F7E095089504D07B
:102120006894B111D9C00895BCD088F09F5790F041
:10213000B92F9927B751A0F0D1F0660F771F881FEC
:10214000991F1AF0BA95C9F712C0B13081F0C3D007
:10215000B1E00895C0C0672F782F8827B85F39F0A5
:10216000B93FCCF3869577956795B395D9F73EF44B
:1021700090958095709561957F4F8F4F9F4F0895F3
:10218000E89409C097FB3EF4909580957095619511
:102190007F4F8F4F9F4F9923A9F0F92F96E9BB27C7
:1021A0009395F695879577956795B795F111F8CF43
:1021B000FAF4BB0F11F460FF1BC06F5F7F4F8F4FAE
:1021C0009F4F16C0882311F096E911C0772321F0A4
:1021D0009EE8872F762F05C0662371F096E8862F3C
:1021E00070E060E02AF09A95660F771F881FDAF793
:1021F000880F9695879597F90895990F0008550FC0
:10220000AA0BE0E8FEEF16161706E807F907C0F07C
:1022100012161306E407F50798F0621B730B840B84
:10222000950B39F40A2661F0232B242B252B21F45E
:1022300008950A2609F4A140A6958FEF811D811DFE
:10224000089597F99F6780E870E060E008959FEF38
:1022500080EC089500240A9416161706180609063D
:10226000089500240A94121613061406050608950C
:10227000092E0394000C11F4882352F0BB0F40F494
:10228000BF2B11F460FF04C06F5F7F4F8F4F9F4FD4
:10229000089557FD9058440F551F59F05F3F71F056
:1022A0004795880F97FB991F61F09F3F79F08795BD
:1022B0000895121613061406551FF2CF4695F1DF46
:1022C00008C0161617061806991FF1CF86957105D6
:1022D000610508940895E894BB2766277727CB010A
:1022E00097F908950BD0C4CFB5DF28F0BADF18F006
:1022F000952309F0A6CFABCF1124EECFCADFA0F310
:10230000959FD1F3950F50E0551F629FF001729F8A
:10231000BB27F00DB11D639FAA27F00DB11DAA1FA9
:10232000649F6627B00DA11D661F829F2227B00DF6
:10233000A11D621F739FB00DA11D621F839FA00D81
:10234000611D221F749F3327A00D611D231F849FD1
:10235000600D211D822F762F6A2F11249F57504028
:102360008AF0E1F088234AF0EE0FFF1FBB1F661FC3
:10237000771F881F91505040A9F79E3F510570F07C
:1023800060CFAACF5F3FECF3983EDCF3869577955C
:102390006795B795F795E7959F5FC1F7FE2B880F77
:1023A000911D9695879597F90895629FD001739F27
:1023B000F001829FE00DF11D649FE00DF11D929FE1
:1023C000F00D839FF00D749FF00D659FF00D992720
:1023D000729FB00DE11DF91F639FB00DE11DF91F44
:1023E000BD01CF011124089597FB092E07260AD0BD
:1023F00077FD04D049D006D000201AF4709561957D
:102400007F4F0895F6F7909581959F4F0895A1E22B
:102410001A2EAA1BBB1BFD010DC0AA1FBB1FEE1F5E
:10242000FF1FA217B307E407F50720F0A21BB30BA9
:10243000E40BF50B661F771F881F991F1A9469F725
:1024400060957095809590959B01AC01BD01CF0181
:10245000089597FB092E05260ED057FD04D0D7DF2F
:102460000AD0001C38F450954095309521953F4F87
:102470004F4F5F4F0895F6F7909580957095619551
:102480007F4F8F4F9F4F0895AA1BBB1B51E107C081
:10249000AA1FBB1FA617B70710F0A61BB70B881FF4
:1024A000991F5A95A9F780959095BC01CD01089583
:1024B000EE0FFF1F0590F491E02D0994F894FFCFE3
:1024C000456E74657220746865206C6F6767696E0D
:1024D0006720696E74657276616C20696E206D6923
:1024E0006E75746573202D2078787820287061646B
:1024F0002066726F6E742077697468207A65726FD7
:10250000657329004C6F6767696E6720696E746533
:102510007276616C2073657420746F2000206D6981
:102520006E757465287329003A00456E74657220D3
:1025300074696D65202D2068686D6D0020006C6FDA
:102540006767696E67207374617274656420617473
:102550003A200009696E74657276616C203D200036
:102560000964657669636520636F756E742028451C
:102570004570726F6D20706F736974696F6E203370
:1025800029203D20002D002C000900636F756E741A
:10259000096164647265737300204800204C003D3B
:1025A0003E006D656D6F72792066756C6C2E2073C0
:1025B000746F707065642061742061646472657307
:1025C000733A002C2000480043006C6F6767696E07
:1025D0006720646973636F6E74696E756564002D3E
:1025E0002D2D2D2D456E746572207320746F207310
:1025F00065742074696D652C206D20746F2073657F
:102600007420696E74657276616C286D696E75747C
:102610006573292C206420746F20646973706C6169
:10262000792073797374656D20696E666F202874E4
:10263000696D652C20696E74657276616C2C2074EE
:10264000656D706572617475726573202E2E2E2C07
:102650000020202020207420746F20746573742C57
:10266000204C20746F20626567696E206C6F67670D
:10267000696E672C204F20746F206F7574707574AD
:1026800020454550524F4D00696E74657276616CFD
:102690002069732073657420746F2000206D696E4B
:1026A000757465730074727920616761696E006486
:1026B000657669636520636F756E742069732000A9
:1026C0002A2A2A2A2A2A2A2A2A2A2A2A2A2A2A2A6A
:1026D0002A2A002E001F1C1F1E1F1E1F1F1E1F1E2A
:0C26E0001F0537370500000000FA0B0052
:00000001FF
