:100000000C9463000C948B000C948B000C948B006C
:100010000C948B000C948B000C948B000C948B0034
:100020000C948B000C948B000C948B000C948B0024
:100030000C948B000C948B000C948B000C948B0014
:100040000C94FB020C948B000C94D1010C948B004B
:100050000C948B000C948B000C948B000C948B00F4
:100060000C948B000C948B000000000024002700EF
:100070002A0000000000250028002B0000000000DE
:1000800023002600290004040404040404040202DA
:100090000202020203030303030301020408102007
:1000A0004080010204081020010204081020000012
:1000B0000007000201000003040600000000000029
:1000C000000078018A0211241FBECFEFD8E0DEBF06
:1000D000CDBF11E0A0E0B1E0ECE6F9E002C0059090
:1000E0000D92AE32B107D9F711E0AEE2B1E001C036
:1000F0001D92AE3DB107E1F710E0C6ECD0E004C0C0
:100100002297FE010E94B004C23CD107C9F70E94A9
:10011000CA010C94B4040C940000AF92BF92CF9229
:10012000DF92EF92FF920F931F93CF93DF938C0197
:10013000B62EFC018381642F0E94FD03F8018481A7
:1001400060E00E94FD03F80182818823C9F1680103
:100150007801C4E0D0E0AB2CBB24B5010C2E02C06A
:10016000759567950A94E2F76170F70186810E94A0
:10017000FD030894E11CF11C2196C830D10569F7F4
:10018000F801858161E00E94FD03F801858160E04E
:100190000E94FD03C0E0D0E0B5010C2E02C07595B1
:1001A00067950A94E2F76170F60186810E94FD036B
:1001B00021960894C11CD11CC430D10569F718C020
:1001C0007801C0E0D0E0CB2CDD24B6010C2E02C0BB
:1001D000759567950A94E2F76170F70186810E9430
:1001E000FD0321960894E11CF11CC830D10569F784
:1001F000F801858161E00E94FD03F801858160E0DE
:100200000E94FD03DF91CF911F910F91FF90EF901E
:10021000DF90CF90BF90AF90089541E00E948D0095
:10022000089540E00E948D00089561E00E94110150
:1002300080ED97E00E94950308956F927F928F92D0
:10024000AF92CF92EF92FF920F931F93DF93CF93D2
:10025000CDB7DEB73C01862F65E271E0F301718313
:10026000608312828383448325830683E782C0866A
:10027000A18682869E8593879F8594879889958796
:1002800061E00E94DD03F301848161E00E94DD03EF
:10029000F301858161E00E94DD03730100E010E05D
:1002A000F701868161E00E94DD030F5F1F4F089414
:1002B000E11CF11C0830110599F7C30168E30E94A5
:1002C0001101C3016CE00E941101C30166E00E94AC
:1002D0001101C3010E941501CF91DF911F910F9170
:1002E000FF90EF90CF90AF908F907F906F90089598
:1002F0008F92AF92CF92EF920F9300D00F92EDB703
:10030000FEB7319685E0ADB7BEB711968C9384E009
:10031000818383E082838EE291E06DE04CE02BE00C
:100320000AE0E9E0EE2E78E0C72E57E0A52E36E091
:10033000832E0E941D010F900F900F900F91EF9050
:10034000CF90AF908F90089580EC91E060E071E0E5
:100350000E94F00268EE73E080E090E00E946B0380
:1003600008950F931F9300EC11E0C80140E855E297
:1003700060E070E00E940E028EE291E06BE071E0BE
:100380000E94C102C80168E171E00E94C1021F9190
:100390000F9108950E94A3030E94B1010E94A4013D
:1003A000FDCF1F920F920FB60F9211242F933F9300
:1003B0004F935F936F937F938F939F93AF93BF936D
:1003C000EF93FF934091C600E091BC01F091BD0115
:1003D000CF01019660E870E00E944A049C01809180
:1003E000BE019091BF012817390739F0E45CFE4F38
:1003F00040833093BD012093BC01FF91EF91BF91E9
:10040000AF919F918F917F916F915F914F913F91AC
:100410002F910F900FBE0F901F901895AF92BF9223
:10042000CF92DF92EF92FF920F931F93CF93DF93C0
:100430006C017A018B01DC011496AD90BC9015978C
:10044000CB01BA0122E030E040E050E00E947F049E
:10045000205C3D4B404F5F4FCA01B901A801970195
:100460000E947F04C901DA010197A109B109292F6E
:100470003A2F4B2F552747FD5A950196A11DB11DC7
:10048000E5012883E601EE81FF8181508083EA85C2
:10049000FB85208141E050E0CA010E8402C0880F34
:1004A000991F0A94E2F7282B2083EA85FB85208197
:1004B000CA010F8402C0880F991F0A94E2F7282B03
:1004C0002083EA85FB858081088802C0440F551F80
:1004D0000A94E2F7842B8083DF91CF911F910F91D3
:1004E000FF90EF90DF90CF90BF90AF900895FC0108
:1004F000A085B18521898C9190E0022E02C095954E
:1005000087950A94E2F780FFF6CF0484F585E02D05
:10051000608308958BE291E09093C1018093C001C4
:100520008CE391E09093C3018093C20185EC90E04D
:100530009093C5018093C40184EC90E09093C7012F
:100540008093C60180EC90E09093C9018093C8012C
:1005500081EC90E09093CB018093CA0186EC90E00F
:100560009093CD018093CC0184E08093CE0183E011
:100570008093CF0187E08093D00185E08093D10103
:1005800008950F931F93CF93DF938C01EB0109C064
:100590002196D801ED91FC910190F081E02DC801E8
:1005A000099568816623A1F7DF91CF911F910F9183
:1005B00008950F931F938C01DC01ED91FC91019044
:1005C000F081E02D6DE00995D801ED91FC9101904D
:1005D000F081E02DC8016AE009951F910F910895FF
:1005E0000F931F938C010E94C102C8010E94D9027F
:1005F0001F910F9108951F920F920FB60F92112421
:100600002F938F939F93AF93BF938091D20190913B
:10061000D301A091D401B091D5010196A11DB11DC6
:100620008093D2019093D301A093D401B093D501CC
:100630008091D6019091D701A091D801B091D901B4
:100640008050904CAF4FBF4F8093D6019093D7010D
:10065000A093D801B093D90127C08091D601909181
:10066000D701A091D801B091D90180589E43A040F4
:10067000B0408093D6019093D701A093D801B09356
:10068000D9018091DA019091DB01A091DC01B09158
:10069000DD010196A11DB11D8093DA019093DB016C
:1006A000A093DC01B093DD018091D6019091D70138
:1006B000A091D801B091D90181589E43A040B0408B
:1006C00060F6BF91AF919F918F912F910F900FBEC8
:1006D0000F901F901895EF92FF920F931F937B013D
:1006E0008C018FB7F8944091DA015091DB01609151
:1006F000DC017091DD018FBF2FB7F8948091DA0192
:100700009091DB01A091DC01B091DD012FBF841B32
:10071000950BA60BB70BE816F9060A071B0760F73F
:100720001F910F91FF90EF900895019759F0FC01F0
:10073000EE0FFF1FEE0FFF1F32978FB7F894319720
:10074000F1F78FBF0895789484B5826084BD84B535
:10075000816084BD85B5826085BD85B5816085BDBC
:10076000EEE6F0E0808181608083E1E8F0E0808166
:1007700082608083808181608083E0E8F0E0808116
:1007800081608083E1EBF0E0808184608083E0EB36
:10079000F0E0808181608083EAE7F0E0808184601E
:1007A000808380818260808380818160808380817A
:1007B000806880831092C1000895282F30E0C9011D
:1007C00086569F4FFC0194912A573F4FF90184911F
:1007D000882391F0E82FF0E0EE0FFF1FE859FF4F5C
:1007E000A591B491662329F48C91909589238C93DB
:1007F00008958C91892B8C930895482F50E0CA015D
:1008000082559F4FFC012491CA0186569F4FFC01DF
:1008100094914A575F4FFA0134913323D1F1222347
:1008200031F1233021F4809180008F7705C024308E
:1008300031F4809180008F7D8093800018C021303A
:1008400019F484B58F7704C0223021F484B58F7DEC
:1008500084BD0DC0263021F48091B0008F7705C093
:10086000273029F48091B0008F7D8093B000E32F72
:10087000F0E0EE0FFF1FEE58FF4FA591B4916623F5
:1008800029F48C91909589238C9308958C91892BD0
:100890008C93089597FB092E07260AD077FD04D084
:1008A00049D006D000201AF4709561957F4F0895C5
:1008B000F6F7909581959F4F0895A1E21A2EAA1BF5
:1008C000BB1BFD010DC0AA1FBB1FEE1FFF1FA21700
:1008D000B307E407F50720F0A21BB30BE40BF50BFD
:1008E000661F771F881F991F1A9469F76095709586
:1008F000809590959B01AC01BD01CF01089597FBB8
:10090000092E05260ED057FD04D0D7DF0AD0001CD3
:1009100038F450954095309521953F4F4F4F5F4F9C
:100920000895F6F790958095709561957F4F8F4F5C
:100930009F4F0895AA1BBB1B51E107C0AA1FBB1FF5
:10094000A617B70710F0A61BB70B881F991F5A955B
:10095000A9F780959095BC01CD010895EE0FFF1F7A
:0C0960000590F491E02D0994F894FFCF6D
:10096C007374696C6C20686572650068656C6C6F7B
:10097C002C20776F726C64007374617274696E678B
:0E098C0000000000000D0100000000770200D6
:00000001FF
