:100000000C9463000C948B000C948B000C948B006C
:100010000C948B000C948B000C948B000C948B0034
:100020000C948B000C948B000C948B000C948B0024
:100030000C948B000C948B000C948B000C948B0014
:100040000C9481060C948B000C9401040C948B008E
:100050000C948B000C948B000C948B000C948B00F4
:100060000C948B000C948B000000000024002700EF
:100070002A0000000000250028002B0000000000DE
:1000800023002600290004040404040404040202DA
:100090000202020203030303030301020408102007
:1000A0004080010204081020010204081020000012
:1000B0000007000201000003040600000000000029
:1000C0000000C502BA0411241FBECFEFD8E0DEBF86
:1000D000CDBF11E0A0E0B1E0E4E4F5E102C005909D
:1000E0000D92A036B107D9F712E0A0E6B1E001C049
:1000F0001D92AD33B107E1F710E0C6ECD0E004C0CB
:100100002297FE010E949C0AC23CD107C9F70E94B7
:10011000FA030C94A00A0C940000DC011A966C936C
:100120001A97462F50E0CA018A579F4FFC0124912D
:100130001B962C931B9746565F4FFA0184911C9691
:100140008C931C9730E0220F331FF901EE58FF4FBC
:10015000859194911E969C938E931D97F901E45876
:10016000FF4F8591949150969C938E931F97F90120
:10017000E859FF4F8591949152969C938E93519795
:100180008FEF18968C93189719961C92199787E001
:10019000FD01E80FF11D1082882311F08150F8CF86
:1001A0000895DC018FEF18968C93189719961C927E
:1001B000199787E0FD01E80FF11D1082882311F0E7
:1001C0008150F8CF0895FC0140E030E05CE80EC0BB
:1001D000208190E0822F8327369580FD35279F5F11
:1001E000983011F02695F6CF4F5F3196461780F381
:1001F000832F0895FF920F931F938C01DC0151967A
:10020000ED91FC91529780811C969C911C97892BB3
:1002100080831D96ED91FC911E9790811C968C9188
:1002200080958923808381E090E00E941B07D8019C
:100230005196ED91FC91529790811C968C918095EE
:100240008923808385E090E00E941B07D8011F96D8
:10025000ED91FC9150972081FF2430E01C968C9109
:1002600090E028233923232B11F0FF24F39482E319
:1002700090E00E941B078F2D1F910F91FF90089512
:10028000EF92FF920F931F93CF93DF937C0101E0D6
:1002900010E0C0E0D0E0C7010E94FA008111102BED
:1002A000000F2196C830D105B1F7812FDF91CF9192
:1002B0001F910F91FF90EF900895EF92FF920F938F
:1002C0001F937C01062FDC015196ED91FC91529712
:1002D00080811C969C911C97892B80831D96ED91A3
:1002E000FC911E9790811C968C9180958923808328
:1002F000017010E0F801E85AFE4F808190E00E9402
:100300001B07D7011D96ED91FC911E9780811C96CD
:100310009C91892B80830A5A1E4FF801808190E0BE
:100320000E941B071F910F91FF90EF900895CF92AD
:10033000DF92EF92FF920F931F93CF93DF938C0185
:10034000E42EFF24F394C0E0D0E0C62EDD2460E06C
:100350008F2D90E08C219D21892B09F061E0C8014F
:100360000E945D01FF0C2196C830D10581F7EE2077
:1003700051F4F801828560E00E946307F8018285EC
:1003800060E00E948307DF91CF911F910F91FF9052
:10039000EF90DF90CF900895EF92FF920F931F930D
:1003A000CF93DF938C017B0165E540E00E949701CC
:1003B000C0E0D0E0F701EC0FFD1FC801608140E014
:1003C0000E9497012196C830D105A1F7DF91CF9106
:1003D0001F910F91FF90EF9008951F93CF93DF939C
:1003E000EC018A8560E00E9463071DE7115010F45C
:1003F00010E028C082E090E00E941B078A850E94DE
:10040000D007892B99F38A8560E00E9483078A854B
:1004100061E00E94630784EF91E00E941B078A85D8
:1004200060E00E94630781E490E00E941B078A85D8
:100430000E94D00710E0892B09F411E08AEE91E0C8
:100440000E941B07812FDF91CF911F9108958F92FA
:100450009F92AF92BF92DF92EF92FF920F931F9302
:10046000CF93DF93EC015B018985882309F080C07D
:10047000CE010E94ED01882309F47AC0CE0160EF1D
:1004800040E00E949701DD24DA94EE24E39400E03A
:1004900010E021E0822E912CCE010E94FA00F82E6D
:1004A000CE010E94FA00282F502F5695569556954A
:1004B000C80187709070B40102C0660F771F8A95DB
:1004C000E2F7462FFF2029F0222309F051C09F2D8B
:1004D00021C0222339F58885992787FD9095081733
:1004E000190711F4D8860EC0081719076CF4262FC7
:1004F00030E0FE01E50FF11D808190E028233923D3
:10050000232B19F091E003C0088790E0EE24D02E51
:10051000992341F0FE01E50FF11D8081842B80833A
:10052000F92E07C0FE01E50FF11D4095808148239B
:100530004083CE016F2D0E945D010F5F1F4F00347D
:10054000110509F0A9CFEE2011F081E0898720E0A4
:1005500030E0F501E20FF31FDE01A20FB31F8C9113
:1005600080832F5F3F4F2830310599F781E001C02C
:1005700080E0DF91CF911F910F91FF90EF90DF907E
:10058000BF90AF909F908F90089588E891E06AE0C7
:100590000E948D0008951F93CF93DF9388E891E028
:1005A00060E871E00E942702882329F488E891E03E
:1005B0000E94D10008C180E891E067E00E94E3005A
:1005C00090918701891729F08FE192E060E071E056
:1005D00008C080918001883239F08FE192E063E1B8
:1005E00071E00E94F104EFC088E891E00E94ED0103
:1005F00088E891E060E871E00E94CC0188E891E031
:1006000064E441E00E94970168EE73E080E090E0CE
:100610000E94F10688E891E00E94ED018093730149
:1006200088E891E060E871E00E94CC0188E891E000
:100630006EEB40E00E949701109272010EC088E8B4
:1006400091E00E944001E12FF0E0EC58FE4F8083E2
:10065000809172018F5F8093720110917201193045
:1006600070F38091740190E0909363018093620134
:10067000409175014093600110926101342F20E098
:10068000280F391F3093650120936401E901C07080
:10069000D078D0936701C0936601209741F08827F6
:1006A0009927821B930B909365018093640120919D
:1006B000640130916501C90164E070E00E94360A6E
:1006C000AB01B901660F771F620F731F660F771FAB
:1006D000640F751F882777FD8095982F0E94230946
:1006E00060936A0170936B0180936C0190936D012C
:1006F00020E030E040E151E40E94D30920E030E006
:1007000040EA50E40E94880820E030E048E455E4E4
:100710000E94200860936E0170936F0180937001B6
:1007200090937101CD2B31F08FE192E06BE371E09A
:100730000E94F1048FE192E06DE371E00E94F10408
:10074000109269011092680111C0E058FE4F60815B
:100750008FE192E070E00E94EE0580916801909137
:10076000690101969093690180936801E0916801A5
:10077000F0916901E830F10544F38FE192E068E41B
:1007800071E00E94F10460916E0170916F0180919F
:1007900070019091710120E030E048EC52E40E9439
:1007A0008808AB01BC018FE192E00E947D068FE1D9
:1007B00092E06CE471E00E94F10460ED77E080E08B
:1007C00090E00E94F106DF91CF911F9108950F9361
:1007D0001F930FE112E0C80140E855E260E070E0CD
:1007E0000E943E04C8016EE471E00E9420051F9142
:1007F0000F9108950E9429070E94E7030E94CB02EF
:10080000FDCF1F920F920FB60F9211242F933F939B
:100810004F935F936F937F938F939F93AF93BF9308
:10082000EF93FF934091C600E0911B02F0911C02F0
:10083000CF01019660E870E00E94360A9C01809129
:100840001D0290911E022817390739F0E556FE4F18
:10085000408330931C0220931B02FF91EF91BF91C4
:10086000AF919F918F917F916F915F914F913F9148
:100870002F910F900FBE0F901F901895AF92BF92BF
:10088000CF92DF92EF92FF920F931F93CF93DF935C
:100890006C017A018B01DC011496AD90BC90159728
:1008A000CB01BA0122E030E040E050E00E946B0A48
:1008B000205C3D4B404F5F4FCA01B901A801970131
:1008C0000E946B0AC901DA010197A109B109292F18
:1008D0003A2F4B2F552747FD5A950196A11DB11D63
:1008E000E5012883E601EE81FF8181508083EA855E
:1008F000FB85208141E050E0CA010E8402C0880FD0
:10090000991F0A94E2F7282B2083EA85FB85208132
:10091000CA010F8402C0880F991F0A94E2F7282B9E
:100920002083EA85FB858081088802C0440F551F1B
:100930000A94E2F7842B8083DF91CF911F910F916E
:10094000FF90EF90DF90CF90BF90AF900895FC01A3
:10095000A085B18521898C9190E0022E02C09595E9
:1009600087950A94E2F780FFF6CF0484F585E02DA1
:10097000608308958EE591E09093200280931F029A
:100980008BE991E0909322028093210285EC90E024
:10099000909324028093230284EC90E090932602AB
:1009A0008093250280EC90E09093280280932702A8
:1009B00081EC90E090932A028093290286EC90E0EB
:1009C00090932C0280932B0284E080932D0283E08D
:1009D00080932E0287E080932F0285E0809330027F
:1009E00008950F931F93CF93DF938C01EB0109C000
:1009F0002196D801ED91FC910190F081E02DC80184
:100A0000099568816623A1F7DF91CF911F910F911E
:100A100008950F931F938C01DC01ED91FC910190DF
:100A2000F081E02D6DE00995D801ED91FC910190E8
:100A3000F081E02DC8016AE009951F910F9108959A
:100A40000F931F938C010E94F104C8010E940905B5
:100A50001F910F9108952F923F924F925F926F9244
:100A60007F928F929F92AF92BF92CF92DF92EF923E
:100A7000FF920F931F93DF93CF93CDB7DEB7A0976D
:100A80000FB6F894DEBF0FBECDBF1C016A017B011B
:100A9000411551056105710549F4DC01ED91FC91A9
:100AA0000190F081E02D60E3099554C088249924D9
:100AB0005401422E55246624772401E010E00C0FE7
:100AC0001D1F080D191DC701B601A30192010E9447
:100AD000490AF80160830894811C911CA11CB11C77
:100AE000C701B601A30192010E94490AC901DA01B6
:100AF0006C017D01C114D104E104F104F1F681E03F
:100B0000E82EF12CEC0EFD1EE80CF91C3E010894B9
:100B1000611C711CD501C4010197A109B1096C01C7
:100B2000C818D90814C0F601EE0DFF1D60816A30A7
:100B300010F4605D01C0695CD101ED91FC91019000
:100B4000F081E02DC10109950894E108F1086E14C7
:100B50007F0449F7A0960FB6F894DEBF0FBECDBF55
:100B6000CF91DF911F910F91FF90EF90DF90CF9089
:100B7000BF90AF909F908F907F906F905F904F90BD
:100B80003F902F9008952AE00E942B050895EF9240
:100B9000FF920F931F93CF93DF93EC017A018B01A8
:100BA00077FF0FC0E881F9810190F081E02D6DE2BF
:100BB000099510950095F094E094E11CF11C011D3D
:100BC000111DCE01B801A7012AE00E942B05DF917B
:100BD000CF911F910F91FF90EF900895AB01662781
:100BE00057FD6095762F0E94C70508959F92AF929A
:100BF000BF92CF92DF92EF92FF920F931F93CF930A
:100C0000DF93EC017A018B01922ECB01BA0120E037
:100C100030E040E050E00E948408882364F4E881DA
:100C2000F9810190F081E02DCE016DE2099517FB6D
:100C3000109517F9109520E030E040E05FE3AA241A
:100C40000BC0CA01B90120E030E040E251E40E944B
:100C500088089B01AC01A394A91498F3C801B701BB
:100C60000E9420085B016C010E94F5087B018C0149
:100C7000CE01B801A7010E94C305992029F0CE0139
:100C800064E571E00E94F104C801B7010E942109E6
:100C90009B01AC01C601B5010E941F0820C020E0E5
:100CA00030E040E251E40E94D3097B018C010E94B4
:100CB000F0085B016C01CC24B7FCC094DC2CCE01A5
:100CC000B601A5010E94C705C601B5010E9423090E
:100CD0009B01AC01C801B7010E941F089A9499209A
:100CE000F1F6DF91CF911F910F91FF90EF90DF9080
:100CF000CF90BF90AF909F90089522E00E94F6059C
:100D000008951F920F920FB60F9211242F938F9375
:100D10009F93AF93BF938091310290913202A09143
:100D20003302B09134020196A11DB11D80933102AE
:100D300090933202A0933302B09334028091350233
:100D400090913602A0913702B09138028050904CB9
:100D5000AF4FBF4F8093350290933602A093370276
:100D6000B093380227C08091350290913602A0914D
:100D70003702B091380280589E43A040B040809323
:100D8000350290933602A0933702B09338028091D7
:100D9000390290913A02A0913B02B0913C02019637
:100DA000A11DB11D8093390290933A02A0933B029A
:100DB000B0933C028091350290913602A0913702A7
:100DC000B091380281589E43A040B04060F6BF9178
:100DD000AF919F918F912F910F900FBE0F901F9009
:100DE0001895EF92FF920F931F937B018C018FB7A1
:100DF000F8944091390250913A0260913B0270910F
:100E00003C028FBF2FB7F8948091390290913A023B
:100E1000A0913B02B0913C022FBF841B950BA60B07
:100E2000B70BE816F9060A071B0760F71F910F9129
:100E3000FF90EF900895019759F0FC01EE0FFF1F0E
:100E4000EE0FFF1F32978FB7F8943197F1F78FBFEE
:100E50000895789484B5826084BD84B5816084BD32
:100E600085B5826085BD85B5816085BDEEE6F0E023
:100E7000808181608083E1E8F0E08081826080830E
:100E8000808181608083E0E8F0E080818160808300
:100E9000E1EBF0E0808184608083E0EBF0E0808132
:100EA00081608083EAE7F0E08081846080838081D4
:100EB000826080838081816080838081806880837C
:100EC0001092C1000895282F30E0C90186569F4F27
:100ED000FC0194912A573F4FF9018491882391F0A6
:100EE000E82FF0E0EE0FFF1FE859FF4FA591B491F6
:100EF000662329F48C91909589238C9308958C9185
:100F0000892B8C930895482F50E0CA0182559F4F3A
:100F1000FC012491CA0186569F4FFC0194914A57C7
:100F20005F4FFA0134913323D1F1222331F1233081
:100F300021F4809180008F7705C0243031F48091B6
:100F400080008F7D8093800018C0213019F484B513
:100F50008F7704C0223021F484B58F7D84BD0DC00D
:100F6000263021F48091B0008F7705C0273029F416
:100F70008091B0008F7D8093B000E32FF0E0EE0F02
:100F8000FF1FEE58FF4FA591B491662329F48C9171
:100F9000909589238C9308958C91892B8C93089537
:100FA000682F70E0CB0182559F4FFC012491CB014B
:100FB00086569F4FFC0144916A577F4FFB019491E5
:100FC000992319F420E030E038C0222331F1233096
:100FD00021F4809180008F7705C0243031F4809116
:100FE00080008F7D8093800018C0213019F484B573
:100FF0008F7704C0223021F484B58F7D84BD0DC06D
:10100000263021F48091B0008F7705C0273029F475
:101010008091B0008F7D8093B000892F90E0880F81
:10102000991F84589F4FFC01A591B4918C9120E0A9
:1010300030E0842311F021E030E0C90108955058D8
:10104000BB27AA270ED075C166D130F06BD120F036
:1010500031F49F3F11F41EF45BC10EF4E095E7FB01
:1010600051C1E92F77D180F3BA176207730784075C
:10107000950718F071F49EF58FC10EF4E0950B2ED4
:10108000BA2FA02D0B01B90190010C01CA01A001DA
:101090001124FF27591B99F0593F50F4503E68F135
:1010A0001A16F040A22F232F342F4427585FF3CF76
:1010B000469537952795A795F0405395C9F77EF447
:1010C0001F16BA0B620B730B840BBAF09150A1F090
:1010D000FF0FBB1F661F771F881FC2F70EC0BA0F16
:1010E000621F731F841F48F4879577956795B7959E
:1010F000F7959E3F08F0B3CF9395880F08F0992796
:10110000EE0F979587950895D9D008F481E008955A
:101110000CD00FC107D140F0FED030F021F45F3F7A
:1011200019F0F0C0511139C1F3C014D198F39923CB
:10113000C9F35523B1F3951B550BBB27AA2762179B
:101140007307840738F09F5F5F4F220F331F441FE0
:10115000AA1FA9F333D00E2E3AF0E0E830D0915018
:101160005040E695001CCAF729D0FE2F27D0660F05
:10117000771F881FBB1F261737074807AB07B0E844
:1011800009F0BB0B802DBF01FF2793585F4F2AF05A
:101190009E3F510568F0B6C000C15F3FECF3983E3A
:1011A000DCF3869577956795B795F7959F5FC9F7B7
:1011B000880F911D9695879597F90895E1E0660F40
:1011C000771F881FBB1F621773078407BA0720F0B9
:1011D000621B730B840BBA0BEE1F88F7E095089522
:1011E00004D06894B111D9C00895BCD088F09F573D
:1011F00090F0B92F9927B751A0F0D1F0660F771F63
:10120000881F991F1AF0BA95C9F712C0B13081F042
:10121000C3D0B1E00895C0C0672F782F8827B85F8A
:1012200039F0B93FCCF3869577956795B395D9F7A3
:101230003EF490958095709561957F4F8F4F9F4FAD
:101240000895E89409C097FB3EF4909580957095B9
:1012500061957F4F8F4F9F4F9923A9F0F92F96E902
:10126000BB279395F695879577956795B795F11177
:10127000F8CFFAF4BB0F11F460FF1BC06F5F7F4F14
:101280008F4F9F4F16C0882311F096E911C0772326
:1012900021F09EE8872F762F05C0662371F096E82F
:1012A000862F70E060E02AF09A95660F771F881FFE
:1012B000DAF7880F9695879597F90895990F0008A2
:1012C000550FAA0BE0E8FEEF16161706E807F90718
:1012D000C0F012161306E407F50798F0621B730BB3
:1012E000840B950B39F40A2661F0232B242B252B34
:1012F00021F408950A2609F4A140A6958FEF811DD7
:10130000811D089597F99F6780E870E060E0089577
:101310009FEF80EC089500240A941616170618060D
:101320000906089500240A941216130614060506E9
:101330000895092E0394000C11F4882352F0BB0F7A
:1013400040F4BF2B11F460FF04C06F5F7F4F8F4FDD
:101350009F4F089557FD9058440F551F59F05F3F18
:1013600071F04795880F97FB991F61F09F3F79F0C7
:1013700087950895121613061406551FF2CF469549
:10138000F1DF08C0161617061806991FF1CF8695CB
:101390007105610508940895E894BB2766277727AF
:1013A000CB0197F908950BD0C4CFB5DF28F0BADF91
:1013B00018F0952309F0A6CFABCF1124EECFCADFEA
:1013C000A0F3959FD1F3950F50E0551F629FF00158
:1013D000729FBB27F00DB11D639FAA27F00DB11DB1
:1013E000AA1F649F6627B00DA11D661F829F22273A
:1013F000B00DA11D621F739FB00DA11D621F839FC1
:10140000A00D611D221F749F3327A00D611D231F96
:10141000849F600D211D822F762F6A2F11249F57E4
:1014200050408AF0E1F088234AF0EE0FFF1FBB1F07
:10143000661F771F881F91505040A9F79E3F5105A6
:1014400070F060CFAACF5F3FECF3983EDCF3869557
:1014500077956795B795F795E7959F5FC1F7FE2B51
:10146000880F911D9695879597F9089597FB092EFA
:1014700007260AD077FD04D049D006D000201AF400
:10148000709561957F4F0895F6F7909581959F4FE0
:101490000895A1E21A2EAA1BBB1BFD010DC0AA1FB5
:1014A000BB1FEE1FFF1FA217B307E407F50720F0CD
:1014B000A21BB30BE40BF50B661F771F881F991F48
:1014C0001A9469F760957095809590959B01AC0191
:1014D000BD01CF01089597FB092E05260ED057FDBB
:1014E00004D0D7DF0AD0001C38F4509540953095D1
:1014F00021953F4F4F4F5F4F0895F6F79095809598
:10150000709561957F4F8F4F9F4F0895AA1BBB1B0E
:1015100051E107C0AA1FBB1FA617B70710F0A61BF3
:10152000B70B881F991F5A95A9F780959095BC0114
:10153000CD010895EE0FFF1F0590F491E02D099461
:04154000F894FFCF4D
:10154400435243206973206E6F742076616C696422
:10155400210A00446576696365206973206E6F749F
:10156400206120445331385332302066616D696CF8
:1015740079206465766963652E0A002D00616464D0
:1015840072657373203D200020463D000A00736598
:10159400747570002E000537370500000000A7049D
:00000001FF
