:100000000C9435000C945D000C945D000C945D0024
:100010000C945D000C945D000C945D000C945D00EC
:100020000C945D000C945D000C945D000C945D00DC
:100030000C945D000C945D000C945D000C945D00CC
:100040000C94B6010C945D000C948C000C945D0033
:100050000C945D000C945D000C945D000C945D00AC
:100060000C945D000C945D00450111241FBECFEF80
:10007000D8E0DEBFCDBF11E0A0E0B1E0ECEEF5E0EE
:1000800002C005900D92AA34B107D9F711E0AAE495
:10009000B1E001C01D92AC3EB107E1F710E0CAE645
:1000A000D0E004C02297FE010E94F002C836D107BA
:1000B000C9F70E9485000C94F4020C9400000F9381
:1000C0001F930EEC11E0C80160E071E00E94AB01EB
:1000D00068EE73E080E090E00E942602C80162E2D0
:1000E00071E00E94AB0168EE73E080E090E00E9456
:1000F00026021F910F9108958EEC91E040E855E2A1
:1001000060E070E00E94C90008950E9450020E94C1
:100110007C000E945F00FDCF1F920F920FB60F92DE
:1001200011242F933F934F935F936F937F938F93FC
:100130009F93AF93BF93EF93FF934091C600E091DD
:10014000CA01F091CB01CF01019660E870E00E94F6
:100150008A029C018091CC019091CD01281739072A
:1001600039F0E65BFE4F40833093CB012093CA0108
:10017000FF91EF91BF91AF919F918F917F916F917F
:100180005F914F913F912F910F900FBE0F901F9055
:100190001895AF92BF92CF92DF92EF92FF920F939A
:1001A0001F93CF93DF936C017A018B01DC011496CE
:1001B000AD90BC901597CB01BA0122E030E040E051
:1001C00050E00E94BF02205C3D4B404F5F4FCA0190
:1001D000B901A80197010E94BF02C901DA01019784
:1001E000A109B109292F3A2F4B2F552747FD5A95C1
:1001F0000196A11DB11DE5012883E601EE81FF8175
:1002000081508083EA85FB85208141E050E0CA016E
:100210000E8402C0880F991F0A94E2F7282B2083CE
:10022000EA85FB852081CA010F8402C0880F991FCF
:100230000A94E2F7282B2083EA85FB8580810888D1
:1002400002C0440F551F0A94E2F7842B8083DF918C
:10025000CF911F910F91FF90EF90DF90CF90BF90C3
:10026000AF900895FC01A085B18521898C9190E023
:10027000022E02C0959587950A94E2F780FFF6CF8B
:100280000484F585E02D6083089588E491E09093DF
:10029000CF018093CE018AE491E09093D1018093C5
:1002A000D00185EC90E09093D3018093D20184EC4F
:1002B00090E09093D5018093D40180EC90E09093EE
:1002C000D7018093D60181EC90E09093D90180937F
:1002D000D80186EC90E09093DB018093DA0184E012
:1002E0008093DC0183E08093DD0187E08093DE0171
:1002F00085E08093DF0108950F931F93CF93DF93E1
:100300008C01EB0109C02196D801ED91FC9101907F
:10031000F081E02DC801099568816623A1F7DF917E
:10032000CF911F910F9108950F931F938C01DC01C2
:10033000ED91FC910190F081E02D6DE00995D801DF
:10034000ED91FC910190F081E02DC8016AE00995E2
:100350001F910F9108950F931F938C010E947C01B0
:10036000C8010E9494011F910F9108951F920F924E
:100370000FB60F9211242F938F939F93AF93BF9338
:100380008091E0019091E101A091E201B091E3013F
:100390000196A11DB11D8093E0019093E101A0930E
:1003A000E201B093E3018091E4019091E501A09115
:1003B000E601B091E7018050904CAF4FBF4F809362
:1003C000E4019093E501A093E601B093E70127C013
:1003D0008091E4019091E501A091E601B091E701DF
:1003E00080589E43A040B0408093E4019093E50183
:1003F000A093E601B093E7018091E8019091E901B3
:10040000A091EA01B091EB010196A11DB11D80936D
:10041000E8019093E901A093EA01B093EB01809188
:10042000E4019091E501A091E601B091E7018158C6
:100430009E43A040B04060F6BF91AF919F918F91D5
:100440002F910F900FBE0F901F901895EF92FF9273
:100450000F931F937B018C018FB7F8944091E801B3
:100460005091E9016091EA017091EB018FBF2FB7C4
:10047000F8948091E8019091E901A091EA01B0918E
:10048000EB012FBF841B950BA60BB70BE816F906E3
:100490000A071B0760F71F910F91FF90EF900895D7
:1004A000789484B5826084BD84B5816084BD85B54F
:1004B000826085BD85B5816085BDEEE6F0E0808116
:1004C00081608083E1E8F0E08081826080838081C8
:1004D00081608083E0E8F0E0808181608083E1EBEF
:1004E000F0E0808184608083E0EBF0E080818160D7
:1004F0008083EAE7F0E0808184608083808182608D
:100500008083808181608083808180688083109275
:10051000C100089597FB092E07260AD077FD04D065
:1005200049D006D000201AF4709561957F4F089548
:10053000F6F7909581959F4F0895A1E21A2EAA1B78
:10054000BB1BFD010DC0AA1FBB1FEE1FFF1FA21783
:10055000B307E407F50720F0A21BB30BE40BF50B80
:10056000661F771F881F991F1A9469F76095709509
:10057000809590959B01AC01BD01CF01089597FB3B
:10058000092E05260ED057FD04D0D7DF0AD0001C57
:1005900038F450954095309521953F4F4F4F5F4F20
:1005A0000895F6F790958095709561957F4F8F4FE0
:1005B0009F4F0895AA1BBB1B51E107C0AA1FBB1F79
:1005C000A617B70710F0A61BB70B881F991F5A95DF
:1005D000A9F780959095BC01CD010895EE0FFF1FFE
:0C05E0000590F491E02D0994F894FFCFF1
:1005EC00616464726573732034303233303934385B
:1005FC00333230343835363720463D2037342E35BB
:10060C003000616464726573732034303233303976
:10061C003438333230343835323220463D2037339B
:0A062C002E343000000000003201FF
:00000001FF
