:100000000C9463000C948B000C948B000C948B006C
:100010000C948B000C948B000C948B000C948B0034
:100020000C948B000C948B000C948B000C948B0024
:100030000C948B000C948B000C948B000C948B0014
:100040000C94F4050C948B000C94E3030C948B003B
:100050000C948B000C948B000C948B000C948B00F4
:100060000C948B000C948B000000000024002700EF
:100070002A0000000000250028002B0000000000DE
:1000800023002600290004040404040404040202DA
:100090000202020203030303030301020408102007
:1000A0004080010204081020010204081020000012
:1000B0000007000201000003040600000000000029
:1000C0000000AE029C0411241FBECFEFD8E0DEBFBB
:1000D000CDBF11E0A0E0B1E0ECEFFFE002C0059081
:1000E0000D92A235B107D9F712E0A2E5B1E001C047
:1000F0001D92A332B107E1F710E0C6ECD0E004C0D6
:100100002297FE010E94F807C23CD107C9F70E945E
:10011000DC030C94FC070C940000DC011A966C9331
:100120001A97462F50E0CA018A579F4FFC0124912D
:100130001B962C931B9746565F4FFA0184911C9691
:100140008C931C9730E0220F331FF901EE58FF4FBC
:10015000859194911E969C938E931D97F901E45876
:10016000FF4F8591949150969C938E931F97F90120
:10017000E859FF4F8591949152969C938E93519795
:100180008FEF18968C93189719961C92199787E001
:10019000FD01E80FF11D1082882311F08150F8CF86
:1001A0000895DC018FEF18968C93189719961C927E
:1001B000199787E0FD01E80FF11D1082882311F0E7
:1001C0008150F8CF0895FF920F931F938C01DC01AB
:1001D0005196ED91FC91529780811C969C911C97B1
:1001E000892B80831D96ED91FC911E9790811C9622
:1001F0008C9180958923808381E090E00E948E0617
:10020000D8015196ED91FC91529790811C968C915A
:1002100080958923808385E090E00E948E06D80136
:100220001F96ED91FC9150972081FF2430E01C96A1
:100230008C9190E028233923232B11F0FF24F39491
:1002400082E390E00E948E068F2D1F910F91FF9008
:100250000895EF92FF920F931F93CF93DF937C014A
:1002600001E010E0C0E0D0E0C7010E94E30081118E
:10027000102B000F2196C830D105B1F7812FDF91E7
:10028000CF911F910F91FF90EF900895EF92FF9201
:100290000F931F937C01062FDC015196ED91FC9189
:1002A000529780811C969C911C97892B80831D9668
:1002B000ED91FC911E9790811C968C9180958923DD
:1002C0008083017010E0F801E75BFE4F808190E0D1
:1002D0000E948E06D7011D96ED91FC911E9780819C
:1002E0001C969C91892B8083095B1E4FF8018081AD
:1002F00090E00E948E061F910F91FF90EF9008955D
:10030000CF92DF92EF92FF920F931F93CF93DF93E1
:100310008C01E42EFF24F394C0E0D0E0C62EDD244F
:1003200060E08F2D90E08C219D21892B09F061E008
:10033000C8010E944601FF0C2196C830D10581F703
:10034000EE2051F4F801828560E00E94D606F801A3
:10035000828560E00E94F606DF91CF911F910F9198
:10036000FF90EF90DF90CF900895EF92FF920F9360
:100370001F93CF93DF938C017B0165E540E00E94E2
:100380008001C0E0D0E0F701EC0FFD1FC8016081E3
:1003900040E00E9480012196C830D105A1F7DF918D
:1003A000CF911F910F91FF90EF9008951F93CF93DE
:1003B000DF93EC018A8560E00E94D6061DE71150AC
:1003C00010F410E028C082E090E00E948E068A853A
:1003D0000E944307892B99F38A8560E00E94F60604
:1003E0008A8561E00E94D60684EF91E00E948E0625
:1003F0008A8560E00E94D60681E490E00E948E0625
:100400008A850E94430710E0892B09F411E08AEEE7
:1004100091E00E948E06812FDF91CF911F91089568
:100420008F929F92AF92BF92DF92EF92FF920F93C3
:100430001F93CF93DF93EC015B018985882309F03B
:1004400080C0CE010E94D601882309F47AC0CE0173
:1004500060EF40E00E948001DD24DA94EE24E39412
:1004600000E010E021E0822E912CCE010E94E300FA
:10047000F82ECE010E94E300282F502F5695569556
:100480005695C80187709070B40102C0660F771F3F
:100490008A95E2F7462FFF2029F0222309F051C068
:1004A0009F2D21C0222339F58885992787FD9095B6
:1004B0000817190711F4D8860EC0081719076CF42D
:1004C000262F30E0FE01E50FF11D808190E028230A
:1004D0003923232B19F091E003C0088790E0EE2424
:1004E000D02E992341F0FE01E50FF11D8081842B70
:1004F0008083F92E07C0FE01E50FF11D4095808134
:1005000048234083CE016F2D0E9446010F5F1F4F8D
:100510000034110509F0A9CFEE2011F081E08987A0
:1005200020E030E0F501E20FF31FDE01A20FB31F60
:100530008C9180832F5F3F4F2830310599F781E000
:1005400001C080E0DF91CF911F910F91FF90EF905C
:10055000DF90BF90AF909F908F9008958EE691E0CE
:100560006AE00E948D000895CF93DF93C6E6D1E044
:10057000499150E060E070E085E092E020E130E0F9
:100580000E94D40581E0CE36D80791F7DF91CF9154
:100590000895FF920F931F93CF93DF938EE691E020
:1005A0000E94D100FF24A3C08EE691E066E671E0D0
:1005B0000E9410024F2D50E060E070E085E092E074
:1005C0002AE030E00E94D40585E092E060E071E02E
:1005D0000E94D3040E94B40285E092E062E071E0E0
:1005E0000E94D3048EE691E00E94D6018EE691E04F
:1005F00066E671E00E94B5018EE691E064E441E0B8
:100600000E94800168EE73E080E090E00E94640642
:100610008EE691E00E94D601809359018EE691E02A
:1006200066E671E00E94B5018EE691E06EEB40E077
:100630000E948001CAE5D1E08EE691E00E94290186
:10064000899381E0C336D807B9F780915A0190E0C9
:10065000909355018093540120915B0120935201A6
:1006600010925301122F00E0800F911F90935701B9
:100670008093560185E092E065E071E00E94D3042A
:100680004091520150915301662757FD6095762F96
:1006900085E092E020E130E00E94D40585E092E020
:1006A00067E071E00E94D3044091540150915501DC
:1006B000662757FD6095762F85E092E020E130E0D7
:1006C0000E94D40585E092E06AE071E00E94D304C4
:1006D000609156017091570185E092E00E94CC052F
:1006E00085E092E06DE071E00E94D304F394809184
:1006F0005801F81608F458CF85E092E00E94EB0408
:10070000DF91CF911F910F91FF9008951F9385E086
:1007100092E06FE071E00E94020510E017C01F5FD9
:10072000412F50E060E070E085E092E02AE030E0A8
:100730000E94D40585E092E06DE071E00E94D30450
:100740000E94B40285E092E00E94EB048EE691E004
:1007500066E671E00E941002882309F7812F1F913D
:1007600008950F931F9305E012E0C80140E855E299
:1007700060E070E00E942004C8016DE171E00E9419
:1007800002050E94860380935801C80163E271E06C
:100790000E94D3044091580150E060E070E0C8012D
:1007A0002AE030E00E94E905C80164E371E00E949C
:1007B00002051F910F9108950E949C060E94B103AB
:1007C0000E94C902FDCF1F920F920FB60F92112403
:1007D0002F933F934F935F936F937F938F939F9349
:1007E000AF93BF93EF93FF934091C600E091010256
:1007F000F0910202CF01019660E870E00E9492073A
:100800009C0180910302909104022817390739F066
:10081000EF57FE4F40833093020220930102FF9175
:10082000EF91BF91AF919F918F917F916F915F9168
:100830004F913F912F910F900FBE0F901F901895E1
:10084000AF92BF92CF92DF92EF92FF920F931F93DE
:10085000CF93DF936C017A018B01DC011496AD908C
:10086000BC901597CB01BA0122E030E040E050E0A7
:100870000E94C707205C3D4B404F5F4FCA01B90142
:10088000A80197010E94C707C901DA010197A109D0
:10089000B109292F3A2F4B2F552747FD5A9501961D
:1008A000A11DB11DE5012883E601EE81FF81815084
:1008B0008083EA85FB85208141E050E0CA010E84F7
:1008C00002C0880F991F0A94E2F7282B2083EA853B
:1008D000FB852081CA010F8402C0880F991F0A94EA
:1008E000E2F7282B2083EA85FB858081088802C0F7
:1008F000440F551F0A94E2F7842B8083DF91CF9138
:100900001F910F91FF90EF90DF90CF90BF90AF902D
:100910000895FC01A085B18521898C9190E0022E7B
:1009200002C0959587950A94E2F780FFF6CF04847C
:10093000F585E02D608308958FE491E090930602A1
:100940008093050281E891E090930802809307026A
:1009500085EC90E090930A028093090284EC90E089
:1009600090930C0280930B0280EC90E090930E0227
:1009700080930D0281EC90E09093100280930F021F
:1009800086EC90E0909312028093110284E08093B1
:10099000130283E08093140287E08093150285E0C0
:1009A0008093160208950F931F93CF93DF938C01CA
:1009B000EB0109C02196D801ED91FC910190F081E5
:1009C000E02DC801099568816623A1F7DF91CF91D9
:1009D0001F910F9108950F931F938C01DC01ED91EE
:1009E000FC910190F081E02D6DE00995D801ED9129
:1009F000FC910190F081E02DC8016AE009951F91FA
:100A00000F9108950F931F938C010E94D304C80186
:100A10000E94EB041F910F9108952F923F924F92E5
:100A20005F926F927F928F929F92AF92BF92CF927E
:100A3000DF92EF92FF920F931F93DF93CF93CDB787
:100A4000DEB7A0970FB6F894DEBF0FBECDBF1C0176
:100A50006A017B01411551056105710549F4DC010D
:100A6000ED91FC910190F081E02D60E3099554C077
:100A7000882499245401422E55246624772401E0C9
:100A800010E00C0F1D1F080D191DC701B601A301B1
:100A900092010E94A507F80160830894811C911CB3
:100AA000A11CB11CC701B601A30192010E94A507B8
:100AB000C901DA016C017D01C114D104E104F10422
:100AC000F1F681E0E82EF12CEC0EFD1EE80CF91C8D
:100AD0003E010894611C711CD501C4010197A10954
:100AE000B1096C01C818D90814C0F601EE0DFF1D3C
:100AF00060816A3010F4605D01C0695CD101ED91E4
:100B0000FC910190F081E02DC10109950894E10864
:100B1000F1086E147F0449F7A0960FB6F894DEBF73
:100B20000FBECDBFCF91DF911F910F91FF90EF903E
:100B3000DF90CF90BF90AF909F908F907F906F90FD
:100B40005F904F903F902F900895EF92FF920F93F8
:100B50001F93CF93DF93EC017A018B0177FF0FC0D6
:100B6000E881F9810190F081E02D6DE20995109501
:100B70000095F094E094E11CF11C011D111DCE01C3
:100B8000B801A7012AE00E940D05DF91CF911F91C6
:100B90000F91FF90EF900895AB01662757FD609588
:100BA000762F0E94A5050895DC012115310541F439
:100BB000ED91FC910190F081E02D642F099508954D
:100BC0002A30310519F40E94A50508950E940D05EB
:100BD00008950F931F938C010E94D405C8010E94B1
:100BE000EB041F910F9108951F920F920FB60F9271
:100BF00011242F938F939F93AF93BF9380911702EC
:100C000090911802A0911902B0911A020196A11DAB
:100C1000B11D8093170290931802A0931902B0930C
:100C20001A0280911B0290911C02A0911D02B091AA
:100C30001E028050904CAF4FBF4F80931B02909389
:100C40001C02A0931D02B0931E0227C080911B02BC
:100C500090911C02A0911D02B0911E0280589E43EB
:100C6000A040B04080931B0290931C02A0931D02F1
:100C7000B0931E0280911F0290912002A091210248
:100C8000B09122020196A11DB11D80931F02909385
:100C90002002A0932102B093220280911B02909126
:100CA0001C02A0911D02B0911E0281589E43A040DB
:100CB000B04060F6BF91AF919F918F912F910F90AF
:100CC0000FBE0F901F901895EF92FF920F931F93F6
:100CD0007B018C018FB7F89440911F025091200244
:100CE00060912102709122028FBF2FB7F8948091FA
:100CF0001F0290912002A0912102B09122022FBFE9
:100D0000841B950BA60BB70BE816F9060A071B0701
:100D100060F71F910F91FF90EF900895019759F0A0
:100D2000FC01EE0FFF1FEE0FFF1F32978FB7F894F5
:100D30003197F1F78FBF0895789484B5826084BDB0
:100D400084B5816084BD85B5826085BD85B58160CF
:100D500085BDEEE6F0E0808181608083E1E8F0E02F
:100D6000808182608083808181608083E0E8F0E020
:100D7000808181608083E1EBF0E08081846080830A
:100D8000E0EBF0E0808181608083EAE7F0E0808141
:100D900084608083808182608083808181608083A1
:100DA0008081806880831092C1000895282F30E0F0
:100DB000C90186569F4FFC0194912A573F4FF90174
:100DC0008491882391F0E82FF0E0EE0FFF1FE8599F
:100DD000FF4FA591B491662329F48C9190958923B6
:100DE0008C9308958C91892B8C930895482F50E013
:100DF000CA0182559F4FFC012491CA0186569F4F1C
:100E0000FC0194914A575F4FFA0134913323D1F199
:100E1000222331F1233021F4809180008F7705C0A7
:100E2000243031F4809180008F7D8093800018C041
:100E3000213019F484B58F7704C0223021F484B5B1
:100E40008F7D84BD0DC0263021F48091B0008F7756
:100E500005C0273029F48091B0008F7D8093B000C9
:100E6000E32FF0E0EE0FFF1FEE58FF4FA591B49176
:100E7000662329F48C91909589238C9308958C9105
:100E8000892B8C930895682F70E0CB0182559F4F7A
:100E9000FC012491CB0186569F4FFC0144916A5777
:100EA0007F4FFB019491992319F420E030E038C082
:100EB000222331F1233021F4809180008F7705C007
:100EC000243031F4809180008F7D8093800018C0A1
:100ED000213019F484B58F7704C0223021F484B511
:100EE0008F7D84BD0DC0263021F48091B0008F77B6
:100EF00005C0273029F48091B0008F7D8093B00029
:100F0000892F90E0880F991F84589F4FFC01A5916D
:100F1000B4918C9120E030E0842311F021E030E0A6
:100F2000C901089597FB092E07260AD077FD04D042
:100F300049D006D000201AF4709561957F4F08952E
:100F4000F6F7909581959F4F0895A1E21A2EAA1B5E
:100F5000BB1BFD010DC0AA1FBB1FEE1FFF1FA21769
:100F6000B307E407F50720F0A21BB30BE40BF50B66
:100F7000661F771F881F991F1A9469F760957095EF
:100F8000809590959B01AC01BD01CF01089597FB21
:100F9000092E05260ED057FD04D0D7DF0AD0001C3D
:100FA00038F450954095309521953F4F4F4F5F4F06
:100FB0000895F6F790958095709561957F4F8F4FC6
:100FC0009F4F0895AA1BBB1B51E107C0AA1FBB1F5F
:100FD000A617B70710F0A61BB70B881F991F5A95C5
:100FE000A9F780959095BC01CD010895EE0FFF1FE4
:0C0FF0000590F491E02D0994F894FFCFD7
:100FFC002D002C20004800204C003D3E00090063D1
:10100C006F756E74096164647265737300736574D3
:10101C0075700064657669636520636F756E742006
:10102C00697320002A2A2A2A2A2A2A2A2A2A2A2AC0
:10103C002A2A2A2A2A2A00053737050000000089A7
:02104C0004009E
:00000001FF
