:100000000C94C0000C94E8000C94E8000C94E800F8
:100010000C94E8000C94E8000C94E8000C94E800C0
:100020000C94E8000C94E8000C94E8000C94E800B0
:100030000C94E8000C94E8000C94E8000C94E800A0
:100040000C940C0E0C94E8000C94060B0C94E80035
:100050000C94E8000C94E8000C94E8000C94E80080
:100060000C94E8000C94E8004A616E7561727900A6
:100070004665627275617279004D61726368004114
:100080007072696C004D6179004A756E65004A7541
:100090006C79004175677573740053657074656D94
:1000A000626572004F63746F626572004E6F7665B1
:1000B0006D62657200446563656D6265720068001B
:1000C000700079007F00850089008E0093009A00FF
:1000D000A400AC00B50053756E646179004D6F6E7D
:1000E0006461790054756573646179005765646E65
:1000F0006573646179005468757273646179004650
:10010000726964617900536174757264617900D6B3
:1001100000DD00E400EC00F600FF00060100000036
:1001200000240027002A0000000000250028002BE2
:100130000000000000230026002900040404040439
:100140000404040202020202020303030303030184
:10015000020408102040800102040810200102045B
:100160000810200000000700020100000304060040
:100170000000000000000000E4016C02EF04070C26
:1001800011241FBECFEFD8E0DEBFCDBF13E0A0E04B
:10019000B1E0E4EBF4E202C005900D92AA31B107A0
:1001A000D9F714E0AAE1B3E001C01D92A231B10772
:1001B000E1F711E0C0E8D1E004C02297FE010E94FF
:1001C0005412C837D107C9F70E94FF0A0C9458127D
:1001D0000C940000FB01DC0105900D920020E1F77A
:1001E00008952F923F924F925F926F927F928F92DB
:1001F0009F92AF92BF92CF92DF92EF92FF920F93B6
:100200001F93DF93CF9300D000D0CDB7DEB7FB01B3
:100210003A0129011801FA82E982BC82AB825401B9
:10022000E080F18002811381C801B7012CE330E046
:1002300040E050E00E942312D3016C93C801B70143
:100240002CE330E040E050E00E942312122F032FF5
:10025000F42EE52E622F732F842F952F2CE330E0A0
:1002600040E050E00E942312F2016083612F702F62
:100270008F2D9E2D2CE330E040E050E00E942312B1
:10028000122F032FF42EE52E622F732F842F952F1C
:1002900028E130E040E050E00E942312D1016C934D
:1002A000612F702F8F2D9E2D28E130E040E050E02F
:1002B0000E94231279018A01C801B7016C5F7F4F48
:1002C0008F4F9F4F27E030E040E050E00E94231224
:1002D000F6016083E6E420E030E040E050E001C059
:1002E000EF5F6E2F70E0637070706115710529F01B
:1002F0008DE691E0A0E0B0E004C08EE691E0A0E0E1
:10030000B0E0280F391F4A1F5B1FC901A0E0B0E011
:10031000E816F9060A071B071CF7D501EC936115CF
:10032000710529F48EE691E0A0E0B0E004C08DE60E
:1003300091E0A0E0B0E0281B390B4A0B5B0BD80121
:10034000C701821B930BA40BB50B9C01AD01E3E02D
:10035000F3E090E0913039F46115710511F08CE112
:1003600003C08DE101C08081E82EFF2400E010E091
:100370002E153F054007510744F02E193F09400B49
:10038000510B9F5F31969C3029F7AB81BC819C93C8
:10039000822F8F5FE981FA8180830F900F900F90F9
:1003A0000F90CF91DF911F910F91FF90EF90DF9011
:1003B000CF90BF90AF909F908F907F906F905F9005
:1003C0004F903F902F900895109223031092220394
:1003D0000895CF93DF93EC0113C088819981AA819E
:1003E000BB810196A11DB11D88839983AA83BB831C
:1003F00028513C4F4F4F5F4F2C833D834E835F838B
:100400000E947C0E2C813D814E815F81621B730BAB
:10041000840B950B685E734080409040F0F66881D5
:1004200079818A819B81DF91CF9108958F929F92EC
:10043000AF92BF92CF92DF92EF92FF920F931F93F2
:10044000CF93DF93EC0188859985892B11F480E0A7
:1004500020C0CE010E94E9019E01255F3F4F8E0121
:10046000065F1F4FFE013D96DE011E969FE0A92EFE
:10047000B12CAC0EBD1E80E1882E912C8C0E9D1EE1
:10048000CE01BE012C96AE017F016D010E94F100EC
:1004900081E0DF91CF911F910F91FF90EF90DF905E
:1004A000CF90BF90AF909F908F9008950F931F9320
:1004B0008C01FC0140835183628373830E947C0E14
:1004C000F801648375838683978382E090E0918747
:1004D00080871F910F9108951092340308950F9310
:1004E0001F93182F092FE62FF0E0EE0FFF1FE15F9B
:1004F000FE4F65917491812F0E94EA00812F902F09
:100500001F910F9108950F931F93182F092FE62F16
:10051000F0E0EE0FFF1FE254FF4F65917491902FB2
:100520000E94EA00812F902F1F910F910895F99951
:10053000FECF72BD61BDF89A80B50895F999FECFDE
:100540001FBA72BD61BD40BD0FB6F894FA9AF99A10
:100550000FBE0895DC011A966C931A97462F50E04F
:10056000CA01855C9E4FFC0124911B962C931B971E
:10057000415B5E4FFA0184911C968C931C9730E08E
:10058000220F331FF901E95DFE4F859194911E966C
:100590009C938E931D97F901EF5CFE4F859194918A
:1005A00050969C938E931F97F901E35EFE4F8591C1
:1005B000949152969C938E9351978FEF18968C93AB
:1005C000189719961C92199787E0FD01E80FF11D05
:1005D0001082882311F08150F8CF0895DC018FEF4D
:1005E00018968C93189719961C92199787E0FD011D
:1005F000E80FF11D1082882311F08150F8CF089583
:10060000FF920F931F938C01DC015196ED91FC91A9
:10061000529780811C969C911C97892B80831D96F4
:10062000ED91FC911E9790811C968C918095892369
:10063000808381E090E00E94B40ED8015196ED9144
:10064000FC91529790811C968C9180958923808390
:1006500085E090E00E94B40ED8011F96ED91FC91C8
:1006600050972081FF2430E01C968C9190E0282345
:100670003923232B11F0FF24F39482E390E00E94AE
:10068000B40E8F2D1F910F91FF900895EF92FF925E
:100690000F931F93CF93DF937C0101E010E0C0E044
:1006A000D0E0C7010E9400038111102B000F21969A
:1006B000C830D105B1F7812FDF91CF911F910F91F4
:1006C000FF90EF900895EF92FF920F931F937C019C
:1006D000062FDC015196ED91FC91529780811C967A
:1006E0009C911C97892B80831D96ED91FC911E9700
:1006F00090811C968C91809589238083017010E0F5
:10070000F801EF5EFC4F808190E00E94B40ED701AB
:100710001D96ED91FC911E9780811C969C91892BD2
:100720008083015F1C4FF801808190E00E94B40E2D
:100730001F910F91FF90EF900895CF92DF92EF926B
:10074000FF920F931F93CF93DF938C01E42EFF242E
:10075000F394C0E0D0E0C62EDD2460E08F2D90E061
:100760008C219D21892B09F061E0C8010E9463035F
:10077000FF0C2196C830D10581F7EE2051F4F80125
:10078000828560E00E94FC0EF801828560E00E9494
:100790001C0FDF91CF911F910F91FF90EF90DF9091
:1007A000CF900895EF92FF920F931F93CF93DF9313
:1007B0008C017B0165E540E00E949D03C0E0D0E034
:1007C000F701EC0FFD1FC801608140E00E949D030E
:1007D0002196C830D105A1F7DF91CF911F910F91DC
:1007E000FF90EF9008951F93CF93DF93EC018A85DC
:1007F00060E00E94FC0E1DE7115010F410E028C0CC
:1008000082E090E00E94B40E8A850E94690F892BD5
:1008100099F38A8560E00E941C0F8A8561E00E943E
:10082000FC0E84EF91E00E94B40E8A8560E00E9485
:10083000FC0E81E490E00E94B40E8A850E94690F4C
:1008400010E0892B09F411E08AEE91E00E94B40EC9
:10085000812FDF91CF911F9108958F929F92AF9238
:10086000BF92DF92EF92FF920F931F93CF93DF938C
:10087000EC015B018985882309F080C0CE010E94CC
:10088000F303882309F47AC0CE0160EF40E00E94B0
:100890009D03DD24DA94EE24E39400E010E021E0EF
:1008A000822E912CCE010E940003F82ECE010E94D0
:1008B0000003282F502F569556955695C8018770DE
:1008C0009070B40102C0660F771F8A95E2F7462F39
:1008D000FF2029F0222309F051C09F2D21C022239F
:1008E00039F58885992787FD90950817190711F420
:1008F000D8860EC0081719076CF4262F30E0FE01C9
:10090000E50FF11D808190E028233923232B19F076
:1009100091E003C0088790E0EE24D02E992341F0A7
:10092000FE01E50FF11D8081842B8083F92E07C025
:10093000FE01E50FF11D4095808148234083CE01E3
:100940006F2D0E9463030F5F1F4F0034110509F0E4
:10095000A9CFEE2011F081E0898720E030E0F50199
:10096000E20FF31FDE01A20FB31F8C9180832F5F74
:100970003F4F2830310599F781E001C080E0DF91D9
:10098000CF911F910F91FF90EF90DF90BF90AF90AC
:100990009F908F9008959C0164E070E00E94EE119A
:1009A000AB01B901660F771F620F731F660F771FC8
:1009B000640F751F882777FD8095982F0E94BC10C3
:1009C00060933F03709340038093410390934203ED
:1009D00020E030E048EC52E40E942110089588E5C0
:1009E00093E06AE00E94AA02089584EF93E00E94D7
:1009F000AC0B8823D1F384EF93E00E94C00B982FB7
:100A000080538A3030F4292F332727FD3095205327
:100A10003040C9010895AF92BF92CF92DF92EF921A
:100A2000FF920F931F935C0164EFC62E63E0D62EF6
:100A3000C60160E071E00E94850C0E94F5049C01F3
:100A40008C0153E0000F111F5A95E1F7220F331F5D
:100A5000020F131F0E94F504080F191F780133E0DD
:100A6000EE0CFF1C3A95E1F7000F111FE00EF11E8E
:100A70000E94F504E80EF91EF501F182E082C6013C
:100A800064E471E00E94460CF50160817181C60149
:100A90000E942C0DC6016DE571E00E94850C81E07D
:100AA0001F910F91FF90EF90DF90CF90BF90AF908C
:100AB00008951F93182F84EF93E068E671E00E9479
:100AC000460C1A3028F484EF93E060E30E943E0C59
:100AD000412F50E060E070E084EF93E02AE030E0E6
:100AE0000E94610D1F910895AF92BF92CF92DF9245
:100AF000EF92FF920F931F9384EF93E06AE671E009
:100B00000E94850C0E94F504AA2797FDA095BA2F94
:100B1000BC01CD012AE030E040E050E00E94CF115E
:100B20007B018C010E94F504AA2797FDA095BA2F9E
:100B3000E80EF91E0A1F1B1F88E1E816F1040105E3
:100B4000110508F053C00E94F504AA2797FDA0954F
:100B5000BA2FBC01CD012AE030E040E050E00E9415
:100B6000CF115B016C010E94F504AA2797FDA095A7
:100B7000BA2FA80EB91ECA1EDB1E9CE3A916B1042B
:100B8000C104D10498F584EF93E0B801A7010E9455
:100B9000320D8A2D0E94590584EF93E00E945E0C6D
:100BA000C801B70120E13EE040E050E00E94CF11D3
:100BB0007B018C0180E893E4ADE6B8E3E80EF91E12
:100BC0000A1F1B1FC601B5012CE330E040E050E0D6
:100BD0000E94CF11E60EF71E081F191F8AE193E04D
:100BE000B801A7010E94560281E001C080E01F9178
:100BF0000F91FF90EF90DF90CF90BF90AF9008954E
:100C0000CF93DF93C0E5D3E0499150E060E070E01E
:100C100084EF93E020E130E00E94610D83E0C8356D
:100C2000D80791F7DF91CF910895CF92DF92EF929D
:100C3000FF920F931F938AE193E00E94160204EF44
:100C400013E04091240350E060E070E0C8012AE026
:100C500030E00E94610D809125030E94590580912A
:100C600026030E945905ECE7EE2EE1E0FE2EC801B6
:100C7000B7010E94460C7BE2C72E73E0D72EC60157
:100C8000609128030E946F02BC01C8010E94460CBB
:100C9000C801B7010E94460CC601609129030E9459
:100CA0008302BC01C8010E94460CC801B7010E9422
:100CB000460C4091270350E060E070E0C8012AE054
:100CC00030E00E94760D1F910F91FF90EF90DF9022
:100CD000CF900895CF93DF93C0E0D0E085E393E019
:100CE000BE010E949702482F50E060E070E084EF60
:100CF00093E020E030E00E94610D219682E0C03058
:100D0000D80761F784EF93E00E945E0CDF91CF91EA
:100D1000089584EF93E00E94AC0B8823D1F384EF15
:100D200093E00E94C00B813639F40E946A0684EF7A
:100D300093E00E94E80BEDCF08954F925F926F927F
:100D40007F928F929F92AF92BF92CF92DF92EF925B
:100D5000FF920F931F93CF93DF9384EF93E06EE79F
:100D600071E00E94460C85E393E060E070E00E9431
:100D70009702482F50E060E070E084EF93E02AE0B3
:100D800030E00E94610D84EF93E068E671E00E941C
:100D9000460C85E393E061E070E00E949702482FE3
:100DA00050E060E070E084EF93E02AE030E00E94E1
:100DB000610D84EF93E063E971E00E94460C85E3E6
:100DC00093E062E070E00E949702482F50E060E0FC
:100DD00070E084EF93E02AE030E00E94610D84EF40
:100DE00093E060EA71E00E94460C85E393E063E0E3
:100DF00070E00E949702482F50E060E070E084EFBE
:100E000093E02AE030E00E94760D64E070E074C068
:100E1000B601A501440D551D661D771D84EF93E0B5
:100E20002AE030E00E94610D84EF93E061EB71E015
:100E30000E94460C8E0185E393E0BE010E9497025A
:100E4000E82EFF24A701662757FD6095762F84EFD3
:100E500093E020E130E00E94610D84EF93E06CE7C5
:100E600071E00E94460C22960F5F1F4F85E393E0CE
:100E7000B8010E949702082F10E0A801662757FDCD
:100E80006095762F84EF93E020E130E00E94610DC1
:100E900084EF93E063EB71E00E94460CFE2CEE249D
:100EA000C701800F911F0E94CB04AB01BC0184EFEE
:100EB00093E00E94080E84EF93E065EB71E00E94DE
:100EC000460C0894811C911C82E090E0A0E0B0E008
:100ED000A80EB91ECA1EDB1E8091360390E088164C
:100EE00099060CF495CF84EF93E00E945E0C91E09C
:100EF000CF3FD9076CF4BE01EB0188249924AA24C2
:100F0000BB2465012B01662457FC6094762CE4CF4A
:100F100084EF93E00E945E0CDF91CF911F910F91BF
:100F2000FF90EF90DF90CF90BF90AF909F908F9009
:100F30007F906F905F904F9008951F9384EF93E0A0
:100F400067EB71E00E94850C10E017C01F5F412F16
:100F500050E060E070E084EF93E02AE030E00E942F
:100F6000610D84EF93E065EB71E00E94460C0E94F6
:100F7000000684EF93E00E945E0C88E593E060E554
:100F800073E00E942D04882309F7812F1F91089593
:100F9000CF93DF93C4E0D0E085E393E0BE0140E06F
:100FA0000E949E02219682E0C030D807A9F7DF9107
:100FB000CF9108958AE193E00E941602882379F088
:100FC00085E393E060E070E0409124030E949E027C
:100FD00085E393E061E070E0409125030CC085E378
:100FE00093E060E070E04FEF0E949E0285E393E0A3
:100FF00061E070E04FEF0E949E0285E393E062E0C3
:1010000070E0409137030E949E0285E393E063E025
:1010100070E0409136030E949E0208954F925F92C5
:101020006F927F928F929F92AF92BF92CF92DF92F8
:10103000EF92FF920F931F93DF93CF93CDB7DEB75D
:10104000A7970FB6F894DEBF0FBECDBF8E010B5E23
:101050001F4FC8016AE00E94AA02C8010E94EE0266
:10106000AA2468014E010894811C911C19E0412EAC
:10107000512C4C0E5D1EB2E16B2E712C6C0E7D1E40
:10108000CCC0C601B4010E942D04C6010E94F30326
:10109000C601B4010E94D203C60164E441E00E948B
:1010A0009D0368EE73E080E090E00E948A0EC60126
:1010B0000E94F303C601B4010E94D203C6016EEB85
:1010C00040E00E949D038201C6010E944603F80190
:1010D00081938F01E615F705B9F7B9844A856091C8
:1010E000010370910203F1E06F3F7F070CF07BC0BA
:1010F000EB2CFF24042F10E085E393E00E949E0276
:101100004091010350910203662757FD6095762FA9
:1011100084EF93E02AE030E00E94610D84EF93E0D9
:1011200065EC71E00E94460CA801662757FD6095AA
:10113000762F84EF93E020E130E00E94610D609112
:101140000103709102036F5F7F4F709302036093FE
:10115000010385E393E04B2D0E949E024091010321
:1011600050910203662757FD6095762F84EF93E038
:101170002AE030E00E94610D84EF93E068EC71E0BA
:101180000E94460CA701662757FD6095762F84EFD5
:1011900093E020E130E00E94610D84EF93E06CE782
:1011A00071E00E94460C84EF93E06BEC71E00E94CA
:1011B000460C102F00270E0D1F1D84EF93E0B80181
:1011C0000E94590D84EF93E065EB71E00E94460C9C
:1011D0008091010390910203019690930203809302
:1011E0000103A3941AC081E080936F0384EF93E01E
:1011F0006EEC71E00E94460C409101035091020395
:1012000041505040662757FD6095762F84EF93E05C
:101210002AE030E00E94760D05C080913603A816C2
:1012200008F42FCF84EF93E00E945E0CA7960FB6D0
:10123000F894DEBF0FBECDBFCF91DF911F910F910C
:10124000FF90EF90DF90CF90BF90AF909F908F90E6
:101250007F906F905F904F900895FF920F931F9330
:10126000CF93DF9388E593E00E94EE02FF24BBC09A
:1012700088E593E060E573E00E942D044F2D50E077
:1012800060E070E084EF93E02AE030E00E94610DBE
:1012900084EF93E061EB71E00E94460C0E9400062F
:1012A00084EF93E06FEE71E00E94460C88E593E0D6
:1012B0000E94F30388E593E060E573E00E94D203A7
:1012C00088E593E064E441E00E949D0368EE73E0EA
:1012D00080E090E00E948A0E88E593E00E94F3038C
:1012E0008093430388E593E060E573E00E94D203B6
:1012F00088E593E06EEB40E00E949D03C4E4D3E0F8
:1013000088E593E00E944603899383E0CD34D807B3
:10131000B9F78091440390E090933C0380933B03A2
:10132000209145032093390310923A03122F00E0D5
:10133000800F911F90933E0380933D0384EF93E0D1
:1013400062EF71E00E94460C4091390350913A03DC
:10135000662757FD6095762F84EF93E020E130E01B
:101360000E94610D84EF93E068EC71E00E94460CEE
:1013700040913B0350913C03662757FD6095762FC3
:1013800084EF93E020E130E00E94610D84EF93E070
:101390006BEC71E00E94460C60913D0370913E033E
:1013A00084EF93E00E94590D84EF93E06CE771E0C5
:1013B0000E94460C80913D0390913E030E94CB0415
:1013C000AB01BC0184EF93E00E94080E84EF93E030
:1013D00064EF71E00E94460C84EF93E065EB71E0EE
:1013E0000E94460CF39480913603F81608F440CF1F
:1013F00084EF93E00E945E0CDF91CF911F910F91DB
:10140000FF900895EF92FF920F931F930E947C0E1E
:101410007B018C0180916B0390916C03A0916D0313
:10142000B0916E03E81AF90A0A0B1B0B609137039F
:101430007091380380E090E020E63AEE40E050E022
:101440000E94CF116E157F058007910710F080E094
:101450000BC00E947C0E60936B0370936C038093AF
:101460006D0390936E0381E01F910F91FF90EF90B9
:1014700008950E94DA070E94C80784EF93E00E9453
:10148000E80B0AC00E94020A882311F00E940E088D
:1014900080916F03882331F484EF93E00E94AC0BBA
:1014A000882381F384EF93E066EF71E00E94850C5E
:1014B00084EF93E00E94E80B08951F9384EF93E07C
:1014C0006BE072E00E94850C84EF93E06DE772E0C0
:1014D0000E94850C84EF93E00E94AC0B8823D1F32B
:1014E00084EF93E00E94C00B182F84EF93E0612FEC
:1014F0000E94750C133719F40E94740521C014362C
:10150000C9F40E94150684EF93E064EB72E00E9438
:10151000460C609137037091380384EF93E00E948A
:101520002C0D84EF93E068EC72E00E94850C0E9421
:101530002D091BC01D3639F487E393E00E940B058B
:101540008823A1F012C01C3419F40E94390A0DC07E
:101550001F3419F40E949D0608C0143711F080E072
:1015600005C00E942D090E940E0881E01F91089578
:101570000E945D0A882381F484EF93E061ED72E0BC
:101580000E94850C84EF93E00E94E80B64E670E013
:1015900080E090E00E948A0E08950F931F9304EF5D
:1015A00013E0C80140E855E260E070E00E94430BA0
:1015B0000E9489068AE193E040E853E46DE678E30F
:1015C0000E9456020E9415060E949D0780933603D2
:1015D000C8016BED72E00E94460C4091360350E06A
:1015E00060E070E0C8012AE030E00E94760DC8019A
:1015F0006CEE72E00E94850C1F910F9108950E947D
:10160000C20E0E94CD0A0E94B80AFDCF1F920F920F
:101610000FB60F9211242F933F934F935F936F93C5
:101620007F938F939F93AF93BF93EF93FF934091DB
:10163000C600E091F003F091F103CF01019660E85C
:1016400070E00E94EE119C018091F2039091F303EF
:101650002817390739F0E059FC4F40833093F103E4
:101660002093F003FF91EF91BF91AF919F918F91E4
:101670007F916F915F914F913F912F910F900FBE8E
:101680000F901F901895AF92BF92CF92DF92EF927A
:10169000FF920F931F93CF93DF936C017A018B011D
:1016A000DC011496AD90BC901597CB01BA0122E0F5
:1016B00030E040E050E00E942312205C3D4B404F60
:1016C0005F4FCA01B901A80197010E942312C90105
:1016D000DA010197A109B109292F3A2F4B2F55277C
:1016E00047FD5A950196A11DB11DE5012883E6012C
:1016F000EE81FF8181508083EA85FB85208141E076
:1017000050E0CA010E8402C0880F991F0A94E2F7C4
:10171000282B2083EA85FB852081CA010F8402C023
:10172000880F991F0A94E2F7282B2083EA85FB850E
:101730008081088802C0440F551F0A94E2F7842B69
:101740008083DF91CF911F910F91FF90EF90DF90F9
:10175000CF90BF90AF900895DC011296ED91FC916F
:101760001397E058FF4F8191919180589F4F2081AE
:101770003181821B930B60E870E00E94EE110895A6
:10178000CF93DF93DC011296ED91FC911397EF015B
:10179000CE57DF4F48815981E058FF4F80819181BA
:1017A000E058F0408417950719F42FEF3FEF0CC075
:1017B000E40FF51F2081CA01019660E870E00E94E5
:1017C000EE119983888330E0C901DF91CF910895AC
:1017D000DC011296ED91FC911397EE57FF4F80813B
:1017E0009181929382930895FC01A085B18521890E
:1017F0008C9190E0022E02C0959587950A94E2F7AD
:1018000080FFF6CF0484F585E02D6083089587E19D
:1018100093E09093F5038093F40380E793E0909333
:10182000F7038093F60385EC90E09093F90380939F
:10183000F80384EC90E09093FB038093FA0380EC30
:1018400090E09093FD038093FC0381EC90E09093F3
:10185000FF038093FE0386EC90E090930104809355
:10186000000484E08093020483E08093030487E013
:101870008093040485E0809305040895DC01ED91D4
:10188000FC910190F081E02D099508950F931F932D
:10189000CF93DF938C01EB0109C02196D801ED9124
:1018A000FC910190F081E02DC801099568816623C3
:1018B000A1F7DF91CF911F910F9108950F931F937F
:1018C0008C01DC01ED91FC910190F081E02D6DE047
:1018D0000995D801ED91FC910190F081E02DC801AE
:1018E0006AE009951F910F9108950F931F938C0142
:1018F000DC01ED91FC910190F081E02D0995C8018A
:101900000E945E0C1F910F9108950F931F938C01FD
:101910000E94460CC8010E945E0C1F910F91089511
:101920002F923F924F925F926F927F928F929F92EF
:10193000AF92BF92CF92DF92EF92FF920F931F93DD
:10194000DF93CF93CDB7DEB7A0970FB6F894DEBF85
:101950000FBECDBF1C016A017B0141155105610518
:10196000710549F4DC01ED91FC910190F081E02DCD
:1019700060E3099554C0882499245401422E5524CB
:101980006624772401E010E00C0F1D1F080D191DBF
:10199000C701B601A30192010E940112F801608300
:1019A0000894811C911CA11CB11CC701B601A301A4
:1019B00092010E940112C901DA016C017D01C1147A
:1019C000D104E104F104F1F681E0E82EF12CEC0EF3
:1019D000FD1EE80CF91C3E010894611C711CD50128
:1019E000C4010197A109B1096C01C818D90814C034
:1019F000F601EE0DFF1D60816A3010F4605D01C0DC
:101A0000695CD101ED91FC910190F081E02DC10163
:101A100009950894E108F1086E147F0449F7A0962F
:101A20000FB6F894DEBF0FBECDBFCF91DF911F91EF
:101A30000F91FF90EF90DF90CF90BF90AF909F906D
:101A40008F907F906F905F904F903F902F90089570
:101A50002AE00E94900C0895AB0160E070E00E94C3
:101A6000280D0895EF92FF920F931F93CF93DF936A
:101A7000EC017A018B0177FF0FC0E881F9810190B9
:101A8000F081E02D6DE2099510950095F094E094B9
:101A9000E11CF11C011D111DCE01B801A7012AE0B6
:101AA0000E94900CDF91CF911F910F91FF90EF90CA
:101AB0000895AB01662757FD6095762F0E94320D81
:101AC0000895DC012115310541F4ED91FC9101905F
:101AD000F081E02D642F099508952A30310519F41D
:101AE0000E94320D08950E94900C08950F931F9349
:101AF0008C010E94610DC8010E945E0C1F910F9124
:101B000008959F92AF92BF92CF92DF92EF92FF9291
:101B10000F931F93CF93DF93EC017A018B01922EE9
:101B2000CB01BA0120E030E040E050E00E941D10FF
:101B3000882364F4E881F9810190F081E02DCE01E1
:101B40006DE2099517FB109517F9109520E030E02C
:101B500040E05FE3AA240BC0CA01B90120E030E0F5
:101B600040E251E40E9421109B01AC01A394A9140E
:101B700098F3C801B7010E94B90F5B016C010E9484
:101B80008E107B018C01CE01B801A7010E94280DA7
:101B9000992029F0CE016FEF72E00E94460CC80137
:101BA000B7010E94BA109B01AC01C601B5010E94A9
:101BB000B80F20C020E030E040E251E40E946C11F8
:101BC0007B018C010E9489105B016C01CC24B7FC65
:101BD000C094DC2CCE01B601A5010E94320DC601D5
:101BE000B5010E94BC109B01AC01C801B7010E9465
:101BF000B80F9A949920F1F6DF91CF911F910F9130
:101C0000FF90EF90DF90CF90BF90AF909F9008959E
:101C100022E00E94810D08951F920F920FB60F923D
:101C200011242F938F939F93AF93BF9380910604BA
:101C300090910704A0910804B09109040196A11D98
:101C4000B11D8093060490930704A0930804B093F9
:101C5000090480910A0490910B04A0910C04B091A6
:101C60000D048050904CAF4FBF4F80930A04909367
:101C70000B04A0930C04B0930D0427C080910A04B8
:101C800090910B04A0910C04B0910D0480589E43D8
:101C9000A040B04080930A0490930B04A0930C04DE
:101CA000B0930D0480910E0490910F04A091100444
:101CB000B09111040196A11DB11D80930E04909363
:101CC0000F04A0931004B093110480910A04909122
:101CD0000B04A0910C04B0910D0481589E43A040C8
:101CE000B04060F6BF91AF919F918F912F910F906F
:101CF0000FBE0F901F9018958FB7F89420910E0487
:101D000030910F0440911004509111048FBFB9011C
:101D1000CA010895EF92FF920F931F937B018C01EC
:101D20008FB7F89440910E0450910F046091100405
:101D3000709111048FBF2FB7F89480910E04909189
:101D40000F04A0911004B09111042FBF841B950BB8
:101D5000A60BB70BE816F9060A071B0760F71F91D9
:101D60000F91FF90EF900895019759F0FC01EE0F4D
:101D7000FF1FEE0FFF1F32978FB7F8943197F1F7DF
:101D80008FBF0895789484B5826084BD84B58160E6
:101D900084BD85B5826085BD85B5816085BDEEE673
:101DA000F0E0808181608083E1E8F0E08081826002
:101DB0008083808181608083E0E8F0E080818160C1
:101DC0008083E1EBF0E0808184608083E0EBF0E0F1
:101DD000808181608083EAE7F0E080818460808395
:101DE000808182608083808181608083808180683F
:101DF00080831092C1000895282F30E0C901815BD3
:101E00009E4FFC019491255C3E4FF90184918823FB
:101E100091F0E82FF0E0EE0FFF1FE35EFE4FA5917B
:101E2000B491662329F48C91909589238C9308951D
:101E30008C91892B8C930895482F50E0CA018D59BD
:101E40009E4FFC012491CA01815B9E4FFC0194913D
:101E5000455C5E4FFA0134913323D1F1222331F1F5
:101E6000233021F4809180008F7705C0243031F435
:101E7000809180008F7D8093800018C0213019F4FC
:101E800084B58F7704C0223021F484B58F7D84BD62
:101E90000DC0263021F48091B0008F7705C0273027
:101EA00029F48091B0008F7D8093B000E32FF0E0A3
:101EB000EE0FFF1FE95DFE4FA591B491662329F453
:101EC0008C91909589238C9308958C91892B8C9378
:101ED0000895682F70E0CB018D599E4FFC0124912D
:101EE000CB01815B9E4FFC014491655C7E4FFB0101
:101EF0009491992319F420E030E038C0222331F185
:101F0000233021F4809180008F7705C0243031F494
:101F1000809180008F7D8093800018C0213019F45B
:101F200084B58F7704C0223021F484B58F7D84BDC1
:101F30000DC0263021F48091B0008F7705C0273086
:101F400029F48091B0008F7D8093B000892F90E0BC
:101F5000880F991F8F5C9E4FFC01A591B4918C91C5
:101F600020E030E0842311F021E030E0C901089541
:101F70005058BB27AA270ED075C166D130F06BD15F
:101F800020F031F49F3F11F41EF45BC10EF4E09594
:101F9000E7FB51C1E92F77D180F3BA1762077307C6
:101FA0008407950718F071F49EF58FC10EF4E09543
:101FB0000B2EBA2FA02D0B01B90190010C01CA0103
:101FC000A0011124FF27591B99F0593F50F4503EAE
:101FD00068F11A16F040A22F232F342F4427585FA0
:101FE000F3CF469537952795A795F0405395C9F7B8
:101FF0007EF41F16BA0B620B730B840BBAF0915070
:10200000A1F0FF0FBB1F661F771F881FC2F70EC00E
:10201000BA0F621F731F841F48F4879577956795E1
:10202000B795F7959E3F08F0B3CF9395880F08F0CA
:102030009927EE0F979587950895D9D008F481E0F8
:1020400008950CD00FC107D140F0FED030F021F43C
:102050005F3F19F0F0C0511139C1F3C014D198F3AA
:102060009923C9F35523B1F3951B550BBB27AA2719
:1020700062177307840738F09F5F5F4F220F331F8B
:10208000441FAA1FA9F333D00E2E3AF0E0E830D057
:1020900091505040E695001CCAF729D0FE2F27D05A
:1020A000660F771F881FBB1F261737074807AB0728
:1020B000B0E809F0BB0B802DBF01FF2793585F4F9D
:1020C0002AF09E3F510568F0B6C000C15F3FECF3B7
:1020D000983EDCF3869577956795B795F7959F5F62
:1020E000C9F7880F911D9695879597F90895E1E0B6
:1020F000660F771F881FBB1F621773078407BA0715
:1021000020F0621B730B840BBA0BEE1F88F7E0956F
:10211000089504D06894B111D9C00895BCD088F056
:102120009F5790F0B92F9927B751A0F0D1F0660FC3
:10213000771F881F991F1AF0BA95C9F712C0B130DE
:1021400081F0C3D0B1E00895C0C0672F782F8827F1
:10215000B85F39F0B93FCCF3869577956795B3951D
:10216000D9F73EF490958095709561957F4F8F4F8C
:102170009F4F0895E89409C097FB3EF49095809591
:10218000709561957F4F8F4F9F4F9923A9F0F92F3D
:1021900096E9BB279395F695879577956795B795BB
:1021A000F111F8CFFAF4BB0F11F460FF1BC06F5FA1
:1021B0007F4F8F4F9F4F16C0882311F096E911C0B3
:1021C000772321F09EE8872F762F05C0662371F0D4
:1021D00096E8862F70E060E02AF09A95660F771FE8
:1021E000881FDAF7880F9695879597F90895990FC4
:1021F0000008550FAA0BE0E8FEEF16161706E807D1
:10220000F907C0F012161306E407F50798F0621BF1
:10221000730B840B950B39F40A2661F0232B242BC6
:10222000252B21F408950A2609F4A140A6958FEFE5
:10223000811D811D089597F99F6780E870E060E037
:1022400008959FEF80EC089500240A94161617064F
:1022500018060906089500240A9412161306140697
:1022600005060895092E0394000C11F4882352F0FA
:10227000BB0F40F4BF2B11F460FF04C06F5F7F4FB2
:102280008F4F9F4F089557FD9058440F551F59F099
:102290005F3F71F04795880F97FB991F61F09F3F53
:1022A00079F087950895121613061406551FF2CF7C
:1022B0004695F1DF08C0161617061806991FF1CFCC
:1022C00086957105610508940895E894BB276627F3
:1022D0007727CB0197F908950BD0C4CFB5DF28F04D
:1022E000BADF18F0952309F0A6CFABCF1124EECFBB
:1022F000CADFA0F3959FD1F3950F50E0551F629F61
:10230000F001729FBB27F00DB11D639FAA27F00D4E
:10231000B11DAA1F649F6627B00DA11D661F829F75
:102320002227B00DA11D621F739FB00DA11D621F5A
:10233000839FA00D611D221F749F3327A00D611D77
:10234000231F849F600D211D822F762F6A2F112459
:102350009F5750408AF0E1F088234AF0EE0FFF1FAC
:10236000BB1F661F771F881F91505040A9F79E3FE3
:10237000510570F060CFAACF5F3FECF3983EDCF3DD
:10238000869577956795B795F795E7959F5FC1F720
:10239000FE2B880F911D9695879597F90895629F5A
:1023A000D001739FF001829FE00DF11D649FE00D4D
:1023B000F11D929FF00D839FF00D749FF00D659FAE
:1023C000F00D9927729FB00DE11DF91F639FB00DAD
:1023D000E11DF91FBD01CF011124089597FB092EBE
:1023E00007260AD077FD04D049D006D000201AF481
:1023F000709561957F4F0895F6F7909581959F4F61
:102400000895A1E21A2EAA1BBB1BFD010DC0AA1F35
:10241000BB1FEE1FFF1FA217B307E407F50720F04D
:10242000A21BB30BE40BF50B661F771F881F991FC8
:102430001A9469F760957095809590959B01AC0111
:10244000BD01CF01089597FB092E05260ED057FD3B
:1024500004D0D7DF0AD0001C38F450954095309551
:1024600021953F4F4F4F5F4F0895F6F79095809518
:10247000709561957F4F8F4F9F4F0895AA1BBB1B8F
:1024800051E107C0AA1FBB1FA617B70710F0A61B74
:10249000B70B881F991F5A95A9F780959095BC0195
:1024A000CD010895EE0FFF1F0590F491E02D0994E2
:0424B000F894FFCFCE
:1024B400456E74657220746865206C6F6767696E19
:1024C4006720696E74657276616C20696E206D692F
:1024D4006E75746573202D20787878202870616477
:1024E4002066726F6E742077697468207A65726FE3
:1024F400657329004C6F6767696E6720696E746540
:102504007276616C2073657420746F2000206D698D
:102514006E757465287329003A00456E74657220DF
:1025240074696D65202D2068686D6D0020006C6FE6
:102534006767696E6720737461727465642061747F
:102544003A200009696E74657276616C203D200042
:102554000964657669636520636F756E74203D2038
:10256400002D002C000900636F756E7409616464AA
:102574007265737300204800204C003D3E006D6579
:102584006D6F72792066756C6C2E2073746F707029
:10259400656420617420616464726573733A002C0D
:1025A4002000480043006C6F6767696E67206469A8
:1025B40073636F6E74696E756564002D2D2D2D2DFA
:1025C400456E746572207320746F20736574207473
:1025D400696D652C206D20746F2073657420696E9D
:1025E40074657276616C286D696E75746573292CD7
:1025F400206420746F20646973706C61792073792E
:102604007374656D20696E666F202874696D652C1E
:1026140020696E74657276616C2C2074656D7065CA
:1026240072617475726573202E2E2E2C002020206A
:1026340020207420746F20746573742C204C2074D3
:102644006F20626567696E206C6F6767696E672CBF
:10265400204F20746F206F75747075742045455039
:10266400524F4D00696E74657276616C20697320F7
:1026740073657420746F2000206D696E75746573C2
:102684000074727920616761696E006465766963BC
:102694006520636F756E7420697320002A2A2A2AC4
:1026A4002A2A2A2A2A2A2A2A2A2A2A2A2A2A002EAC
:1026B4000004001F1C1F1E1F1E1F1F1E1F1E1F05A0
:0A26C40037370500000000F40B009A
:00000001FF
