:100000000C94C0000C94E8000C94E8000C94E800F8
:100010000C94E8000C94E8000C94E8000C94E800C0
:100020000C94E8000C94E8000C94E8000C94E800B0
:100030000C94E8000C94E8000C94E8000C94E800A0
:100040000C94410F0C94E8000C943B0C0C94E800C9
:100050000C94E8000C94E8000C94E8000C94E80080
:100060000C94E8000C94E8004A616E7561727900A6
:100070004665627275617279004D61726368004114
:100080007072696C004D6179004A756E65004A7541
:100090006C79004175677573740053657074656D94
:1000A000626572004F63746F626572004E6F7665B1
:1000B0006D62657200446563656D6265720068001B
:1000C000700079007F00850089008E0093009A00FF
:1000D000A400AC00B50053756E646179004D6F6E7D
:1000E0006461790054756573646179005765646E65
:1000F0006573646179005468757273646179004650
:10010000726964617900536174757264617900D6B3
:1001100000DD00E400EC00F600FF00060100000036
:1001200000240027002A0000000000250028002BE2
:100130000000000000230026002900040404040439
:100140000404040202020202020303030303030184
:10015000020408102040800102040810200102045B
:100160000810200000000700020100000304060040
:100170000000000000000000E4016C0276053C0D68
:1001800011241FBECFEFD8E0DEBFCDBF13E0A0E04B
:10019000B1E0EEE1F7E202C005900D92A83BB10795
:1001A000D9F714E0A8EBB3E001C01D92AC3BB10756
:1001B000E1F711E0C0E8D1E004C02297FE010E94FF
:1001C0008913C837D107C9F70E94340C0C948D13DA
:1001D0000C940000FB01DC0105900D920020E1F77A
:1001E00008952F923F924F925F926F927F928F92DB
:1001F0009F92AF92BF92CF92DF92EF92FF920F93B6
:100200001F93DF93CF9300D000D0CDB7DEB7FB01B3
:100210003A0129011801FA82E982BC82AB825401B9
:10022000E080F18002811381C801B7012CE330E046
:1002300040E050E00E945813D3016C93C801B7010D
:100240002CE330E040E050E00E945813122F032FBF
:10025000F42EE52E622F732F842F952F2CE330E0A0
:1002600040E050E00E945813F2016083612F702F2C
:100270008F2D9E2D2CE330E040E050E00E9458137B
:10028000122F032FF42EE52E622F732F842F952F1C
:1002900028E130E040E050E00E945813D1016C9317
:1002A000612F702F8F2D9E2D28E130E040E050E02F
:1002B0000E94581379018A01C801B7016C5F7F4F12
:1002C0008F4F9F4F27E030E040E050E00E945813EE
:1002D000F6016083E6E420E030E040E050E001C059
:1002E000EF5F6E2F70E0637070706115710529F01B
:1002F0008DE691E0A0E0B0E004C08EE691E0A0E0E1
:10030000B0E0280F391F4A1F5B1FC901A0E0B0E011
:10031000E816F9060A071B071CF7D501EC936115CF
:10032000710529F48EE691E0A0E0B0E004C08DE60E
:1003300091E0A0E0B0E0281B390B4A0B5B0BD80121
:10034000C701821B930BA40BB50B9C01AD01E1EA25
:10035000F3E090E0913039F46115710511F08CE112
:1003600003C08DE101C08081E82EFF2400E010E091
:100370002E153F054007510744F02E193F09400B49
:10038000510B9F5F31969C3029F7AB81BC819C93C8
:10039000822F8F5FE981FA8180830F900F900F90F9
:1003A0000F90CF91DF911F910F91FF90EF90DF9011
:1003B000CF90BF90AF909F908F907F906F905F9005
:1003C0004F903F902F9008951092C1031092C00358
:1003D0000895CF93DF93EC0113C088819981AA819E
:1003E000BB810196A11DB11D88839983AA83BB831C
:1003F00028513C4F4F4F5F4F2C833D834E835F838B
:100400000E94B10F2C813D814E815F81621B730B75
:10041000840B950B685E734080409040F0F66881D5
:1004200079818A819B81DF91CF9108958F929F92EC
:10043000AF92BF92CF92DF92EF92FF920F931F93F2
:10044000CF93DF93EC0188859985892B11F480E0A7
:1004500020C0CE010E94E9019E01255F3F4F8E0121
:10046000065F1F4FFE013D96DE011E969FE0A92EFE
:10047000B12CAC0EBD1E80E1882E912C8C0E9D1EE1
:10048000CE01BE012C96AE017F016D010E94F100EC
:1004900081E0DF91CF911F910F91FF90EF90DF905E
:1004A000CF90BF90AF909F908F9008950F931F9320
:1004B0008C01FC0140835183628373830E94B10FDE
:1004C000F801648375838683978382E090E0918747
:1004D00080871F910F9108951092D20308950F9372
:1004E0001F93182F092FE62FF0E0EE0FFF1FE15F9B
:1004F000FE4F65917491812F0E94EA00812F902F09
:100500001F910F9108950F931F93182F092FE62F16
:10051000F0E0EE0FFF1FE254FF4F65917491902FB2
:100520000E94EA00812F902F1F910F910895F99951
:10053000FECF72BD61BDF89A80B50895F999FECFDE
:100540001FBA72BD61BD40BD0FB6F894FA9AF99A10
:100550000FBE0895DC011A966C931A97462F50E04F
:10056000CA01855C9E4FFC0124911B962C931B971E
:10057000415B5E4FFA0184911C968C931C9730E08E
:10058000220F331FF901E95DFE4F859194911E966C
:100590009C938E931D97F901EF5CFE4F859194918A
:1005A00050969C938E931F97F901E35EFE4F8591C1
:1005B000949152969C938E9351978FEF18968C93AB
:1005C000189719961C92199787E0FD01E80FF11D05
:1005D0001082882311F08150F8CF0895DC018FEF4D
:1005E00018968C93189719961C92199787E0FD011D
:1005F000E80FF11D1082882311F08150F8CF089583
:10060000FF920F931F938C01DC015196ED91FC91A9
:10061000529780811C969C911C97892B80831D96F4
:10062000ED91FC911E9790811C968C918095892369
:10063000808381E090E00E94E90FD8015196ED910E
:10064000FC91529790811C968C9180958923808390
:1006500085E090E00E94E90FD8011F96ED91FC9192
:1006600050972081FF2430E01C968C9190E0282345
:100670003923232B11F0FF24F39482E390E00E94AE
:10068000E90F8F2D1F910F91FF900895EF92FF9228
:100690000F931F93CF93DF937C0101E010E0C0E044
:1006A000D0E0C7010E9400038111102B000F21969A
:1006B000C830D105B1F7812FDF91CF911F910F91F4
:1006C000FF90EF900895EF92FF920F931F937C019C
:1006D000062FDC015196ED91FC91529780811C967A
:1006E0009C911C97892B80831D96ED91FC911E9700
:1006F00090811C968C91809589238083017010E0F5
:10070000F801E155FC4F808190E00E94E90FD7018C
:100710001D96ED91FC911E9780811C969C91892BD2
:10072000808303551C4FF801808190E00E94E90FFF
:100730001F910F91FF90EF900895CF92DF92EF926B
:10074000FF920F931F93CF93DF938C01E42EFF242E
:10075000F394C0E0D0E0C62EDD2460E08F2D90E061
:100760008C219D21892B09F061E0C8010E9463035F
:10077000FF0C2196C830D10581F7EE2051F4F80125
:10078000828560E00E943110F801828560E00E945D
:100790005110DF91CF911F910F91FF90EF90DF905B
:1007A000CF900895EF92FF920F931F93CF93DF9313
:1007B0008C017B0165E540E00E949D03C0E0D0E034
:1007C000F701EC0FFD1FC801608140E00E949D030E
:1007D0002196C830D105A1F7DF91CF911F910F91DC
:1007E000FF90EF9008951F93CF93DF93EC018A85DC
:1007F00060E00E9431101DE7115010F410E028C095
:1008000082E090E00E94E90F8A850E949E10892B69
:1008100099F38A8560E00E9451108A8561E00E9408
:10082000311084EF91E00E94E90F8A8560E00E9418
:10083000311081E490E00E94E90F8A850E949E10A9
:1008400010E0892B09F411E08AEE91E00E94E90F93
:10085000812FDF91CF911F9108958F929F92AF9238
:10086000BF92DF92EF92FF920F931F93CF93DF938C
:10087000EC015B018985882309F080C0CE010E94CC
:10088000F303882309F47AC0CE0160EF40E00E94B0
:100890009D03DD24DA94EE24E39400E010E021E0EF
:1008A000822E912CCE010E940003F82ECE010E94D0
:1008B0000003282F502F569556955695C8018770DE
:1008C0009070B40102C0660F771F8A95E2F7462F39
:1008D000FF2029F0222309F051C09F2D21C022239F
:1008E00039F58885992787FD90950817190711F420
:1008F000D8860EC0081719076CF4262F30E0FE01C9
:10090000E50FF11D808190E028233923232B19F076
:1009100091E003C0088790E0EE24D02E992341F0A7
:10092000FE01E50FF11D8081842B8083F92E07C025
:10093000FE01E50FF11D4095808148234083CE01E3
:100940006F2D0E9463030F5F1F4F0034110509F0E4
:10095000A9CFEE2011F081E0898720E030E0F50199
:10096000E20FF31FDE01A20FB31F8C9180832F5F74
:100970003F4F2830310599F781E001C080E0DF91D9
:10098000CF911F910F91FF90EF90DF90BF90AF90AC
:100990009F908F900895FC0160834183128213829F
:1009A000148215820895AF92BF92DF92EF92FF9268
:1009B0000F931F93CF93DF93EC01B62E8A819B8117
:1009C000AC81BD810097A105B10581F1EE80FF806A
:1009D0008DEF9FEFE80EF91E898160E00E945110B3
:1009E000C7010E94E90FDD24D39400E010E0AB2C96
:1009F000BB248D2D90E08A219B21892B19F08981C0
:100A000061E002C0898160E00E945110C7010E942C
:100A1000E90FDD0C0F5F1F4F0830110551F7898179
:100A200061E00E945110C7010E94E90FDF91CF9150
:100A30001F910F91FF90EF90DF90BF90AF900895BE
:100A40000F931F93CF93DF938C01EB0104C021968A
:100A5000C8010E94D30468816623C9F7DF91CF9152
:100A60001F910F9108950F931F938C019A01AB0171
:100A7000FC01228333834483558360E472E48FE076
:100A800090E00E945813F80137832683818161E04A
:100A90000E945110F801868197810E94E90F1F91F1
:100AA0000F9108959C0164E070E00E942313AB0154
:100AB000B901660F771F620F731F660F771F640FF0
:100AC000751F882777FD8095982F0E94F1116093FC
:100AD000E7037093E8038093E9039093EA0320E02F
:100AE00030E048EC52E40E945611089589ED93E0FD
:100AF00060E040919F030E94CB0480E094E06AE0B4
:100B00000E94AA0208958EE994E00E94E10C8823D5
:100B1000D1F38EE994E00E94F50C982F80538A302F
:100B200030F4292F332727FD309520533040C90159
:100B30000895AF92BF92CF92DF92EF92FF920F9300
:100B40001F935C016EE9C62E64E0D62EC60160E0FC
:100B500071E00E94BA0D0E9483059C018C0153E054
:100B6000000F111F5A95E1F7220F331F020F131FB9
:100B70000E948305080F191F780133E0EE0CFF1C5B
:100B80003A95E1F7000F111FE00EF11E0E94830558
:100B9000E80EF91EF501F182E082C6016BE371E017
:100BA0000E947B0DF50160817181C6010E94610E7A
:100BB000C6016FE471E00E94BA0D81E01F910F91B0
:100BC000FF90EF90DF90CF90BF90AF900895AF92DD
:100BD000BF92CF92DF92EF92FF920F931F935C012F
:100BE000BEE9CB2EB4E0DB2EC6016AE571E00E94BF
:100BF000BA0D0E9483059C018C01A3E0000F111F18
:100C0000AA95E1F7220F331F020F131F0E948305DD
:100C1000080F191F7801E3E0EE0CFF1CEA95E1F7DD
:100C2000000F111FE00EF11E0E948305E80EF91E51
:100C3000F501F182E082C6016EE971E00E947B0D50
:100C4000F50160817181C6010E94610EC6016FE4E9
:100C500071E00E94BA0D81E01F910F91FF90EF901B
:100C6000DF90CF90BF90AF9008951F93182F8EE91B
:100C700094E067EB71E00E947B0D1A3028F48EE956
:100C800094E060E30E94730D412F50E060E070E05B
:100C90008EE994E02AE030E00E94960E1F910895BC
:100CA000AF92BF92CF92DF92EF92FF920F931F937A
:100CB0008EE994E069EB71E00E94BA0D0E94830511
:100CC000AA2797FDA095BA2FBC01CD012AE030E0FC
:100CD00040E050E00E9404137B018C010E948305D8
:100CE000AA2797FDA095BA2FE80EF91E0A1F1B1F11
:100CF00088E1E816F1040105110508F053C00E94CF
:100D00008305AA2797FDA095BA2FBC01CD012AE043
:100D100030E040E050E00E9404135B016C010E944F
:100D20008305AA2797FDA095BA2FA80EB91ECA1E43
:100D3000DB1E9CE3A916B104C104D10498F58EE929
:100D400094E0B801A7010E94670E8A2D0E94350623
:100D50008EE994E00E94930DC801B70120E13EE0C6
:100D600040E050E00E9404137B018C0180E893E492
:100D7000ADE6B8E3E80EF91E0A1F1B1FC601B50158
:100D80002CE330E040E050E00E940413E60EF71E32
:100D9000081F191F88EB93E0B801A7010E945602B3
:100DA00081E001C080E01F910F91FF90EF90DF90F4
:100DB000CF90BF90AF900895CF93DF93C8EFD3E06B
:100DC000499150E060E070E08EE994E020E130E08D
:100DD0000E94960E84E0C030D80791F7DF91CF9142
:100DE0000895CF92DF92EF92FF920F931F9388EBBB
:100DF00093E00E9416020EE914E04091C20350E015
:100E000060E070E0C8012AE030E00E94960E809118
:100E1000C3030E9435068091C4030E9435069BECF3
:100E2000E92E91E0F92EC801B7010E947B0D89ECF3
:100E3000C82E83E0D82EC6016091C6030E946F02BF
:100E4000BC01C8010E947B0DC801B7010E947B0D47
:100E5000C6016091C7030E948302BC01C8010E94C1
:100E60007B0DC801B7010E947B0D4091C50350E086
:100E700060E070E0C8012AE030E00E94AB0E1F91F4
:100E80000F91FF90EF90DF90CF900895CF93DF9375
:100E9000C0E0D0E083ED93E0BE010E949702482FAE
:100EA00050E060E070E08EE994E020E030E00E94E5
:100EB000960E219682E0C030D80761F78EE994E063
:100EC0000E94930DDF91CF9108958EE994E00E94E6
:100ED000E10C8823D1F38EE994E00E94F50C813671
:100EE00039F40E9446078EE994E00E941D0DEDCF73
:100EF00008954F925F926F927F928F929F92AF92DE
:100F0000BF92CF92DF92EF92FF920F931F93CF93F6
:100F1000DF938EE994E06DEC71E00E947B0D83ED30
:100F200093E060E070E00E949702482F50E060E09C
:100F300070E08EE994E02AE030E00E94960E8EE99F
:100F400094E067EB71E00E947B0D83ED93E061E03C
:100F500070E00E949702482F50E060E070E08EE958
:100F600094E02AE030E00E94960E8EE994E062EE72
:100F700071E00E947B0D83ED93E062E070E00E94DF
:100F80009702482F50E060E070E08EE994E02AE09C
:100F900030E00E94960E8EE994E06FEE71E00E94C0
:100FA0007B0D83ED93E063E070E00E949702482F91
:100FB00050E060E070E08EE994E02AE030E00E94CA
:100FC000AB0E64E070E074C0B601A501440D551D80
:100FD000661D771D8EE994E02AE030E00E94960EAF
:100FE0008EE994E064E172E00E947B0D8E0183ED56
:100FF00093E0BE010E949702E82EFF24A701662716
:1010000057FD6095762F8EE994E020E130E00E9454
:10101000960E8EE994E06BEC71E00E947B0D2296B7
:101020000F5F1F4F83ED93E0B8010E949702082FD6
:1010300010E0A801662757FD6095762F8EE994E0B1
:1010400020E130E00E94960E8EE994E066E172E0C5
:101050000E947B0DFE2CEE24C701800F911F0E9481
:101060005205AB01BC018EE994E00E943D0F8EE970
:1010700094E068E172E00E947B0D0894811C911C51
:1010800082E090E0A0E0B0E0A80EB91ECA1EDB1E10
:101090008091D40390E0881699060CF495CF8EE9E0
:1010A00094E00E94930D91E0CF3FD9076CF4BE010C
:1010B000EB0188249924AA24BB2465012B01662412
:1010C00057FC6094762CE4CF8EE994E00E94930D57
:1010D000DF91CF911F910F91FF90EF90DF90CF9014
:1010E000BF90AF909F908F907F906F905F904F9048
:1010F00008951F938EE994E06AE172E00E94BA0DB0
:1011000010E017C01F5F412F50E060E070E08EE9F3
:1011100094E02AE030E00E94960E8EE994E068E1C7
:1011200072E00E947B0D0E94DC068EE994E00E9432
:10113000930D80E094E068EF73E00E942D04882313
:1011400009F7812F1F910895CF93DF93C4E0D0E07A
:1011500083ED93E0BE0140E00E949E02219682E072
:10116000C030D807A9F710921904DF91CF910895E4
:1011700088EB93E00E941602882379F083ED93E0D8
:1011800060E070E04091C2030E949E0283ED93E014
:1011900061E070E04091C3030CC083ED93E060E038
:1011A00070E04FEF0E949E0283ED93E061E070E0FB
:1011B0004FEF0E949E0283ED93E062E070E0409169
:1011C000D5030E949E0283ED93E063E070E04091BE
:1011D000D4030E949E0208954F925F926F927F9275
:1011E0008F929F92AF92BF92CF92DF92EF92FF9237
:1011F0000F931F93DF93CF93CDB7DEB7A7970FB6AB
:10120000F894DEBF0FBECDBF8E010B5E1F4FC8012D
:101210006AE00E94AA02C8010E94EE02AA246801A4
:101220004E010894811C911C59E0452E512C4C0E06
:101230005D1E42E1642E712C6C0E7D1ECCC0C60179
:10124000B4010E942D04C6010E94F303C601B4013B
:101250000E94D203C60164E441E00E949D0368EE4F
:1012600073E080E090E00E94BF0FC6010E94F3038C
:10127000C601B4010E94D203C6016EEB40E00E9499
:101280009D038201C6010E944603F80181938F01EC
:10129000E615F705B9F7B9844A856091170470918E
:1012A0001804F1E06F3F7F070CF07BC0EB2CFF24AC
:1012B000042F10E083ED93E00E949E0240911704FA
:1012C00050911804662757FD6095762F8EE994E0BB
:1012D0002AE030E00E94960E8EE994E068E272E027
:1012E0000E947B0DA801662757FD6095762F8EE939
:1012F00094E020E130E00E94960E60911704709116
:1013000018046F5F7F4F709318046093170483ED88
:1013100093E04B2D0E949E024091170450911804B7
:10132000662757FD6095762F8EE994E02AE030E03D
:101330000E94960E8EE994E06BE272E00E947B0DB3
:10134000A701662757FD6095762F8EE994E020E18E
:1013500030E00E94960E8EE994E06BEC71E00E9402
:101360007B0D8EE994E06EE272E00E947B0D102FFF
:1013700000270E0D1F1D8EE994E0B8010E948E0E0D
:101380008EE994E068E172E00E947B0D8091170481
:101390009091180401969093180480931704A394D5
:1013A0001AC081E0809319048EE994E061E372E051
:1013B0000E947B0D409117045091180441505040F9
:1013C000662757FD6095762F8EE994E02AE030E09D
:1013D0000E94AB0E05C08091D403A81608F42FCF4D
:1013E0008EE994E00E94930DA7960FB6F894DEBFA5
:1013F0000FBECDBFCF91DF911F910F91FF90EF9066
:10140000DF90CF90BF90AF909F908F907F906F9024
:101410005F904F900895FF920F931F93CF93DF93A8
:1014200080E094E00E94EE02FF24BBC080E094E0E4
:1014300068EF73E00E942D044F2D50E060E070E0F3
:101440008EE994E02AE030E00E94960E8EE994E066
:1014500064E172E00E947B0D0E94DC068EE994E05C
:1014600062E572E00E947B0D80E094E00E94F3034D
:1014700080E094E068EF73E00E94D20380E094E0A3
:1014800064E441E00E949D0368EE73E080E090E038
:101490000E94BF0F80E094E00E94F3038093EB036F
:1014A00080E094E068EF73E00E94D20380E094E073
:1014B0006EEB40E00E949D03CCEED3E080E094E030
:1014C0000E944603899383E0C53FD807B9F780910E
:1014D000EC0390E09093E4038093E3032091ED0309
:1014E0002093E1031092E203122F00E0800F911F7E
:1014F0009093E6038093E5038EE994E065E572E05E
:101500000E947B0D4091E1035091E203662757FD55
:101510006095762F8EE994E020E130E00E94960EEF
:101520008EE994E06BE272E00E947B0D4091E30350
:101530005091E403662757FD6095762F8EE994E07D
:1015400020E130E00E94960E8EE994E06EE272E0B7
:101550000E947B0D6091E5037091E6038EE994E0B3
:101560000E948E0E8EE994E06BEC71E00E947B0D80
:101570008091E5039091E6030E945205AB01BC0106
:101580008EE994E00E943D0F8EE994E067E572E0F9
:101590000E947B0D8EE994E068E172E00E947B0D71
:1015A000F3948091D403F81608F440CF8EE994E0C8
:1015B0000E94930DDF91CF911F910F91FF9008959D
:1015C000EF92FF920F931F930E94B10F7B018C014A
:1015D0008091130490911404A0911504B091160405
:1015E000E81AF90A0A0B1B0B6091D5037091D60318
:1015F00080E090E020E63AEE40E050E00E940413E4
:101600006E157F058007910710F080E00BC00E94E7
:10161000B10F609313047093140480931504909396
:10162000160481E01F910F91FF90EF900895809133
:101630009B0361E00E94511084E090E090931804B5
:10164000809317040E94B8080E94A4088EE994E0D1
:101650000E941D0D6091D7037091D80380E090E047
:1016600020E63AEE40E050E00E9404130E94BF0FD3
:101670000AC00E94E00A882311F00E94EC088091C1
:101680001904882331F48EE994E00E94E10C882348
:1016900081F38EE994E069E572E00E94BA0D8EE96B
:1016A00094E00E941D0D80919B0360E00E94511008
:1016B00008951F938EE994E06EE672E00E94BA0DE1
:1016C0008EE994E060EE72E00E94BA0D8EE994E03B
:1016D0000E94E10C8823D1F38EE994E00E94F50C7E
:1016E000182F8EE994E0612F0E94AA0D133719F488
:1016F0000E9450062FC0143639F50E94F1068EE97B
:1017000094E06DE273E00E947B0D6091D5037091CF
:10171000D6038EE994E00E94610E8EE994E061E4C4
:1017200073E00E947B0D6091D7037091D8038EE91E
:1017300094E00E94610E8EE994E06CE573E00E94F3
:10174000BA0D0E940B0A22C0143439F487ED93E0DD
:101750000E9499058823D9F019C01D3629F485ED1A
:1017600093E00E94E705F6CF1C3419F40E94170B92
:101770000DC01F3419F40E94790708C0143711F006
:1017800080E005C00E940B0A0E94EC0881E01F91D6
:1017900008950E94590B882381F48EE994E066E64F
:1017A00073E00E94BA0D8EE994E00E941D0D64E67C
:1017B00070E080E090E00E94BF0F08950F931F93A8
:1017C00080919F0361E00E94311009ED13E0C80190
:1017D00040E855E260E070E00E943305C80160E730
:1017E00073E00E9420051F910F9108950F931F939E
:1017F0000EE914E0C80140E855E260E070E00E94A4
:10180000780C0E94DE0B0E94650788EB93E040E8AD
:1018100053E46DE678E30E9456020E94F10680913F
:101820009B0361E00E94311080919D0361E00E9462
:1018300031100E9479088093D403C80165E773E0F2
:101840000E947B0D4091D40350E060E070E0C8013D
:101850002AE030E00E94AB0EC80166E873E00E9407
:10186000BA0D1F910F9108950E94F70F0E94F60B79
:101870000E94C90BFDCF1F920F920FB60F92112439
:101880002F933F934F935F936F937F938F939F9388
:10189000AF93BF93EF93FF934091C600E0919A04FA
:1018A000F0919B04CF01019660E870E00E94231341
:1018B0009C0180919C0490919D042817390739F070
:1018C000E65EFB4F408330939B0420939A04FF9184
:1018D000EF91BF91AF919F918F917F916F915F91A8
:1018E0004F913F912F910F900FBE0F901F90189521
:1018F000AF92BF92CF92DF92EF92FF920F931F931E
:10190000CF93DF936C017A018B01DC011496AD90CB
:10191000BC901597CB01BA0122E030E040E050E0E6
:101920000E945813205C3D4B404F5F4FCA01B901E4
:10193000A80197010E945813C901DA010197A10972
:10194000B109292F3A2F4B2F552747FD5A9501965C
:10195000A11DB11DE5012883E601EE81FF818150C3
:101960008083EA85FB85208141E050E0CA010E8436
:1019700002C0880F991F0A94E2F7282B2083EA857A
:10198000FB852081CA010F8402C0880F991F0A9429
:10199000E2F7282B2083EA85FB858081088802C036
:1019A000440F551F0A94E2F7842B8083DF91CF9177
:1019B0001F910F91FF90EF90DF90CF90BF90AF906D
:1019C0000895DC011296ED91FC911397E058FF4FBA
:1019D0008191919180589F4F20813181821B930B7F
:1019E00060E870E00E9423130895CF93DF93DC0139
:1019F0001296ED91FC911397EF01CE57DF4F48817E
:101A00005981E058FF4F80819181E058F040841760
:101A1000950719F42FEF3FEF0CC0E40FF51F20815D
:101A2000CA01019660E870E00E94231399838883BD
:101A300030E0C901DF91CF910895DC011296ED915C
:101A4000FC911397EE57FF4F80819181929382937F
:101A50000895FC01A085B18521898C9190E0022E2A
:101A600002C0959587950A94E2F780FFF6CF04842B
:101A7000F585E02D6083089585EB93E090939F04B6
:101A800080939E048AE194E09093A1048093A00443
:101A900085EC90E09093A3048093A20484EC90E002
:101AA0009093A5048093A40480EC90E09093A70405
:101AB0008093A60481EC90E09093A9048093A804FD
:101AC00086EC90E09093AB048093AA0484E080932A
:101AD000AC0483E08093AD0487E08093AE0485E09E
:101AE0008093AF040895DC01ED91FC910190F081A9
:101AF000E02D099508950F931F93CF93DF938C01E9
:101B0000EB0109C02196D801ED91FC910190F08183
:101B1000E02DC801099568816623A1F7DF91CF9177
:101B20001F910F9108950F931F938C01DC01ED918C
:101B3000FC910190F081E02D6DE00995D801ED91C7
:101B4000FC910190F081E02DC8016AE009951F9198
:101B50000F9108950F931F938C01DC01ED91FC917F
:101B60000190F081E02D0995C8010E94930D1F910D
:101B70000F9108950F931F938C010E947B0DC80154
:101B80000E94930D1F910F9108952F923F924F92B3
:101B90005F926F927F928F929F92AF92BF92CF92FD
:101BA000DF92EF92FF920F931F93DF93CF93CDB706
:101BB000DEB7A0970FB6F894DEBF0FBECDBF1C01F5
:101BC0006A017B01411551056105710549F4DC018C
:101BD000ED91FC910190F081E02D60E3099554C0F6
:101BE000882499245401422E55246624772401E048
:101BF00010E00C0F1D1F080D191DC701B601A30130
:101C000092010E943613F80160830894811C911C94
:101C1000A11CB11CC701B601A30192010E94361399
:101C2000C901DA016C017D01C114D104E104F104A0
:101C3000F1F681E0E82EF12CEC0EFD1EE80CF91C0B
:101C40003E010894611C711CD501C4010197A109D2
:101C5000B1096C01C818D90814C0F601EE0DFF1DBA
:101C600060816A3010F4605D01C0695CD101ED9162
:101C7000FC910190F081E02DC10109950894E108E3
:101C8000F1086E147F0449F7A0960FB6F894DEBFF2
:101C90000FBECDBFCF91DF911F910F91FF90EF90BD
:101CA000DF90CF90BF90AF909F908F907F906F907C
:101CB0005F904F903F902F9008952AE00E94C50DAD
:101CC0000895AB0160E070E00E945D0E0895EF9210
:101CD000FF920F931F93CF93DF93EC017A018B0157
:101CE00077FF0FC0E881F9810190F081E02D6DE26E
:101CF000099510950095F094E094E11CF11C011DEC
:101D0000111DCE01B801A7012AE00E94C50DDF9187
:101D1000CF911F910F91FF90EF900895AB0166272F
:101D200057FD6095762F0E94670E0895DC012115FE
:101D3000310541F4ED91FC910190F081E02D642F8B
:101D4000099508952A30310519F40E94670E089507
:101D50000E94C50D08950F931F938C010E94960E4B
:101D6000C8010E94930D1F910F9108959F92AF9209
:101D7000BF92CF92DF92EF92FF920F931F93CF9378
:101D8000DF93EC017A018B01922ECB01BA0120E0A6
:101D900030E040E050E00E945211882364F4E88172
:101DA000F9810190F081E02DCE016DE2099517FBDC
:101DB000109517F9109520E030E040E05FE3AA2489
:101DC0000BC0CA01B90120E030E040E251E40E94BA
:101DD00056119B01AC01A394A91498F3C801B70153
:101DE0000E94EE105B016C010E94C3117B018C010B
:101DF000CE01B801A7010E945D0E992029F0CE0105
:101E000069E973E00E947B0DC801B7010E94EF11E0
:101E10009B01AC01C601B5010E94ED1020C020E07D
:101E200030E040E251E40E94A1127B018C010E944B
:101E3000BE115B016C01CC24B7FCC094DC2CCE013C
:101E4000B601A5010E94670EC601B5010E94F111FD
:101E50009B01AC01C801B7010E94ED109A94992032
:101E6000F1F6DF91CF911F910F91FF90EF90DF90EE
:101E7000CF90BF90AF909F90089522E00E94B60E41
:101E800008951F920F920FB60F9211242F938F93E4
:101E90009F93AF93BF938091B0049091B104A091B0
:101EA000B204B091B3040196A11DB11D8093B0049A
:101EB0009093B104A093B204B093B3048091B4049E
:101EC0009091B504A091B604B091B7048050904CA5
:101ED000AF4FBF4F8093B4049093B504A093B60462
:101EE000B093B70427C08091B4049091B504A09139
:101EF000B604B091B70480589E43A040B040809390
:101F0000B4049093B504A093B604B093B704809141
:101F1000B8049091B904A091BA04B091BB040196A1
:101F2000A11DB11D8093B8049093B904A093BA0485
:101F3000B093BB048091B4049091B504A091B60411
:101F4000B091B70481589E43A040B04060F6BF9165
:101F5000AF919F918F912F910F900FBE0F901F9077
:101F600018958FB7F8942091B8043091B904409136
:101F7000BA045091BB048FBFB901CA010895EF9212
:101F8000FF920F931F937B018C018FB7F8944091C0
:101F9000B8045091B9046091BA047091BB048FBF2A
:101FA0002FB7F8948091B8049091B904A091BA0425
:101FB000B091BB042FBF841B950BA60BB70BE81683
:101FC000F9060A071B0760F71F910F91FF90EF902A
:101FD0000895019759F0FC01EE0FFF1FEE0FFF1F50
:101FE00032978FB7F8943197F1F78FBF08957894AF
:101FF00084B5826084BD84B5816084BD85B582600E
:1020000085BD85B5816085BDEEE6F0E080818160AB
:102010008083E1E8F0E0808182608083808181605C
:102020008083E0E8F0E0808181608083E1EBF0E094
:10203000808184608083E0EBF0E080818160808338
:10204000EAE7F0E080818460808380818260808321
:102050008081816080838081806880831092C1004C
:102060000895282F30E0C901815B9E4FFC019491B7
:10207000255C3E4FF9018491882391F0E82FF0E030
:10208000EE0FFF1FE35EFE4FA591B491662329F486
:102090008C91909589238C9308958C91892B8C93A6
:1020A0000895482F50E0CA018D599E4FFC0124919C
:1020B000CA01815B9E4FFC019491455C5E4FFA0121
:1020C00034913323D1F1222331F1233021F4809153
:1020D00080008F7705C0243031F4809180008F7D9F
:1020E0008093800018C0213019F484B58F7704C024
:1020F000223021F484B58F7D84BD0DC0263021F4BB
:102100008091B0008F7705C0273029F48091B0000E
:102110008F7D8093B000E32FF0E0EE0FFF1FE95DAD
:10212000FE4FA591B491662329F48C919095892353
:102130008C9308958C91892B8C930895682F70E06F
:10214000CB018D599E4FFC012491CB01815B9E4FA9
:10215000FC014491655C7E4FFB019491992319F435
:1021600020E030E038C0222331F1233021F4809187
:1021700080008F7705C0243031F4809180008F7DFE
:102180008093800018C0213019F484B58F7704C083
:10219000223021F484B58F7D84BD0DC0263021F41A
:1021A0008091B0008F7705C0273029F48091B0006E
:1021B0008F7D8093B000892F90E0880F991F8F5CEE
:1021C0009E4FFC01A591B4918C9120E030E08423D6
:1021D00011F021E030E0C90108955058BB27AA272B
:1021E0000ED075C166D130F06BD120F031F49F3F35
:1021F00011F41EF45BC10EF4E095E7FB51C1E92F29
:1022000077D180F3BA17620773078407950718F030
:1022100071F49EF58FC10EF4E0950B2EBA2FA02D10
:102220000B01B90190010C01CA01A0011124FF2783
:10223000591B99F0593F50F4503E68F11A16F0407E
:10224000A22F232F342F4427585FF3CF469537957D
:102250002795A795F0405395C9F77EF41F16BA0B42
:10226000620B730B840BBAF09150A1F0FF0FBB1FF0
:10227000661F771F881FC2F70EC0BA0F621F731F39
:10228000841F48F4879577956795B795F7959E3F96
:1022900008F0B3CF9395880F08F09927EE0F979524
:1022A00087950895D9D008F481E008950CD00FC126
:1022B00007D140F0FED030F021F45F3F19F0F0C0BC
:1022C000511139C1F3C014D198F39923C9F355239F
:1022D000B1F3951B550BBB27AA2762177307840719
:1022E00038F09F5F5F4F220F331F441FAA1FA9F3CF
:1022F00033D00E2E3AF0E0E830D091505040E695C1
:10230000001CCAF729D0FE2F27D0660F771F881F21
:10231000BB1F261737074807AB07B0E809F0BB0B10
:10232000802DBF01FF2793585F4F2AF09E3F510534
:1023300068F0B6C000C15F3FECF3983EDCF38695D1
:1023400077956795B795F7959F5FC9F7880F911DAA
:102350009695879597F90895E1E0660F771F881F96
:10236000BB1F621773078407BA0720F0621B730B49
:10237000840BBA0BEE1F88F7E095089504D068949B
:10238000B111D9C00895BCD088F09F5790F0B92FF3
:102390009927B751A0F0D1F0660F771F881F991FBA
:1023A0001AF0BA95C9F712C0B13081F0C3D0B1E0CC
:1023B0000895C0C0672F782F8827B85F39F0B93FDC
:1023C000CCF3869577956795B395D9F73EF49095BC
:1023D0008095709561957F4F8F4F9F4F0895E8943A
:1023E00009C097FB3EF490958095709561957F4F5D
:1023F0008F4F9F4F9923A9F0F92F96E9BB2793950B
:10240000F695879577956795B795F111F8CFFAF41A
:10241000BB0F11F460FF1BC06F5F7F4F8F4F9F4F4B
:1024200016C0882311F096E911C0772321F09EE8A9
:10243000872F762F05C0662371F096E8862F70E00F
:1024400060E02AF09A95660F771F881FDAF7880FE9
:102450009695879597F90895990F0008550FAA0B3F
:10246000E0E8FEEF16161706E807F907C0F01216A7
:102470001306E407F50798F0621B730B840B950BAA
:1024800039F40A2661F0232B242B252B21F40895FF
:102490000A2609F4A140A6958FEF811D811D08959C
:1024A00097F99F6780E870E060E008959FEF80EC07
:1024B000089500240A9416161706180609060895AA
:1024C00000240A9412161306140605060895092E10
:1024D0000394000C11F4882352F0BB0F40F4BF2B7F
:1024E00011F460FF04C06F5F7F4F8F4F9F4F0895BF
:1024F00057FD9058440F551F59F05F3F71F04795B5
:10250000880F97FB991F61F09F3F79F08795089599
:10251000121613061406551FF2CF4695F1DF08C0B8
:10252000161617061806991FF1CF869571056105D5
:1025300008940895E894BB2766277727CB0197F97D
:1025400008950BD0C4CFB5DF28F0BADF18F095237B
:1025500009F0A6CFABCF1124EECFCADFA0F3959F31
:10256000D1F3950F50E0551F629FF001729FBB277A
:10257000F00DB11D639FAA27F00DB11DAA1F649F26
:102580006627B00DA11D661F829F2227B00DA11DD9
:10259000621F739FB00DA11D621F839FA00D611D5F
:1025A000221F749F3327A00D611D231F849F600D80
:1025B000211D822F762F6A2F11249F5750408AF0B9
:1025C000E1F088234AF0EE0FFF1FBB1F661F771F45
:1025D000881F91505040A9F79E3F510570F060CF81
:1025E000AACF5F3FECF3983EDCF38695779567952D
:1025F000B795F795E7959F5FC1F7FE2B880F911D63
:102600009695879597F90895629FD001739FF00181
:10261000829FE00DF11D649FE00DF11D929FF00D72
:10262000839FF00D749FF00D659FF00D9927729FA9
:10263000B00DE11DF91F639FB00DE11DF91FBD0134
:10264000CF011124089597FB092E07260AD077FDA4
:1026500004D049D006D000201AF4709561957F4FC0
:102660000895F6F7909581959F4F0895A1E21A2E4F
:10267000AA1BBB1BFD010DC0AA1FBB1FEE1FFF1F26
:10268000A217B307E407F50720F0A21BB30BE40B76
:10269000F50B661F771F881F991F1A9469F76095BD
:1026A0007095809590959B01AC01BD01CF01089577
:1026B00097FB092E05260ED057FD04D0D7DF0AD090
:1026C000001C38F450954095309521953F4F4F4F61
:1026D0005F4F0895F6F790958095709561957F4FBF
:1026E0008F4F9F4F0895AA1BBB1B51E107C0AA1F24
:1026F000BB1FA617B70710F0A61BB70B881F991FA3
:102700005A95A9F780959095BC01CD010895EE0FDB
:0E271000FF1F0590F491E02D0994F894FFCF7F
:10271E00456E7465722073746172742064656C61A9
:10272E007920696E206D696E75746573202D207821
:10273E00787820287061642066726F6E74207769D5
:10274E007468207A65726F65732900737461727490
:10275E002064656C61792073657420746F2000208D
:10276E006D696E75746528732900456E74657220E7
:10277E00746865206C6F6767696E6720696E746533
:10278E007276616C20696E206D696E75746573204A
:10279E002D2078787820287061642066726F6E74B0
:1027AE002077697468207A65726F657329004C6FA3
:1027BE006767696E6720696E74657276616C2073E7
:1027CE00657420746F20003A00456E746572207433
:1027DE00696D65202D2068686D6D0020006C6F6737
:1027EE0067696E6720737461727465642061743AF0
:1027FE00200009696E74657276616C203D200009B7
:10280E0064657669636520636F756E74202845452F
:10281E0070726F6D20706F736974696F6E203329DB
:10282E00203D20002D002C000900636F756E740989
:10283E006164647265737300204800204C003D3E55
:10284E00006D656D6F72792066756C6C2E207374D9
:10285E006F70706564206174206164647265737357
:10286E003A002C2000480043006C6F6767696E6762
:10287E0020646973636F6E74696E756564002D2DC7
:10288E002D2D2D456E746572207320746F20736527
:10289E00742074696D652C206D20746F20736574BF
:1028AE0020696E74657276616C286D696E757465DB
:1028BE0073292C206420746F20646973706C6179A5
:1028CE002073797374656D20696E666F2028746944
:1028DE006D652C20696E74657276616C2C20746542
:1028EE006D706572617475726573202E2E2E2C00BC
:1028FE0020202020204420746F2073657420737470
:10290E006172742064656C61792C207420746F2060
:10291E00746573742C204C20746F20626567696E29
:10292E00206C6F6767696E672C204F20746F206F65
:10293E00757470757420454550524F4D00696E7414
:10294E00657276616C2069732073657420746F20D4
:10295E0000206D696E757465732E2020537461723C
:10296E00742064656C61792069732000206D696E36
:10297E00757465732E0074727920616761696E00DB
:10298E00746573740064657669636520636F756E34
:10299E007420697320002A2A2A2A2A2A2A2A2A2AF5
:1029AE002A2A2A2A2A2A2A2A002E000D000B000281
:1029BE00001F1C1F1E1F1E1F1F1E1F1E1F05373729
:0829CE000500000000290D00C6
:00000001FF
