:100000000C9463000C948B000C948B000C948B006C
:100010000C948B000C948B000C948B000C948B0034
:100020000C948B000C948B000C948B000C948B0024
:100030000C948B000C948B000C948B000C948B0014
:100040000C94BD060C948B000C943B040C948B0018
:100050000C948B000C948B000C948B000C948B00F4
:100060000C948B000C948B000000000024002700EF
:100070002A0000000000250028002B0000000000DE
:1000800023002600290004040404040404040202DA
:100090000202020203030303030301020408102007
:1000A0004080010204081020010204081020000012
:1000B0000007000201000003040600000000000029
:1000C0000000C502F40411241FBECFEFD8E0DEBF4C
:1000D000CDBF11E0A0E0B1E0ECEBF5E102C005908E
:1000E0000D92A437B107D9F712E0A4E7B1E001C03F
:1000F0001D92A932B107E1F710E0C6ECD0E004C0D0
:100100002297FE010E94D80AC23CD107C9F70E947B
:1001100034040C94DC0A0C940000DC011A966C93F5
:100120001A97462F50E0CA018A579F4FFC0124912D
:100130001B962C931B9746565F4FFA0184911C9691
:100140008C931C9730E0220F331FF901EE58FF4FBC
:10015000859194911E969C938E931D97F901E45876
:10016000FF4F8591949150969C938E931F97F90120
:10017000E859FF4F8591949152969C938E93519795
:100180008FEF18968C93189719961C92199787E001
:10019000FD01E80FF11D1082882311F08150F8CF86
:1001A0000895DC018FEF18968C93189719961C927E
:1001B000199787E0FD01E80FF11D1082882311F0E7
:1001C0008150F8CF0895FC0140E030E05CE80EC0BB
:1001D000208190E0822F8327369580FD35279F5F11
:1001E000983011F02695F6CF4F5F3196461780F381
:1001F000832F0895FF920F931F938C01DC0151967A
:10020000ED91FC91529780811C969C911C97892BB3
:1002100080831D96ED91FC911E9790811C968C9188
:1002200080958923808381E090E00E945707D80160
:100230005196ED91FC91529790811C968C918095EE
:100240008923808385E090E00E945707D8011F969C
:10025000ED91FC9150972081FF2430E01C968C9109
:1002600090E028233923232B11F0FF24F39482E319
:1002700090E00E9457078F2D1F910F91FF900895D6
:10028000EF92FF920F931F93CF93DF937C0101E0D6
:1002900010E0C0E0D0E0C7010E94FA008111102BED
:1002A000000F2196C830D105B1F7812FDF91CF9192
:1002B0001F910F91FF90EF900895EF92FF920F938F
:1002C0001F937C01062FDC015196ED91FC91529712
:1002D00080811C969C911C97892B80831D96ED91A3
:1002E000FC911E9790811C968C9180958923808328
:1002F000017010E0F801E459FE4F808190E00E9407
:100300005707D7011D96ED91FC911E9780811C9691
:100310009C91892B808306591E4FF801808190E0C3
:100320000E9457071F910F91FF90EF900895CF9271
:10033000DF92EF92FF920F931F93CF93DF938C0185
:10034000E42EFF24F394C0E0D0E0C62EDD2460E06C
:100350008F2D90E08C219D21892B09F061E0C8014F
:100360000E945D01FF0C2196C830D10581F7EE2077
:1003700051F4F801828560E00E949F07F8018285B0
:1003800060E00E94BF07DF91CF911F910F91FF9016
:10039000EF90DF90CF900895EF92FF920F931F930D
:1003A000CF93DF938C017B0165E540E00E949701CC
:1003B000C0E0D0E0F701EC0FFD1FC801608140E014
:1003C0000E9497012196C830D105A1F7DF91CF9106
:1003D0001F910F91FF90EF9008951F93CF93DF939C
:1003E000EC018A8560E00E949F071DE7115010F420
:1003F00010E028C082E090E00E9457078A850E94A2
:100400000C08892B99F38A8560E00E94BF078A85D2
:1004100061E00E949F0784EF91E00E9457078A8560
:1004200060E00E949F0781E490E00E9457078A8560
:100430000E940C0810E0892B09F411E08AEE91E08B
:100440000E945707812FDF91CF911F9108958F92BE
:100450009F92AF92BF92DF92EF92FF920F931F9302
:10046000CF93DF93EC015B018985882309F080C07D
:10047000CE010E94ED01882309F47AC0CE0160EF1D
:1004800040E00E949701DD24DA94EE24E39400E03A
:1004900010E021E0822E912CCE010E94FA00F82E6D
:1004A000CE010E94FA00282F502F5695569556954A
:1004B000C80187709070B40102C0660F771F8A95DB
:1004C000E2F7462FFF2029F0222309F051C09F2D8B
:1004D00021C0222339F58885992787FD9095081733
:1004E000190711F4D8860EC0081719076CF4262FC7
:1004F00030E0FE01E50FF11D808190E028233923D3
:10050000232B19F091E003C0088790E0EE24D02E51
:10051000992341F0FE01E50FF11D8081842B80833A
:10052000F92E07C0FE01E50FF11D4095808148239B
:100530004083CE016F2D0E945D010F5F1F4F00347D
:10054000110509F0A9CFEE2011F081E0898720E0A4
:1005500030E0F501E20FF31FDE01A20FB31F8C9113
:1005600080832F5F3F4F2830310599F781E001C02C
:1005700080E0DF91CF911F910F91FF90EF90DF907E
:10058000BF90AF909F908F90089584E791E06AE0CC
:100590000E948D000895CF92DF92EF92FF920F9309
:1005A0001F93DF93CF93CDB7DEB764970FB6F89460
:1005B000DEBF0FBECDBF84E791E08E010F5F1F4FFE
:1005C000B8010E942702882359F48BE092E060E092
:1005D00071E00E942B0584E791E00E94D1002CC1BC
:1005E0008BE092E064E171E00E942B0568018E01CE
:1005F000075F1F4FF60141916F0150E060E070E02E
:100600008BE092E020E130E00E941D068BE092E05A
:1006100067E171E00E942B05C016D10659F78E01E3
:100620000F5F1F4FC80167E00E94E300988589179C
:1006300029F08BE092E069E171E007C0898188329E
:1006400039F08BE092E06CE271E00E942B05F4C07F
:1006500084E791E00E94ED0184E791E0B8010E94F7
:10066000CC0184E791E064E441E00E94970168EEE8
:1006700073E080E090E00E942D0784E791E00E9403
:10068000ED01E82E84E791E0B8010E94CC0184E7F7
:1006900091E06EEB40E00E9497018BE092E064E510
:1006A00071E00E942B05FF2400E010E08BE092E057
:1006B000B801A70120E130E00E941D068BE092E026
:1006C00067E171E00E942B058601C601DC2CC92E72
:1006D00032E1E32EF12CEC0EFD1E84E791E00E9446
:1006E0004001482FF80181938F0150E060E070E0F5
:1006F0008BE092E020E130E00E941D068BE092E06A
:1007000067E171E00E942B050E151F0531F78BE0A4
:1007100092E067E571E00E942B058D2D9C2D68E02D
:100720000E94E300482F50E060E070E08BE092E030
:1007300020E130E00E941D068BE092E00E9443051C
:100740009A8580E02985FC01E20FF11DC12C20E88B
:10075000D22ECE22DF22C114D10419F0F095E195FA
:10076000FF4FCF0164E070E00E94720A9B01BF015D
:10077000660F771F6E0F7F1F660F771F620F731F45
:10078000882777FD8095982F0E945F097B018C0157
:10079000CD2831F08BE092E06DE571E00E942B05F1
:1007A0008BE092E06FE571E00E942B05C801B70174
:1007B00020E030E048EC52E40E94C408AB01BC01E8
:1007C0008BE092E00E94B9068BE092E062E671E075
:1007D0000E942B05C801B70120E030E040E850E45A
:1007E0000E940F0A20E030E040EA50E40E94C40872
:1007F0009B01AC01C801B7010E945C0820E030E019
:1008000048E455E40E945C0820E030E048EC52E403
:100810000E94C408AB01BC018BE092E00E94B906C3
:100820008BE092E066E671E00E942B0560ED77E0D8
:1008300080E090E00E942D0764960FB6F894DEBF2A
:100840000FBECDBFCF91DF911F910F91FF90EF9021
:10085000DF90CF9008958BE092E040E855E260E0B1
:1008600070E00E94780408950E9465070E942B049E
:100870000E94CB02FDCF1F920F920FB60F92112450
:100880002F933F934F935F936F937F938F939F9398
:10089000AF93BF93EF93FF934091C600E09107029F
:1008A000F0910802CF01019660E870E00E94720AA0
:1008B0009C018091090290910A022817390739F0AA
:1008C000E957FE4F40833093080220930702FF91BF
:1008D000EF91BF91AF919F918F917F916F915F91B8
:1008E0004F913F912F910F900FBE0F901F90189531
:1008F000AF92BF92CF92DF92EF92FF920F931F932E
:10090000CF93DF936C017A018B01DC011496AD90DB
:10091000BC901597CB01BA0122E030E040E050E0F6
:100920000E94A70A205C3D4B404F5F4FCA01B901AE
:10093000A80197010E94A70AC901DA010197A1093C
:10094000B109292F3A2F4B2F552747FD5A9501966C
:10095000A11DB11DE5012883E601EE81FF818150D3
:100960008083EA85FB85208141E050E0CA010E8446
:1009700002C0880F991F0A94E2F7282B2083EA858A
:10098000FB852081CA010F8402C0880F991F0A9439
:10099000E2F7282B2083EA85FB858081088802C046
:1009A000440F551F0A94E2F7842B8083DF91CF9187
:1009B0001F910F91FF90EF90DF90CF90BF90AF907D
:1009C0000895FC01A085B18521898C9190E0022ECB
:1009D00002C0959587950A94E2F780FFF6CF0484CC
:1009E000F585E02D6083089582E791E090930C02F5
:1009F00080930B0287E891E090930E0280930D02A2
:100A000085EC90E09093100280930F0284EC90E0CC
:100A1000909312028093110280EC90E09093140264
:100A20008093130281EC90E090931602809315025C
:100A300086EC90E0909318028093170284E08093F4
:100A4000190283E080931A0287E080931B0285E0FD
:100A500080931C0208950F931F93CF93DF938C0113
:100A6000EB0109C02196D801ED91FC910190F08134
:100A7000E02DC801099568816623A1F7DF91CF9128
:100A80001F910F9108950F931F938C01DC01ED913D
:100A9000FC910190F081E02D6DE00995D801ED9178
:100AA000FC910190F081E02DC8016AE009951F9149
:100AB0000F9108952F923F924F925F926F927F9283
:100AC0008F929F92AF92BF92CF92DF92EF92FF925E
:100AD0000F931F93DF93CF93CDB7DEB7A0970FB6D9
:100AE000F894DEBF0FBECDBF1C016A017B0141152A
:100AF00051056105710549F4DC01ED91FC9101900E
:100B0000F081E02D60E3099554C0882499245401B4
:100B1000422E55246624772401E010E00C0F1D1F9F
:100B2000080D191DC701B601A30192010E94850A93
:100B3000F80160830894811C911CA11CB11CC701A1
:100B4000B601A30192010E94850AC901DA016C0174
:100B50007D01C114D104E104F104F1F681E0E82E35
:100B6000F12CEC0EFD1EE80CF91C3E010894611CF2
:100B7000711CD501C4010197A109B1096C01C81804
:100B8000D90814C0F601EE0DFF1D60816A3010F423
:100B9000605D01C0695CD101ED91FC910190F08133
:100BA000E02DC10109950894E108F1086E147F0455
:100BB00049F7A0960FB6F894DEBF0FBECDBFCF9118
:100BC000DF911F910F91FF90EF90DF90CF90BF903A
:100BD000AF909F908F907F906F905F904F903F90DD
:100BE0002F9008952AE00E945A050895EF92FF92EF
:100BF0000F931F93CF93DF93EC017A018B0177FF63
:100C00000FC0E881F9810190F081E02D6DE2099536
:100C100010950095F094E094E11CF11C011D111D4C
:100C2000CE01B801A7012AE00E945A05DF91CF91B9
:100C30001F910F91FF90EF900895DC012115310570
:100C400041F4ED91FC910190F081E02D642F099524
:100C500008952A30310519F40E94F60508950E947E
:100C60005A0508959F92AF92BF92CF92DF92EF9272
:100C7000FF920F931F93CF93DF93EC017A018B01C7
:100C8000922ECB01BA0120E030E040E050E00E941B
:100C9000C008882364F4E881F9810190F081E02D97
:100CA000CE016DE2099517FB109517F9109520E01C
:100CB00030E040E05FE3AA240BC0CA01B90120E0A4
:100CC00030E040E251E40E94C4089B01AC01A394CF
:100CD000A91498F3C801B7010E945C085B016C017C
:100CE0000E9431097B018C01CE01B801A7010E944D
:100CF000F205992029F0CE0168E671E00E942B05EB
:100D0000C801B7010E945D099B01AC01C601B50194
:100D10000E945B0820C020E030E040E251E40E94E5
:100D20000F0A7B018C010E942C095B016C01CC2411
:100D3000B7FCC094DC2CCE01B601A5010E94F605DB
:100D4000C601B5010E945F099B01AC01C801B70152
:100D50000E945B089A949920F1F6DF91CF911F9140
:100D60000F91FF90EF90DF90CF90BF90AF909F904A
:100D7000089522E00E94320608951F920F920FB646
:100D80000F9211242F938F939F93AF93BF938091D2
:100D90001D0290911E02A0911F02B09120020196A7
:100DA000A11DB11D80931D0290931E02A0931F02EE
:100DB000B09320028091210290912202A0912302FF
:100DC000B09124028050904CAF4FBF4F80932102CE
:100DD00090932202A0932302B093240227C0809113
:100DE000210290912202A0912302B0912402805806
:100DF0009E43A040B0408093210290932202A09392
:100E00002302B09324028091250290912602A091A2
:100E10002702B09128020196A11DB11D80932502E1
:100E200090932602A0932702B0932802809121027A
:100E300090912202A0912302B091240281589E43F6
:100E4000A040B04060F6BF91AF919F918F912F91DC
:100E50000F900FBE0F901F901895EF92FF920F9377
:100E60001F937B018C018FB7F8944091250250911C
:100E7000260260912702709128028FBF2FB7F89445
:100E80008091250290912602A0912702B09128021C
:100E90002FBF841B950BA60BB70BE816F9060A07A4
:100EA0001B0760F71F910F91FF90EF900895019736
:100EB00059F0FC01EE0FFF1FEE0FFF1F32978FB7A7
:100EC000F8943197F1F78FBF0895789484B58260D4
:100ED00084BD84B5816084BD85B5826085BD85B5DE
:100EE000816085BDEEE6F0E0808181608083E1E88D
:100EF000F0E0808182608083808181608083E0E88F
:100F0000F0E0808181608083E1EBF0E080818460AB
:100F10008083E0EBF0E0808181608083EAE7F0E0AD
:100F20008081846080838081826080838081816011
:100F300080838081806880831092C1000895282F6B
:100F400030E0C90186569F4FFC0194912A573F4FCC
:100F5000F9018491882391F0E82FF0E0EE0FFF1F54
:100F6000E859FF4FA591B491662329F48C9190958F
:100F700089238C9308958C91892B8C930895482F05
:100F800050E0CA0182559F4FFC012491CA01865648
:100F90009F4FFC0194914A575F4FFA0134913323DC
:100FA000D1F1222331F1233021F4809180008F7719
:100FB00005C0243031F4809180008F7D80938000C3
:100FC00018C0213019F484B58F7704C0223021F481
:100FD00084B58F7D84BD0DC0263021F48091B00092
:100FE0008F7705C0273029F48091B0008F7D8093E2
:100FF000B000E32FF0E0EE0FFF1FEE58FF4FA5917A
:10100000B491662329F48C91909589238C9308954B
:101010008C91892B8C930895682F70E0CB018255B9
:101020009F4FFC012491CB0186569F4FFC014491B8
:101030006A577F4FFB019491992319F420E030E027
:1010400038C0222331F1233021F4809180008F7742
:1010500005C0243031F4809180008F7D8093800022
:1010600018C0213019F484B58F7704C0223021F4E0
:1010700084B58F7D84BD0DC0263021F48091B000F1
:101080008F7705C0273029F48091B0008F7D809341
:10109000B000892F90E0880F991F84589F4FFC0162
:1010A000A591B4918C9120E030E0842311F021E0EF
:1010B00030E0C90108955058BB27AA270ED075C14A
:1010C00066D130F06BD120F031F49F3F11F41EF463
:1010D0005BC10EF4E095E7FB51C1E92F77D180F3B6
:1010E000BA17620773078407950718F071F49EF525
:1010F0008FC10EF4E0950B2EBA2FA02D0B01B90174
:1011000090010C01CA01A0011124FF27591B99F07D
:10111000593F50F4503E68F11A16F040A22F232F89
:10112000342F4427585FF3CF469537952795A795D9
:10113000F0405395C9F77EF41F16BA0B620B730B80
:10114000840BBAF09150A1F0FF0FBB1F661F771FF1
:10115000881FC2F70EC0BA0F621F731F841F48F4A6
:10116000879577956795B795F7959E3F08F0B3CF2C
:101170009395880F08F09927EE0F97958795089516
:10118000D9D008F481E008950CD00FC107D140F008
:10119000FED030F021F45F3F19F0F0C0511139C199
:1011A000F3C014D198F39923C9F35523B1F3951BD8
:1011B000550BBB27AA2762177307840738F09F5F78
:1011C0005F4F220F331F441FAA1FA9F333D00E2EE7
:1011D0003AF0E0E830D091505040E695001CCAF754
:1011E00029D0FE2F27D0660F771F881FBB1F261719
:1011F00037074807AB07B0E809F0BB0B802DBF01EC
:10120000FF2793585F4F2AF09E3F510568F0B6C004
:1012100000C15F3FECF3983EDCF3869577956795C8
:10122000B795F7959F5FC9F7880F911D969587959C
:1012300097F90895E1E0660F771F881FBB1F6217BB
:1012400073078407BA0720F0621B730B840BBA0B79
:10125000EE1F88F7E095089504D06894B111D9C0C5
:101260000895BCD088F09F5790F0B92F9927B751B7
:10127000A0F0D1F0660F771F881F991F1AF0BA955A
:10128000C9F712C0B13081F0C3D0B1E00895C0C039
:10129000672F782F8827B85F39F0B93FCCF3869550
:1012A00077956795B395D9F73EF4909580957095AD
:1012B00061957F4F8F4F9F4F0895E89409C097FB2A
:1012C0003EF490958095709561957F4F8F4F9F4F1D
:1012D0009923A9F0F92F96E9BB279395F695879561
:1012E00077956795B795F111F8CFFAF4BB0F11F424
:1012F00060FF1BC06F5F7F4F8F4F9F4F16C08823CB
:1013000011F096E911C0772321F09EE8872F762F00
:1013100005C0662371F096E8862F70E060E02AF041
:101320009A95660F771F881FDAF7880F969587952D
:1013300097F90895990F0008550FAA0BE0E8FEEF02
:1013400016161706E807F907C0F012161306E40789
:10135000F50798F0621B730B840B950B39F40A2682
:1013600061F0232B242B252B21F408950A2609F460
:10137000A140A6958FEF811D811D089597F99F6764
:1013800080E870E060E008959FEF80EC089500240D
:101390000A941616170618060906089500240A94DA
:1013A00012161306140605060895092E0394000C60
:1013B00011F4882352F0BB0F40F4BF2B11F460FFEF
:1013C00004C06F5F7F4F8F4F9F4F089557FD905818
:1013D000440F551F59F05F3F71F04795880F97FBF9
:1013E000991F61F09F3F79F08795089512161306B3
:1013F0001406551FF2CF4695F1DF08C016161706E2
:101400001806991FF1CF8695710561050894089516
:10141000E894BB2766277727CB0197F908950BD06F
:10142000C4CFB5DF28F0BADF18F0952309F0A6CFB6
:10143000ABCF1124EECFCADFA0F3959FD1F3950F68
:1014400050E0551F629FF001729FBB27F00DB11D48
:10145000639FAA27F00DB11DAA1F649F6627B00DD8
:10146000A11D661F829F2227B00DA11D621F739FC1
:10147000B00DA11D621F839FA00D611D221F749FCF
:101480003327A00D611D231F849F600D211D822F16
:10149000762F6A2F11249F5750408AF0E1F088235D
:1014A0004AF0EE0FFF1FBB1F661F771F881F91506A
:1014B0005040A9F79E3F510570F060CFAACF5F3F23
:1014C000ECF3983EDCF3869577956795B795F7959D
:1014D000E7959F5FC1F7FE2B880F911D9695879525
:1014E00097F9089597FB092E07260AD077FD04D0B7
:1014F00049D006D000201AF4709561957F4F089569
:10150000F6F7909581959F4F0895A1E21A2EAA1B98
:10151000BB1BFD010DC0AA1FBB1FEE1FFF1FA217A3
:10152000B307E407F50720F0A21BB30BE40BF50BA0
:10153000661F771F881F991F1A9469F76095709529
:10154000809590959B01AC01BD01CF01089597FB5B
:10155000092E05260ED057FD04D0D7DF0AD0001C77
:1015600038F450954095309521953F4F4F4F5F4F40
:101570000895F6F790958095709561957F4F8F4F00
:101580009F4F0895AA1BBB1B51E107C0AA1FBB1F99
:10159000A617B70710F0A61BB70B881F991F5A95FF
:1015A000A9F780959095BC01CD010895EE0FFF1F1E
:0C15B0000590F491E02D0994F894FFCF11
:1015BC004E6F206D6F726520616464726573736524
:1015CC00732E0A00523D00200043524320697320C1
:1015DC006E6F742076616C6964210A0044657669CB
:1015EC006365206973206E6F742061204453313819
:1015FC005332302066616D696C792064657669635D
:10160C00652E0A00503D00204352433D002D0043FF
:10161C003D0020463D000A002E000537370500002E
:04162C000000E104D5
:00000001FF
