:100000000C9465000C948D000C948D000C948D0064
:100010000C948D000C948D000C948D000C948D002C
:100020000C948D000C948D000C948D000C948D001C
:100030000C948D000C948D000C948D000C948D000C
:100040000C94C4080C948D000C9424060C948D0020
:100050000C948D000C948D000C948D000C948D00EC
:100060000C948D000C948D000000000024002700EB
:100070002A0000000000250028002B0000000000DE
:1000800023002600290004040404040404040202DA
:100090000202020203030303030301020408102007
:1000A0004080010204081020010204081020000012
:1000B0000007000201000003040600000000000029
:1000C00000008F00AA006B04DD0611241FBECFEFD5
:1000D000D8E0DEBFCDBF11E0A0E0B1E0E6EEF9E18F
:1000E00002C005900D92AE35B107D9F712E0AEE52A
:1000F000B1E001C01D92AA35B107E1F710E0CAECEA
:10010000D0E004C02297FE010E94ED0CC23CD10752
:10011000C9F70E941D060C94F10C0C94000010927B
:1001200067011092660108950F931F938C01FC01E3
:1001300040835183628373830E943409F80164838E
:1001400075838683978382E090E0918780871F91F3
:100150000F910895109278010895DC011A966C931E
:100160001A97462F50E0CA018A579F4FFC012491ED
:100170001B962C931B9746565F4FFA0184911C9651
:100180008C931C9730E0220F331FF901EE58FF4F7C
:10019000859194911E969C938E931D97F901E45836
:1001A000FF4F8591949150969C938E931F97F901E0
:1001B000E859FF4F8591949152969C938E93519755
:1001C0008FEF18968C93189719961C92199787E0C1
:1001D000FD01E80FF11D1082882311F08150F8CF46
:1001E0000895DC018FEF18968C93189719961C923E
:1001F000199787E0FD01E80FF11D1082882311F0A7
:100200008150F8CF0895FF920F931F938C01DC016A
:100210005196ED91FC91529780811C969C911C9770
:10022000892B80831D96ED91FC911E9790811C96E1
:100230008C9180958923808381E090E00E946C09F5
:10024000D8015196ED91FC91529790811C968C911A
:1002500080958923808385E090E00E946C09D80115
:100260001F96ED91FC9150972081FF2430E01C9661
:100270008C9190E028233923232B11F0FF24F39451
:1002800082E390E00E946C098F2D1F910F91FF90E7
:100290000895EF92FF920F931F93CF93DF937C010A
:1002A00001E010E0C0E0D0E0C7010E94030181112D
:1002B000102B000F2196C830D105B1F7812FDF91A7
:1002C000CF911F910F91FF90EF900895EF92FF92C1
:1002D0000F931F937C01062FDC015196ED91FC9149
:1002E000529780811C969C911C97892B80831D9628
:1002F000ED91FC911E9790811C968C91809589239D
:100300008083017010E0F801EB5AFE4F808190E08D
:100310000E946C09D7011D96ED91FC911E9780817A
:100320001C969C91892B80830D5A1E4FF801808169
:1003300090E00E946C091F910F91FF90EF9008953B
:10034000CF92DF92EF92FF920F931F93CF93DF93A1
:100350008C01E42EFF24F394C0E0D0E0C62EDD240F
:1003600060E08F2D90E08C219D21892B09F061E0C8
:10037000C8010E946601FF0C2196C830D10581F7A3
:10038000EE2051F4F801828560E00E94B409F80182
:10039000828560E00E94D409DF91CF911F910F9177
:1003A000FF90EF90DF90CF900895EF92FF920F9320
:1003B0001F93CF93DF938C017B0165E540E00E94A2
:1003C000A001C0E0D0E0F701EC0FFD1FC801608183
:1003D00040E00E94A0012196C830D105A1F7DF912D
:1003E000CF911F910F91FF90EF9008951F93CF939E
:1003F000DF93EC018A8560E00E94B4091DE711508B
:1004000010F410E028C082E090E00E946C098A8518
:100410000E94210A892B99F38A8560E00E94D40901
:100420008A8561E00E94B40984EF91E00E946C0922
:100430008A8560E00E94B40981E490E00E946C0922
:100440008A850E94210A10E0892B09F411E08AEEC6
:1004500091E00E946C09812FDF91CF911F91089547
:100460008F929F92AF92BF92DF92EF92FF920F9383
:100470001F93CF93DF93EC015B018985882309F0FB
:1004800080C0CE010E94F601882309F47AC0CE0113
:1004900060EF40E00E94A001DD24DA94EE24E394B2
:1004A00000E010E021E0822E912CCE010E94030199
:1004B000F82ECE010E940301282F502F56955695F5
:1004C0005695C80187709070B40102C0660F771FFF
:1004D0008A95E2F7462FFF2029F0222309F051C028
:1004E0009F2D21C0222339F58885992787FD909576
:1004F0000817190711F4D8860EC0081719076CF4ED
:10050000262F30E0FE01E50FF11D808190E02823C9
:100510003923232B19F091E003C0088790E0EE24E3
:10052000D02E992341F0FE01E50FF11D8081842B2F
:100530008083F92E07C0FE01E50FF11D40958081F3
:1005400048234083CE016F2D0E9466010F5F1F4F2D
:100550000034110509F0A9CFEE2011F081E0898760
:1005600020E030E0F501E20FF31FDE01A20FB31F20
:100570008C9180832F5F3F4F2830310599F781E0C0
:1005800001C080E0DF91CF911F910F91FF90EF901C
:10059000DF90BF90AF909F908F900895FC01608393
:1005A000418312821382148215820895AF92BF9202
:1005B000DF92EF92FF920F931F93CF93DF93EC01A3
:1005C000B62E8A819B81AC81BD810097A105B105C2
:1005D00081F1EE80FF808DEF9FEFE80EF91E89819B
:1005E00060E00E94D409C7010E946C09DD24D39405
:1005F00000E010E0AB2CBB248D2D90E08A219B21E4
:10060000892B19F0898161E002C0898160E00E9434
:10061000D409C7010E946C09DD0C0F5F1F4F083021
:10062000110551F7898161E00E94D409C7010E9438
:100630006C09DF91CF911F910F91FF90EF90DF90A8
:10064000BF90AF9008952F923F924F925F926F921A
:100650007F928F929F92AF92BF92CF92DF92EF9252
:10066000FF920F931F93DF93CF93CDB7DEB7A09781
:100670000FB6F894DEBF0FBECDBF1C016A017B012F
:10068000411551056105710521F460E30E94D60210
:100690004FC0882499245401422E5524662477247F
:1006A00001E010E00C0F1D1F080D191DC701B60158
:1006B000A30192010E949A0CF80160830894811CA6
:1006C000911CA11CB11CC701B601A30192010E949B
:1006D0009A0CC901DA016C017D01C114D104E10455
:1006E000F104F1F681E0E82EF12CEC0EFD1EE80C91
:1006F000F91C3E010894611C711CD501C4010197CD
:10070000A109B1096C01C818D9080FC0F601EE0D96
:10071000FF1D60816A3010F4605D01C0695CC10139
:100720000E94D6020894E108F1086E147F0471F764
:10073000A0960FB6F894DEBF0FBECDBFCF91DF916C
:100740001F910F91FF90EF90DF90CF90BF90AF90EF
:100750009F908F907F906F905F904F903F902F90E1
:100760000895EF92FF920F931F93CF93DF93EC01C5
:100770007A018B0177FF0BC06DE20E94D6021095C3
:100780000095F094E094E11CF11C011D111DCE01B7
:10079000B801A7012AE00E942303DF91CF911F91A6
:1007A0000F91FF90EF900895AB01662757FD60957C
:1007B000762F0E94B10308952115310521F4642F8D
:1007C0000E94D60208952A30310519F40E94B1031F
:1007D00008950E94230308950F931F93CF93DF93EF
:1007E0008C01EB0104C02196C8010E94D6026881E9
:1007F0006623C9F7DF91CF911F910F9108950F9351
:100800001F938C019A01AB01FC0122833383448343
:10081000558360E472E48FE090E00E94BC0CF80124
:1008200037832683818161E00E94D409F8018681A3
:1008300097810E946C091F910F9108959C0164E0BB
:1008400070E00E94870CAB01B901660F771F620F41
:10085000731F660F771F640F751F882777FD8095BC
:10086000982F0E94740B6093880170938901809384
:100870008A0190938B0120E030E048EC52E40E9422
:10088000D90A0895609188017091890180918A0147
:1008900090918B0120E030E040E151E40E94240C73
:1008A00020E030E040EA50E40E94D90A20E030E045
:1008B00048E455E40E94710A60938C0170938D01A5
:1008C00080938E0190938F0120E030E048EC52E459
:1008D0000E94D90A08958AE791E060E040915101B1
:1008E0000E94CE0285EA91E06AE00E94AD00089580
:1008F000CF93DF93CDE9D1E0499150E060E070E023
:100900008CE392E020E130E00E94190881E0C53AD2
:10091000D80791F7DF91CF9108951F938CE392E070
:1009200060E071E00E94430710E017C01F5F412F95
:1009300050E060E070E08CE392E02AE030E00E945A
:1009400019088CE392E06EE071E00E9414070E94A7
:1009500078048CE392E00E942C0785EA91E06DE92F
:1009600071E00E943002882309F7812F1F910895BA
:100970000F931F930AE711E0C8014EEF50E060E0CB
:1009800070E020E030E00E94DC03C80141E050E06C
:1009900060E070E020E030E00E94DC031F910F91E6
:1009A0000895FF920F931F93CF93DF9385EA91E011
:1009B0000E94F1000E94B804FF24D5C085EA91E0AE
:1009C0006DE971E00E9430024F2D50E060E070E070
:1009D0008CE392E02AE030E00E9419088CE392E078
:1009E00060E171E00E9414070E9478048CE392E0B9
:1009F00062E171E00E94140785EA91E00E94F6012D
:100A000085EA91E06DE971E00E94D50185EA91E007
:100A100064E441E00E94A00168EE73E080E090E0B1
:100A20000E94420985EA91E00E94F60180939001BC
:100A300085EA91E06DE971E00E94D50185EA91E0D7
:100A40006EEB40E00E94A001C1E9D1E085EA91E0AF
:100A50000E944901899381E0CA39D807B9F780918A
:100A6000910190E0909385018093840120919201FF
:100A70002093820110928301122F00E0800F911FBA
:100A800090938701809386018CE392E065E171E0A9
:100A90000E9414074091820150918301662757FDFF
:100AA0006095762F8CE392E020E130E00E941908F7
:100AB0008CE392E067E171E00E94140740918401A9
:100AC00050918501662757FD6095762F8CE392E063
:100AD00020E130E00E9419088CE392E06AE171E0C5
:100AE0000E94140760918601709187018CE392E067
:100AF0000E9411088CE392E06DE171E00E941407FE
:100B000080918601909187010E941E04AB01BC0177
:100B10008CE392E00E94C0088CE392E06FE171E008
:100B20000E9414078CE392E06EE071E00E941407CB
:100B30000E9442040E94410B9B01AC018AE791E0B4
:100B4000B9010E94D4032F2D30E08091790190E00B
:100B500001972817390734F48AE791E062E171E0E0
:100B60000E94EC03F39480917901F81608F426CFE3
:100B70008CE392E00E942C07DF91CF911F910F919F
:100B8000FF9008950E94D10468EE73E080E090E049
:100B90000E94420908950F931F938091510161E0D3
:100BA0000E94B4090AE711E0C80140E855E260E09C
:100BB00070E00E94FF030E94B804C80161E271E086
:100BC0000E94EC0364EF71E080E090E00E94420933
:100BD0000E94B8041F910F9108950F931F930CE387
:100BE00012E0C80140E855E260E070E00E94610652
:100BF0000E94CB058EE591E040E853E46DE678E392
:100C00000E9494000E948D0480937901C8016BE2D8
:100C100071E00E9414074091790150E060E070E0BB
:100C2000C8012AE030E00E942E08C8016CE371E0A0
:100C30000E9443071F910F9108950E947A090E9414
:100C4000ED050E94C205FDCF1F920F920FB60F92C5
:100C500011242F933F934F935F936F937F938F93C1
:100C60009F93AF93BF93EF93FF934091C600E091A2
:100C70003802F0913902CF01019660E870E00E94DD
:100C8000870C9C0180913A0290913B02281739070A
:100C900039F0E854FE4F40833093390220933802F4
:100CA000FF91EF91BF91AF919F918F917F916F9144
:100CB0005F914F913F912F910F900FBE0F901F901A
:100CC0001895AF92BF92CF92DF92EF92FF920F935F
:100CD0001F93CF93DF936C017A018B01DC01149693
:100CE000AD90BC901597CB01BA0122E030E040E016
:100CF00050E00E94BC0C205C3D4B404F5F4FCA014E
:100D0000B901A80197010E94BC0CC901DA01019741
:100D1000A109B109292F3A2F4B2F552747FD5A9585
:100D20000196A11DB11DE5012883E601EE81FF8139
:100D300081508083EA85FB85208141E050E0CA0133
:100D40000E8402C0880F991F0A94E2F7282B208393
:100D5000EA85FB852081CA010F8402C0880F991F94
:100D60000A94E2F7282B2083EA85FB858081088896
:100D700002C0440F551F0A94E2F7842B8083DF9151
:100D8000CF911F910F91FF90EF90DF90CF90BF9088
:100D9000AF900895FC01A085B18521898C9190E0E8
:100DA000022E02C0959587950A94E2F780FFF6CF50
:100DB0000484F585E02D608308958BE591E09093A0
:100DC0003D0280933C0288EB91E090933F02809338
:100DD0003E0285EC90E0909341028093400284ECC7
:100DE00090E0909343028093420280EC90E09093D5
:100DF00045028093440281EC90E0909347028093F7
:100E0000460286EC90E0909349028093480284E089
:100E100080934A0283E080934B0287E080934C02E8
:100E200085E080934D0208950F931F93CF93DF9336
:100E30008C01EB0109C02196D801ED91FC91019044
:100E4000F081E02DC801099568816623A1F7DF9143
:100E5000CF911F910F9108950F931F938C01DC0187
:100E6000ED91FC910190F081E02D6DE00995D801A4
:100E7000ED91FC910190F081E02DC8016AE00995A7
:100E80001F910F9108950F931F938C010E941407D7
:100E9000C8010E942C071F910F9108952F923F9235
:100EA0004F925F926F927F928F929F92AF92BF927A
:100EB000CF92DF92EF92FF920F931F93DF93CF9326
:100EC000CDB7DEB7A0970FB6F894DEBF0FBECDBF8B
:100ED0001C016A017B01411551056105710549F449
:100EE000DC01ED91FC910190F081E02D60E309952A
:100EF00054C0882499245401422E55246624772412
:100F000001E010E00C0F1D1F080D191DC701B601EF
:100F1000A30192010E949A0CF80160830894811C3D
:100F2000911CA11CB11CC701B601A30192010E9432
:100F30009A0CC901DA016C017D01C114D104E104EC
:100F4000F104F1F681E0E82EF12CEC0EFD1EE80C28
:100F5000F91C3E010894611C711CD501C401019764
:100F6000A109B1096C01C818D90814C0F601EE0D29
:100F7000FF1D60816A3010F4605D01C0695CD101C1
:100F8000ED91FC910190F081E02DC101099508944B
:100F9000E108F1086E147F0449F7A0960FB6F894A3
:100FA000DEBF0FBECDBFCF91DF911F910F91FF909C
:100FB000EF90DF90CF90BF90AF909F908F907F90F9
:100FC0006F905F904F903F902F9008952AE00E947D
:100FD0004E070895EF92FF920F931F93CF93DF93E5
:100FE000EC017A018B0177FF0FC0E881F981019054
:100FF000F081E02D6DE2099510950095F094E09454
:10100000E11CF11C011D111DCE01B801A7012AE050
:101010000E944E07DF91CF911F910F91FF90EF90AB
:101020000895AB01662757FD6095762F0E94EA0769
:101030000895DC012115310541F4ED91FC910190F9
:10104000F081E02D642F099508952A30310519F4B7
:101050000E94EA0708950E944E0708950F931F9378
:101060008C010E941908C8010E942C071F910F9142
:1010700008959F92AF92BF92CF92DF92EF92FF922C
:101080000F931F93CF93DF93EC017A018B01922E84
:10109000CB01BA0120E030E040E050E00E94D50AE8
:1010A000882364F4E881F9810190F081E02DCE017C
:1010B0006DE2099517FB109517F9109520E030E0C7
:1010C00040E05FE3AA240BC0CA01B90120E030E090
:1010D00040E251E40E94D90A9B01AC01A394A914F7
:1010E00098F3C801B7010E94710A5B016C010E946C
:1010F000460B7B018C01CE01B801A7010E94E607D7
:10110000992029F0CE016FE471E00E941407C80114
:10111000B7010E94720B9B01AC01C601B5010E9490
:10112000700A20C020E030E040E251E40E94240C2C
:101130007B018C010E94410B5B016C01CC24B7FC4C
:10114000C094DC2CCE01B601A5010E94EA07C601BD
:10115000B5010E94740B9B01AC01C801B7010E944C
:10116000700A9A949920F1F6DF91CF911F910F9117
:10117000FF90EF90DF90CF90BF90AF909F90089539
:1011800022E00E94390808951F920F920FB60F9225
:1011900011242F938F939F93AF93BF9380914E020F
:1011A00090914F02A0915002B09151020196A11D61
:1011B000B11D80934E0290934F02A0935002B093C2
:1011C00051028091520290915302A0915402B09129
:1011D00055028050904CAF4FBF4F80935202909376
:1011E0005302A0935402B093550227C0809152023B
:1011F00090915302A0915402B091550280589E43A1
:10120000A040B0408093520290935302A0935402A6
:10121000B09355028091560290915702A0915802C6
:10122000B09159020196A11DB11D80935602909371
:101230005702A0935802B0935902809152029091A4
:101240005302A0915402B091550281589E43A04090
:10125000B04060F6BF91AF919F918F912F910F9009
:101260000FBE0F901F9018958FB7F89420915602DB
:101270003091570240915802509159028FBFB901E5
:10128000CA010895EF92FF920F931F937B018C0187
:101290008FB7F894409156025091570260915802CE
:1012A000709159028FBF2FB7F89480915602909198
:1012B0005702A0915802B09159022FBF841B950B81
:1012C000A60BB70BE816F9060A071B0760F71F9174
:1012D0000F91FF90EF900895019759F0FC01EE0FE8
:1012E000FF1FEE0FFF1F32978FB7F8943197F1F77A
:1012F0008FBF0895789484B5826084BD84B5816081
:1013000084BD85B5826085BD85B5816085BDEEE60D
:10131000F0E0808181608083E1E8F0E0808182609C
:101320008083808181608083E0E8F0E0808181605B
:101330008083E1EBF0E0808184608083E0EBF0E08B
:10134000808181608083EAE7F0E08081846080832F
:1013500080818260808380818160808380818068D9
:1013600080831092C1000895282F30E0C90186566D
:101370009F4FFC0194912A573F4FF9018491882394
:1013800091F0E82FF0E0EE0FFF1FE859FF4FA59115
:10139000B491662329F48C91909589238C930895B8
:1013A0008C91892B8C930895482F50E0CA01825567
:1013B0009F4FFC012491CA0186569F4FFC019491D6
:1013C0004A575F4FFA0134913323D1F1222331F18F
:1013D000233021F4809180008F7705C0243031F4D0
:1013E000809180008F7D8093800018C0213019F497
:1013F00084B58F7704C0223021F484B58F7D84BDFD
:101400000DC0263021F48091B0008F7705C02730C1
:1014100029F48091B0008F7D8093B000E32FF0E03D
:10142000EE0FFF1FEE58FF4FA591B491662329F4EC
:101430008C91909589238C9308958C91892B8C9312
:101440000895682F70E0CB0182559F4FFC012491D5
:10145000CB0186569F4FFC0144916A577F4FFB0199
:101460009491992319F420E030E038C0222331F11F
:10147000233021F4809180008F7705C0243031F42F
:10148000809180008F7D8093800018C0213019F4F6
:1014900084B58F7704C0223021F484B58F7D84BD5C
:1014A0000DC0263021F48091B0008F7705C0273021
:1014B00029F48091B0008F7D8093B000892F90E057
:1014C000880F991F84589F4FFC01A591B4918C916E
:1014D00020E030E0842311F021E030E0C9010895DC
:1014E0005058BB27AA270ED075C166D130F06BD1FA
:1014F00020F031F49F3F11F41EF45BC10EF4E0952F
:10150000E7FB51C1E92F77D180F3BA176207730760
:101510008407950718F071F49EF58FC10EF4E095DD
:101520000B2EBA2FA02D0B01B90190010C01CA019D
:10153000A0011124FF27591B99F0593F50F4503E48
:1015400068F11A16F040A22F232F342F4427585F3A
:10155000F3CF469537952795A795F0405395C9F752
:101560007EF41F16BA0B620B730B840BBAF091500A
:10157000A1F0FF0FBB1F661F771F881FC2F70EC0A9
:10158000BA0F621F731F841F48F48795779567957C
:10159000B795F7959E3F08F0B3CF9395880F08F065
:1015A0009927EE0F979587950895D9D008F481E093
:1015B00008950CD00FC107D140F0FED030F021F4D7
:1015C0005F3F19F0F0C0511139C1F3C014D198F345
:1015D0009923C9F35523B1F3951B550BBB27AA27B4
:1015E00062177307840738F09F5F5F4F220F331F26
:1015F000441FAA1FA9F333D00E2E3AF0E0E830D0F2
:1016000091505040E695001CCAF729D0FE2F27D0F4
:10161000660F771F881FBB1F261737074807AB07C2
:10162000B0E809F0BB0B802DBF01FF2793585F4F37
:101630002AF09E3F510568F0B6C000C15F3FECF351
:10164000983EDCF3869577956795B795F7959F5FFC
:10165000C9F7880F911D9695879597F90895E1E050
:10166000660F771F881FBB1F621773078407BA07AF
:1016700020F0621B730B840BBA0BEE1F88F7E0950A
:10168000089504D06894B111D9C00895BCD088F0F1
:101690009F5790F0B92F9927B751A0F0D1F0660F5E
:1016A000771F881F991F1AF0BA95C9F712C0B13079
:1016B00081F0C3D0B1E00895C0C0672F782F88278C
:1016C000B85F39F0B93FCCF3869577956795B395B8
:1016D000D9F73EF490958095709561957F4F8F4F27
:1016E0009F4F0895E89409C097FB3EF4909580952C
:1016F000709561957F4F8F4F9F4F9923A9F0F92FD8
:1017000096E9BB279395F695879577956795B79555
:10171000F111F8CFFAF4BB0F11F460FF1BC06F5F3B
:101720007F4F8F4F9F4F16C0882311F096E911C04D
:10173000772321F09EE8872F762F05C0662371F06E
:1017400096E8862F70E060E02AF09A95660F771F82
:10175000881FDAF7880F9695879597F90895990F5E
:101760000008550FAA0BE0E8FEEF16161706E8076B
:10177000F907C0F012161306E407F50798F0621B8C
:10178000730B840B950B39F40A2661F0232B242B61
:10179000252B21F408950A2609F4A140A6958FEF80
:1017A000811D811D089597F99F6780E870E060E0D2
:1017B00008959FEF80EC089500240A9416161706EA
:1017C00018060906089500240A9412161306140632
:1017D00005060895092E0394000C11F4882352F095
:1017E000BB0F40F4BF2B11F460FF04C06F5F7F4F4D
:1017F0008F4F9F4F089557FD9058440F551F59F034
:101800005F3F71F04795880F97FB991F61F09F3FED
:1018100079F087950895121613061406551FF2CF16
:101820004695F1DF08C0161617061806991FF1CF66
:1018300086957105610508940895E894BB2766278D
:101840007727CB0197F908950BD0C4CFB5DF28F0E7
:10185000BADF18F0952309F0A6CFABCF1124EECF55
:10186000CADFA0F3959FD1F3950F50E0551F629FFB
:10187000F001729FBB27F00DB11D639FAA27F00DE9
:10188000B11DAA1F649F6627B00DA11D661F829F10
:101890002227B00DA11D621F739FB00DA11D621FF5
:1018A000839FA00D611D221F749F3327A00D611D12
:1018B000231F849F600D211D822F762F6A2F1124F4
:1018C0009F5750408AF0E1F088234AF0EE0FFF1F47
:1018D000BB1F661F771F881F91505040A9F79E3F7E
:1018E000510570F060CFAACF5F3FECF3983EDCF378
:1018F000869577956795B795F795E7959F5FC1F7BB
:10190000FE2B880F911D9695879597F9089597FB63
:10191000092E07260AD077FD04D049D006D0002032
:101920001AF4709561957F4F0895F6F7909581951B
:101930009F4F0895A1E21A2EAA1BBB1BFD010DC0EB
:10194000AA1FBB1FEE1FFF1FA217B307E407F5076F
:1019500020F0A21BB30BE40BF50B661F771F881F4B
:10196000991F1A9469F760957095809590959B01E1
:10197000AC01BD01CF01089597FB092E05260ED0BD
:1019800057FD04D0D7DF0AD0001C38F4509540959D
:10199000309521953F4F4F4F5F4F0895F6F7909543
:1019A0008095709561957F4F8F4F9F4F0895AA1B2B
:1019B000BB1B51E107C0AA1FBB1FA617B70710F03A
:1019C000A61BB70B881F991F5A95A9F7809590956C
:1019D000BC01CD010895EE0FFF1F0590F491E02D9D
:0619E0000994F894FFCF0A
:1019E600636F756E740961646472657373000900D0
:1019F6002D002C20004800204C003D3E00200043D6
:101A0600004C4344207365747570006465766963A1
:101A16006520636F756E7420697320002A2A2A2A4E
:101A26002A2A2A2A2A2A2A2A2A2A2A2A2A2A002E36
:0E1A36000002000537370500000000CA060058
:00000001FF
