:100000000C94C0000C94E8000C94E8000C94E800F8
:100010000C94E8000C94E8000C94E8000C94E800C0
:100020000C94E8000C94E8000C94E8000C94E800B0
:100030000C94E8000C94E8000C94E8000C94E800A0
:100040000C9485100C94E8000C947F0D0C94E8003F
:100050000C94E8000C94E8000C94E8000C94E80080
:100060000C94E8000C94E8004A616E7561727900A6
:100070004665627275617279004D61726368004114
:100080007072696C004D6179004A756E65004A7541
:100090006C79004175677573740053657074656D94
:1000A000626572004F63746F626572004E6F7665B1
:1000B0006D62657200446563656D6265720068001B
:1000C000700079007F00850089008E0093009A00FF
:1000D000A400AC00B50053756E646179004D6F6E7D
:1000E0006461790054756573646179005765646E65
:1000F0006573646179005468757273646179004650
:10010000726964617900536174757264617900D6B3
:1001100000DD00E400EC00F600FF00060100000036
:1001200000240027002A0000000000250028002BE2
:100130000000000000230026002900040404040439
:100140000404040202020202020303030303030184
:10015000020408102040800102040810200102045B
:100160000810200000000700020100000304060040
:100170000000000000000000E4016C026806800E30
:1001800011241FBECFEFD8E0DEBFCDBF13E0A0E04B
:10019000B1E0E6EAF9E202C005900D92AE3BB1078C
:1001A000D9F714E0AEEBB3E001C01D92A63CB10755
:1001B000E1F711E0C0E8D1E004C02297FE010E94FF
:1001C000CD14C837D107C9F70E94780D0C94D1140B
:1001D0000C940000FB01DC0105900D920020E1F77A
:1001E00008952F923F924F925F926F927F928F92DB
:1001F0009F92AF92BF92CF92DF92EF92FF920F93B6
:100200001F93DF93CF9300D000D0CDB7DEB7FB01B3
:100210003A0129011801FA82E982BC82AB825401B9
:10022000E080F18002811381C801B7012CE330E046
:1002300040E050E00E949C14D3016C93C801B701C8
:100240002CE330E040E050E00E949C14122F032F7A
:10025000F42EE52E622F732F842F952F2CE330E0A0
:1002600040E050E00E949C14F2016083612F702FE7
:100270008F2D9E2D2CE330E040E050E00E949C1436
:10028000122F032FF42EE52E622F732F842F952F1C
:1002900028E130E040E050E00E949C14D1016C93D2
:1002A000612F702F8F2D9E2D28E130E040E050E02F
:1002B0000E949C1479018A01C801B7016C5F7F4FCD
:1002C0008F4F9F4F27E030E040E050E00E949C14A9
:1002D000F6016083E6E420E030E040E050E001C059
:1002E000EF5F6E2F70E0637070706115710529F01B
:1002F0008DE691E0A0E0B0E004C08EE691E0A0E0E1
:10030000B0E0280F391F4A1F5B1FC901A0E0B0E011
:10031000E816F9060A071B071CF7D501EC936115CF
:10032000710529F48EE691E0A0E0B0E004C08DE60E
:1003300091E0A0E0B0E0281B390B4A0B5B0BD80121
:10034000C701821B930BA40BB50B9C01AD01E8EA1E
:10035000F3E090E0913039F46115710511F08CE112
:1003600003C08DE101C08081E82EFF2400E010E091
:100370002E153F054007510744F02E193F09400B49
:10038000510B9F5F31969C3029F7AB81BC819C93C8
:10039000822F8F5FE981FA8180830F900F900F90F9
:1003A0000F90CF91DF911F910F91FF90EF90DF9011
:1003B000CF90BF90AF909F908F907F906F905F9005
:1003C0004F903F902F9008951092C7031092C6034C
:1003D0000895CF93DF93EC0113C088819981AA819E
:1003E000BB810196A11DB11D88839983AA83BB831C
:1003F00028513C4F4F4F5F4F2C833D834E835F838B
:100400000E94F5102C813D814E815F81621B730B30
:10041000840B950B685E734080409040F0F66881D5
:1004200079818A819B81DF91CF9108958F929F92EC
:10043000AF92BF92CF92DF92EF92FF920F931F93F2
:10044000CF93DF93EC0188859985892B11F480E0A7
:1004500020C0CE010E94E9019E01255F3F4F8E0121
:10046000065F1F4FFE013D96DE011E969FE0A92EFE
:10047000B12CAC0EBD1E80E1882E912C8C0E9D1EE1
:10048000CE01BE012C96AE017F016D010E94F100EC
:1004900081E0DF91CF911F910F91FF90EF90DF905E
:1004A000CF90BF90AF909F908F9008950F931F9320
:1004B0008C01FC0140835183628373830E94F51099
:1004C000F801648375838683978382E090E0918747
:1004D00080871F910F9108951092D80308950F936C
:1004E0001F93182F092FE62FF0E0EE0FFF1FE15F9B
:1004F000FE4F65917491812F0E94EA00812F902F09
:100500001F910F9108950F931F93182F092FE62F16
:10051000F0E0EE0FFF1FE254FF4F65917491902FB2
:100520000E94EA00812F902F1F910F910895F99951
:10053000FECF72BD61BDF89A80B50895F999FECFDE
:100540001FBA72BD61BD40BD0FB6F894FA9AF99A10
:100550000FBE0895DC011A966C931A97462F50E04F
:10056000CA01855C9E4FFC0124911B962C931B971E
:10057000415B5E4FFA0184911C968C931C9730E08E
:10058000220F331FF901E95DFE4F859194911E966C
:100590009C938E931D97F901EF5CFE4F859194918A
:1005A00050969C938E931F97F901E35EFE4F8591C1
:1005B000949152969C938E9351978FEF18968C93AB
:1005C000189719961C92199787E0FD01E80FF11D05
:1005D0001082882311F08150F8CF0895DC018FEF4D
:1005E00018968C93189719961C92199787E0FD011D
:1005F000E80FF11D1082882311F08150F8CF089583
:10060000FF920F931F938C01DC015196ED91FC91A9
:10061000529780811C969C911C97892B80831D96F4
:10062000ED91FC911E9790811C968C918095892369
:10063000808381E090E00E942D11D8015196ED91C8
:10064000FC91529790811C968C9180958923808390
:1006500085E090E00E942D11D8011F96ED91FC914C
:1006600050972081FF2430E01C968C9190E0282345
:100670003923232B11F0FF24F39482E390E00E94AE
:100680002D118F2D1F910F91FF900895EF92FF92E2
:100690000F931F93CF93DF937C0101E010E0C0E044
:1006A000D0E0C7010E9400038111102B000F21969A
:1006B000C830D105B1F7812FDF91CF911F910F91F4
:1006C000FF90EF900895EF92FF920F931F937C019C
:1006D000062FDC015196ED91FC91529780811C967A
:1006E0009C911C97892B80831D96ED91FC911E9700
:1006F00090811C968C91809589238083017010E0F5
:10070000F801EA54FC4F808190E00E942D11D7013E
:100710001D96ED91FC911E9780811C969C91892BD2
:1007200080830C541C4FF801808190E00E942D11B1
:100730001F910F91FF90EF900895CF92DF92EF926B
:10074000FF920F931F93CF93DF938C01E42EFF242E
:10075000F394C0E0D0E0C62EDD2460E08F2D90E061
:100760008C219D21892B09F061E0C8010E9463035F
:10077000FF0C2196C830D10581F7EE2051F4F80125
:10078000828560E00E947511F801828560E00E9418
:100790009511DF91CF911F910F91FF90EF90DF9016
:1007A000CF900895EF92FF920F931F93CF93DF9313
:1007B0008C017B0165E540E00E949D03C0E0D0E034
:1007C000F701EC0FFD1FC801608140E00E949D030E
:1007D0002196C830D105A1F7DF91CF911F910F91DC
:1007E000FF90EF9008951F93CF93DF93EC018A85DC
:1007F00060E00E9475111DE7115010F410E028C050
:1008000082E090E00E942D118A850E94E211892BDE
:1008100099F38A8560E00E9495118A8561E00E94C3
:10082000751184EF91E00E942D118A8560E00E948D
:10083000751181E490E00E942D118A850E94E211D9
:1008400010E0892B09F411E08AEE91E00E942D114D
:10085000812FDF91CF911F9108958F929F92AF9238
:10086000BF92DF92EF92FF920F931F93CF93DF938C
:10087000EC015B018985882309F080C0CE010E94CC
:10088000F303882309F47AC0CE0160EF40E00E94B0
:100890009D03DD24DA94EE24E39400E010E021E0EF
:1008A000822E912CCE010E940003F82ECE010E94D0
:1008B0000003282F502F569556955695C8018770DE
:1008C0009070B40102C0660F771F8A95E2F7462F39
:1008D000FF2029F0222309F051C09F2D21C022239F
:1008E00039F58885992787FD90950817190711F420
:1008F000D8860EC0081719076CF4262F30E0FE01C9
:10090000E50FF11D808190E028233923232B19F076
:1009100091E003C0088790E0EE24D02E992341F0A7
:10092000FE01E50FF11D8081842B8083F92E07C025
:10093000FE01E50FF11D4095808148234083CE01E3
:100940006F2D0E9463030F5F1F4F0034110509F0E4
:10095000A9CFEE2011F081E0898720E030E0F50199
:10096000E20FF31FDE01A20FB31F8C9180832F5F74
:100970003F4F2830310599F781E001C080E0DF91D9
:10098000CF911F910F91FF90EF90DF90BF90AF90AC
:100990009F908F900895FC0160834183128213829F
:1009A000148215820895AF92BF92DF92EF92FF9268
:1009B0000F931F93CF93DF93EC01B62E8A819B8117
:1009C000AC81BD810097A105B10581F1EE80FF806A
:1009D0008DEF9FEFE80EF91E898160E00E9495116E
:1009E000C7010E942D11DD24D39400E010E0AB2C50
:1009F000BB248D2D90E08A219B21892B19F08981C0
:100A000061E002C0898160E00E949511C7010E94E7
:100A10002D11DD0C0F5F1F4F0830110551F7898133
:100A200061E00E949511C7010E942D11DF91CF91C5
:100A30001F910F91FF90EF90DF90BF90AF900895BE
:100A40002F923F924F925F926F927F928F929F92DE
:100A5000AF92BF92CF92DF92EF92FF920F931F93CC
:100A6000DF93CF93CDB7DEB7A0970FB6F894DEBF74
:100A70000FBECDBF1C016A017B0141155105610507
:100A8000710521F460E30E94D3044FC088249924A7
:100A90005401422E55246624772401E010E00C0F07
:100AA0001D1F080D191DC701B601A30192010E9467
:100AB0007A14F80160830894811C911CA11CB11C5C
:100AC000C701B601A30192010E947A14C901DA019B
:100AD0006C017D01C114D104E104F104F1F681E05F
:100AE000E82EF12CEC0EFD1EE80CF91C3E010894DA
:100AF000611C711CD501C4010197A109B1096C01E8
:100B0000C818D9080FC0F601EE0DFF1D60816A30CC
:100B100010F4605D01C0695CC1010E94D3040894B7
:100B2000E108F1086E147F0471F7A0960FB6F894EF
:100B3000DEBF0FBECDBFCF91DF911F910F91FF9010
:100B4000EF90DF90CF90BF90AF909F908F907F906D
:100B50006F905F904F903F902F900895EF92FF928B
:100B60000F931F93CF93DF93EC017A018B0177FFF3
:100B70000BC06DE20E94D30410950095F094E094B0
:100B8000E11CF11C011D111DCE01B801A7012AE0D5
:100B90000E942005DF91CF911F910F91FF90EF9060
:100BA0000895AB01662757FD6095762F0E94AE052C
:100BB00008952115310521F4642F0E94D30408956E
:100BC0002A30310519F40E94AE0508950E942005CF
:100BD00008950F931F93CF93DF938C01EB0104C013
:100BE0002196C8010E94D30468816623C9F7DF916A
:100BF000CF911F910F9108950F931F938C019A012C
:100C0000AB01FC01228333834483558360E472E4A7
:100C10008FE090E00E949C14F80137832683818145
:100C200061E00E949511F801868197810E942D1143
:100C30001F910F9108959C0164E070E00E94671479
:100C4000AB01B901660F771F620F731F660F771F25
:100C5000640F751F882777FD8095982F0E943513A4
:100C60006093ED037093EE038093EF039093F00392
:100C700020E030E048EC52E40E949A12089560911E
:100C8000ED037091EE038091EF039091F00320E06B
:100C900030E040E151E40E94E51320E030E040EA1A
:100CA00050E40E949A1220E030E048E455E40E94AB
:100CB00032126093F1037093F2038093F3039093E5
:100CC000F40320E030E048EC52E40E949A120895C8
:100CD0008FED93E060E04091A6030E94CB048AE090
:100CE00094E06AE00E94AA02089588EA94E00E94D3
:100CF000250E8823D1F388EA94E00E94390E982FBC
:100D000080538A3030F4292F332727FD3095205324
:100D10003040C9010895AF92BF92CF92DF92EF9217
:100D2000FF920F931F935C0168EAC62E64E0D62EF3
:100D3000C60160E071E00E94FE0E0E9475069C01F3
:100D40008C0153E0000F111F5A95E1F7220F331F5A
:100D5000020F131F0E947506080F191F780133E058
:100D6000EE0CFF1C3A95E1F7000F111FE00EF11E8B
:100D70000E947506E80EF91EF501F182E082C601B7
:100D80006BE371E00E94BF0EF50160817181C601C5
:100D90000E94A50FC6016FE471E00E94FE0E81E083
:100DA0001F910F91FF90EF90DF90CF90BF90AF9089
:100DB0000895AF92BF92CF92DF92EF92FF920F937E
:100DC0001F935C01B8EACB2EB4E0DB2EC6016AE5C6
:100DD00071E00E94FE0E0E9475069C018C01A3E04A
:100DE000000F111FAA95E1F7220F331F020F131FE7
:100DF0000E947506080F191F7801E3E0EE0CFF1C36
:100E0000EA95E1F7000F111FE00EF11E0E94750632
:100E1000E80EF91EF501F182E082C6016EE971E08B
:100E20000E94BF0EF50160817181C6010E94A50F6D
:100E3000C6016FE471E00E94FE0E81E01F910F91E8
:100E4000FF90EF90DF90CF90BF90AF9008951F93E9
:100E5000182F88EA94E067EB71E00E94BF0E1A3009
:100E600028F488EA94E060E30E94B70E412F50E036
:100E700060E070E088EA94E02AE030E00E94DA0F57
:100E80001F910895AF92BF92CF92DF92EF92FF929F
:100E90000F931F9388EA94E069EB71E00E94FE0EC5
:100EA0000E947506AA2797FDA095BA2FBC01CD0117
:100EB0002AE030E040E050E00E9448147B018C01C1
:100EC0000E947506AA2797FDA095BA2FE80EF91E75
:100ED0000A1F1B1F88E1E816F1040105110508F03F
:100EE00053C00E947506AA2797FDA095BA2FBC0192
:100EF000CD012AE030E040E050E00E9448145B0160
:100F00006C010E947506AA2797FDA095BA2FA80E1E
:100F1000B91ECA1EDB1E9CE3A916B104C104D1048C
:100F200098F588EA94E0B801A7010E94AB0F8A2DDA
:100F30000E94270788EA94E00E94D70EC801B701F3
:100F400020E13EE040E050E00E9448147B018C012B
:100F500080E893E4ADE6B8E3E80EF91E0A1F1B1F14
:100F6000C601B5012CE330E040E050E00E94481497
:100F7000E60EF71E081F191F8EEB93E0B801A701BC
:100F80000E94560281E001C080E01F910F91FF9006
:100F9000EF90DF90CF90BF90AF900895CF93DF9305
:100FA000C2E0D4E0499150E060E070E088EA94E06B
:100FB00020E130E00E94DA0F84E0CA30D80791F7D0
:100FC000DF91CF910895CF92DF92EF92FF920F932E
:100FD0001F938EEB93E00E94160208EA14E0409102
:100FE000C80350E060E070E0C8012AE030E00E94F1
:100FF000DA0F8091C9030E9427078091CA030E94DB
:1010000027079BECE92E91E0F92EC801B7010E9459
:10101000BF0E8FECC82E83E0D82EC6016091CC03A2
:101020000E946F02BC01C8010E94BF0EC801B70137
:101030000E94BF0EC6016091CD030E948302BC01D5
:10104000C8010E94BF0EC801B7010E94BF0E4091A7
:10105000CB0350E060E070E0C8012AE030E00E947D
:10106000EF0F1F910F91FF90EF90DF90CF900895B9
:10107000CF93DF93C0E0D0E089ED93E0BE010E9402
:101080009702482F50E060E070E088EA94E020E0AA
:1010900030E00E94DA0F219682E0C030D80761F775
:1010A00088EA94E00E94D70EDF91CF91089588EAF4
:1010B00094E00E94250E8823D1F388EA94E00E94F0
:1010C000390E813639F40E94380888EA94E00E948B
:1010D000610EEDCF08954F925F926F927F928F9243
:1010E0009F92AF92BF92CF92DF92EF92FF920F93B7
:1010F0001F93CF93DF9388EA94E06DEC71E00E9438
:10110000BF0E89ED93E060E070E00E949702482FE7
:1011100050E060E070E088EA94E02AE030E00E946D
:10112000DA0F88EA94E067EB71E00E94BF0E89ED68
:1011300093E061E070E00E949702482F50E060E089
:1011400070E088EA94E02AE030E00E94DA0F88EA52
:1011500094E062EE71E00E94BF0E89ED93E062E0E0
:1011600070E00E949702482F50E060E070E088EA4B
:1011700094E02AE030E00E94DA0F88EA94E06FEE13
:1011800071E00E94BF0E89ED93E063E070E00E9481
:101190009702482F50E060E070E088EA94E02AE08F
:1011A00030E00E94EF0F64E070E074C0B601A5016A
:1011B000440D551D661D771D88EA94E02AE030E055
:1011C0000E94DA0F88EA94E064E172E00E94BF0EA8
:1011D0008E0189ED93E0BE010E949702E82EFF2464
:1011E000A701662757FD6095762F88EA94E020E1F5
:1011F00030E00E94DA0F88EA94E06BEC71E00E9424
:10120000BF0E22960F5F1F4F89ED93E0B8010E9439
:101210009702082F10E0A801662757FD6095762FEA
:1012200088EA94E020E130E00E94DA0F88EA94E056
:1012300066E172E00E94BF0EFE2CEE24C701800F13
:10124000911F0E941B06AB01BC0188EA94E00E943A
:10125000811088EA94E068E172E00E94BF0E089471
:10126000811C911C82E090E0A0E0B0E0A80EB91EC5
:10127000CA1EDB1E8091DA0390E0881699060CF4F2
:1012800095CF88EA94E00E94D70E91E0CF3FD9072E
:101290006CF4BE01EB0188249924AA24BB246501C7
:1012A0002B01662457FC6094762CE4CF88EA94E006
:1012B0000E94D70EDF91CF911F910F91FF90EF9079
:1012C000DF90CF90BF90AF909F908F907F906F9066
:1012D0005F904F9008951F9388EA94E06AE172E06E
:1012E0000E94FE0E10E017C01F5F412F50E060E02B
:1012F00070E088EA94E02AE030E00E94DA0F88EAA1
:1013000094E068E172E00E94BF0E0E94CE0788EA76
:1013100094E00E94D70E8AE094E062E074E00E94BC
:101320002D04882309F7812F1F910895CF93DF9310
:10133000C4E0D0E089ED93E0BE0140E00E949E024F
:10134000219682E0C030D807A9F710922304DF91DC
:10135000CF9108958EEB93E00E941602882379F0D6
:1013600089ED93E060E070E04091C8030E949E0226
:1013700089ED93E061E070E04091C9030CC089ED14
:1013800093E060E070E04FEF0E949E0289ED93E0F1
:1013900061E070E04FEF0E949E0289ED93E062E011
:1013A00070E04091DB030E949E0289ED93E063E0D0
:1013B00070E04091DA030E949E0208954F925F927E
:1013C0006F927F928F929F92AF92BF92CF92DF9255
:1013D000EF92FF920F931F93DF93CF93CDB7DEB7BA
:1013E000A7970FB6F894DEBF0FBECDBF8E010B5E80
:1013F0001F4FC8016AE00E94AA02C8010E94EE02C3
:10140000AA2468014E010894811C911C59E0452EC4
:10141000512C4C0E5D1E42E1642E712C6C0E7D1E13
:10142000CCC0C601B4010E942D04C6010E94F30382
:10143000C601B4010E94D203C60164E441E00E94E7
:101440009D0368EE73E080E090E00E940311C60106
:101450000E94F303C601B4010E94D203C6016EEBE1
:1014600040E00E949D038201C6010E944603F801EC
:1014700081938F01E615F705B9F7B9844A85609124
:10148000210470912204F1E06F3F7F070CF07BC0D4
:10149000EB2CFF24042F10E089ED93E00E949E02C4
:1014A0004091210450912204662757FD6095762FC4
:1014B00088EA94E02AE030E00E94DA0F88EA94E0BB
:1014C00068E272E00E94BF0EA801662757FD609592
:1014D000762F88EA94E020E130E00E94DA0F6091F4
:1014E0002104709122046F5F7F4F709322046093F8
:1014F000210489ED93E04B2D0E949E02409121042E
:1015000050912204662757FD6095762F88EA94E073
:101510002AE030E00E94DA0F88EA94E06BE272E0A1
:101520000E94BF0EA701662757FD6095762F88EAB7
:1015300094E020E130E00E94DA0F88EA94E06BEC5E
:1015400071E00E94BF0E88EA94E06EE272E00E94B1
:10155000BF0E102F00270E0D1F1D88EA94E0B80162
:101560000E94D20F88EA94E068E172E00E94BF0E08
:1015700080912104909122040196909322048093FB
:101580002104A3941AC081E08093230488EA94E0A4
:1015900061E372E00E94BF0E409121045091220449
:1015A00041505040662757FD6095762F88EA94E0B9
:1015B0002AE030E00E94EF0F05C08091DA03A81600
:1015C00008F42FCF88EA94E00E94D70EA7960FB6B2
:1015D000F894DEBF0FBECDBFCF91DF911F910F9169
:1015E000FF90EF90DF90CF90BF90AF909F908F9043
:1015F0007F906F905F904F900895EF92FF920F93BE
:101600001F930E94F5107B018C0180911D04909125
:101610001E04A0911F04B0912004E81AF90A0A0BD5
:101620001B0B6091DB037091DC0380E090E020E60F
:101630003AEE40E050E00E9448146E157F058007A6
:10164000910710F080E00BC00E94F51060931D041C
:1016500070931E0480931F049093200481E01F91D7
:101660000F91FF90EF9008958091A00361E00E9498
:10167000951184E090E090932204809321040E94CD
:10168000AA090E94960988EA94E00E94610E60917E
:10169000DD037091DE0380E090E020E63AEE40E06A
:1016A00050E00E9448140E9403110AC00E94FD0AE3
:1016B000882311F00E94DE0980912304882331F4ED
:1016C00088EA94E00E94250E882381F388EA94E05A
:1016D00062E572E00E94FE0E88EA94E00E94610ECC
:1016E0008091A00360E00E94951108950F931F93CD
:1016F0000FED13E0C8014EEF50E060E070E020E035
:1017000030E00E94D905C80141E050E060E070E09F
:1017100020E030E00E94D9051F910F910895FF92BB
:101720000F931F93CF93DF938AE094E00E94EE0221
:101730000E94760BFF24D5C08AE094E062E074E05A
:101740000E942D044F2D50E060E070E088EA94E0A4
:101750002AE030E00E94DA0F88EA94E064E172E067
:101760000E94BF0E0E94CE0788EA94E067E672E00E
:101770000E94BF0E8AE094E00E94F3038AE094E0A6
:1017800062E074E00E94D2038AE094E064E441E005
:101790000E949D0368EE73E080E090E00E940311D8
:1017A0008AE094E00E94F3038093F5038AE094E0DA
:1017B00062E074E00E94D2038AE094E06EEB40E0C5
:1017C0000E949D03C6EFD3E08AE094E00E944603A6
:1017D000899383E0CF3FD807B9F78091F60390E073
:1017E0009093EA038093E9032091F7032093E703A2
:1017F0001092E803122F00E0800F911F9093EC03EA
:101800008093EB0388EA94E06AE672E00E94BF0EE0
:101810004091E7035091E803662757FD6095762FC6
:1018200088EA94E020E130E00E94DA0F88EA94E050
:101830006BE272E00E94BF0E4091E9035091EA030F
:10184000662757FD6095762F88EA94E020E130E026
:101850000E94DA0F88EA94E06EE272E00E94BF0E06
:101860006091EB037091EC0388EA94E00E94D20F40
:1018700088EA94E06BEC71E00E94BF0E8091EB036C
:101880009091EC030E941B06AB01BC0188EA94E036
:101890000E94811088EA94E06CE672E00E94BF0E1C
:1018A00088EA94E068E172E00E94BF0E0E943F0661
:1018B0000E9402139B01AC018FED93E0B9010E94DD
:1018C000D1052F2D30E08091DA0390E001972817A1
:1018D000390734F48FED93E067E672E00E94E90582
:1018E000F3948091DA03F81608F426CF88EA94E09E
:1018F0000E94D70EDF91CF911F910F91FF90089515
:101900001F938091A4030E94E211019741F40E9469
:101910008F0B64EF71E080E090E00E94031188EA91
:1019200094E06EE672E00E94FE0E88EA94E060EEBB
:1019300072E00E94FE0E88EA94E00E94250E882341
:10194000D1F388EA94E00E94390E182F88EA94E0D7
:10195000612F0E94EE0E133719F40E9442072FC028
:10196000143639F50E94E30788EA94E06DE273E0EB
:101970000E94BF0E6091DB037091DC0388EA94E063
:101980000E94A50F88EA94E061E473E00E94BF0E14
:101990006091DD037091DE0388EA94E00E94A50F58
:1019A00088EA94E06CE573E00E94FE0E0E948F0BC3
:1019B00022C0143439F48DED93E00E948B06882305
:1019C000D9F019C01D3629F48BED93E00E94D90699
:1019D000F6CF1C3419F40E94340B0DC01F3419F4D7
:1019E0000E946B0808C0143711F080E005C00E9407
:1019F0008F0B0E94DE0981E01F9108950E94800CE8
:101A0000882381F488EA94E066E673E00E94FE0E83
:101A100088EA94E00E94610E64E670E080E090E065
:101A20000E94031108950F931F938091A60361E014
:101A30000E9475110FED13E0C80140E855E260E027
:101A400070E00E94FC050E94760BC80160E773E01D
:101A50000E94E9056AEF70E080E090E00E940311C7
:101A60000E94760B1F910F9108950F931F9308EA20
:101A700014E0C80140E855E260E070E00E94BC0D4F
:101A80000E94130D0E9457088EEB93E040E853E448
:101A90006DE678E30E9456020E94E3078091A0035E
:101AA00061E00E9475118091A20361E00E947511AE
:101AB0008091A40360E00E9475110E946B098093DD
:101AC000DA03C8016AE773E00E94BF0E4091DA03AF
:101AD00050E060E070E0C8012AE030E00E94EF0FC3
:101AE000C8016BE873E00E94FE0E1F910F910895EC
:101AF0000E943B110E94350D0E94FE0CFDCF1F92EB
:101B00000F920FB60F9211242F933F934F935F9331
:101B10006F937F938F939F93AF93BF93EF93FF93B5
:101B20004091C600E091A404F091A504CF01019674
:101B300060E870E00E9467149C018091A604909177
:101B4000A7042817390739F0EC5DFB4F4083309329
:101B5000A5042093A404FF91EF91BF91AF919F91B1
:101B60008F917F916F915F914F913F912F910F9046
:101B70000FBE0F901F901895AF92BF92CF92DF9239
:101B8000EF92FF920F931F93CF93DF936C017A0133
:101B90008B01DC011496AD90BC901597CB01BA0176
:101BA00022E030E040E050E00E949C14205C3D4B7D
:101BB000404F5F4FCA01B901A80197010E949C14D0
:101BC000C901DA010197A109B109292F3A2F4B2F39
:101BD000552747FD5A950196A11DB11DE5012883A2
:101BE000E601EE81FF8181508083EA85FB852081BB
:101BF00041E050E0CA010E8402C0880F991F0A9488
:101C0000E2F7282B2083EA85FB852081CA010F8417
:101C100002C0880F991F0A94E2F7282B2083EA85D7
:101C2000FB858081088802C0440F551F0A94E2F7A3
:101C3000842B8083DF91CF911F910F91FF90EF90C4
:101C4000DF90CF90BF90AF900895DC011296ED9198
:101C5000FC911397E058FF4F8191919180589F4FCD
:101C600020813181821B930B60E870E00E94671431
:101C70000895CF93DF93DC011296ED91FC911397B9
:101C8000EF01CE57DF4F48815981E058FF4F8081E7
:101C90009181E058F0408417950719F42FEF3FEF3A
:101CA0000CC0E40FF51F2081CA01019660E870E0C6
:101CB0000E9467149983888330E0C901DF91CF9136
:101CC0000895DC011296ED91FC911397EE57FF4FAA
:101CD00080819181929382930895FC01A085B185C2
:101CE00021898C9190E0022E02C0959587950A94E7
:101CF000E2F780FFF6CF0484F585E02D6083089538
:101D00008CEB93E09093A9048093A80484E294E080
:101D10009093AB048093AA0485EC90E09093AD047B
:101D20008093AC0484EC90E09093AF048093AE0475
:101D300080EC90E09093B1048093B00481EC90E04B
:101D40009093B3048093B20486EC90E09093B50432
:101D50008093B40484E08093B60483E08093B70456
:101D600087E08093B80485E08093B9040895DC018E
:101D7000ED91FC910190F081E02D099508950F936C
:101D80001F93CF93DF938C01EB0109C02196D801FB
:101D9000ED91FC910190F081E02DC80109956881D9
:101DA0006623A1F7DF91CF911F910F9108950F93B3
:101DB0001F938C01DC01ED91FC910190F081E02DED
:101DC0006DE00995D801ED91FC910190F081E02D35
:101DD000C8016AE009951F910F9108950F931F9311
:101DE0008C01DC01ED91FC910190F081E02D0995D1
:101DF000C8010E94D70E1F910F9108950F931F9352
:101E00008C010E94BF0EC8010E94D70E1F910F9136
:101E100008952F923F924F925F926F927F928F928E
:101E20009F92AF92BF92CF92DF92EF92FF920F9369
:101E30001F93DF93CF93CDB7DEB7A0970FB6F8947B
:101E4000DEBF0FBECDBF1C016A017B0141155105EC
:101E50006105710549F4DC01ED91FC910190F0817F
:101E6000E02D60E3099554C0882499245401422E42
:101E700055246624772401E010E00C0F1D1F080D87
:101E8000191DC701B601A30192010E947A14F8013D
:101E900060830894811C911CA11CB11CC701B60170
:101EA000A30192010E947A14C901DA016C017D013B
:101EB000C114D104E104F104F1F681E0E82EF12C23
:101EC000EC0EFD1EE80CF91C3E010894611C711C0F
:101ED000D501C4010197A109B1096C01C818D9083D
:101EE00014C0F601EE0DFF1D60816A3010F4605DD4
:101EF00001C0695CD101ED91FC910190F081E02D70
:101F0000C10109950894E108F1086E147F0449F7AE
:101F1000A0960FB6F894DEBF0FBECDBFCF91DF9174
:101F20001F910F91FF90EF90DF90CF90BF90AF90F7
:101F30009F908F907F906F905F904F903F902F90E9
:101F400008952AE00E94090F0895AB0160E070E057
:101F50000E94A10F0895EF92FF920F931F93CF93CA
:101F6000DF93EC017A018B0177FF0FC0E881F981E3
:101F70000190F081E02D6DE2099510950095F094A7
:101F8000E094E11CF11C011D111DCE01B801A70157
:101F90002AE00E94090FDF91CF911F910F91FF90CE
:101FA000EF900895AB01662757FD6095762F0E944C
:101FB000AB0F0895DC012115310541F4ED91FC9141
:101FC0000190F081E02D642F099508952A303105A4
:101FD00019F40E94AB0F08950E94090F08950F9302
:101FE0001F938C010E94DA0FC8010E94D70E1F9127
:101FF0000F9108959F92AF92BF92CF92DF92EF928E
:10200000FF920F931F93CF93DF93EC017A018B0123
:10201000922ECB01BA0120E030E040E050E00E9477
:102020009612882364F4E881F9810190F081E02D13
:10203000CE016DE2099517FB109517F9109520E078
:1020400030E040E05FE3AA240BC0CA01B90120E000
:1020500030E040E251E40E949A129B01AC01A3944B
:10206000A91498F3C801B7010E9432125B016C01F8
:102070000E9407137B018C01CE01B801A7010E94C9
:10208000A10F992029F0CE016EE973E00E94BF0EE6
:10209000C801B7010E9433139B01AC01C601B50111
:1020A0000E94311220C020E030E040E251E40E9462
:1020B000E5137B018C010E9402135B016C01CC24AF
:1020C000B7FCC094DC2CCE01B601A5010E94AB0F79
:1020D000C601B5010E9435139B01AC01C801B701CF
:1020E0000E9431129A949920F1F6DF91CF911F91BD
:1020F0000F91FF90EF90DF90CF90BF90AF909F90A7
:10210000089522E00E94FA0F08951F920F920FB6D1
:102110000F9211242F938F939F93AF93BF9380912E
:10212000BA049091BB04A091BC04B091BD04019687
:10213000A11DB11D8093BA049093BB04A093BC046D
:10214000B093BD048091BE049091BF04A091C004DF
:10215000B091C1048050904CAF4FBF4F8093BE04EC
:102160009093BF04A093C004B093C10427C0809192
:10217000BE049091BF04A091C004B091C1048058E6
:102180009E43A040B0408093BE049093BF04A093B0
:10219000C004B093C1048091C2049091C304A09183
:1021A000C404B091C5040196A11DB11D8093C20461
:1021B0009093C304A093C404B093C5048091BE045B
:1021C0009091BF04A091C004B091C10481589E4376
:1021D000A040B04060F6BF91AF919F918F912F9139
:1021E0000F900FBE0F901F9018958FB7F894209105
:1021F000C2043091C3044091C4045091C5048FBF00
:10220000B901CA010895EF92FF920F931F937B01CA
:102210008C018FB7F8944091C2045091C30460912F
:10222000C4047091C5048FBF2FB7F8948091C20485
:102230009091C304A091C404B091C5042FBF841B26
:10224000950BA60BB70BE816F9060A071B0760F7F4
:102250001F910F91FF90EF900895019759F0FC01A5
:10226000EE0FFF1FEE0FFF1F32978FB7F8943197D5
:10227000F1F78FBF0895789484B5826084BD84B5EA
:10228000816084BD85B5826085BD85B5816085BD71
:10229000EEE6F0E0808181608083E1E8F0E080811B
:1022A00082608083808181608083E0E8F0E08081CB
:1022B00081608083E1EBF0E0808184608083E0EBEB
:1022C000F0E0808181608083EAE7F0E080818460D3
:1022D000808380818260808380818160808380812F
:1022E000806880831092C1000895282F30E0C901D2
:1022F000815B9E4FFC019491255C3E4FF9018491D6
:10230000882391F0E82FF0E0EE0FFF1FE35EFE4F11
:10231000A591B491662329F48C91909589238C938F
:1023200008958C91892B8C930895482F50E0CA0111
:102330008D599E4FFC012491CA01815B9E4FFC0187
:102340009491455C5E4FFA0134913323D1F12223FD
:1023500031F1233021F4809180008F7705C0243043
:1023600031F4809180008F7D8093800018C02130EF
:1023700019F484B58F7704C0223021F484B58F7DA1
:1023800084BD0DC0263021F48091B0008F7705C048
:10239000273029F48091B0008F7D8093B000E32F27
:1023A000F0E0EE0FFF1FE95DFE4FA591B4916623AB
:1023B00029F48C91909589238C9308958C91892B85
:1023C0008C930895682F70E0CB018D599E4FFC01CE
:1023D0002491CB01815B9E4FFC014491655C7E4F53
:1023E000FB019491992319F420E030E038C02223B6
:1023F00031F1233021F4809180008F7705C02430A3
:1024000031F4809180008F7D8093800018C021304E
:1024100019F484B58F7704C0223021F484B58F7D00
:1024200084BD0DC0263021F48091B0008F7705C0A7
:10243000273029F48091B0008F7D8093B000892FE0
:1024400090E0880F991F8F5C9E4FFC01A591B4917D
:102450008C9120E030E0842311F021E030E0C901CC
:1024600008955058BB27AA270ED075C166D130F009
:102470006BD120F031F49F3F11F41EF45BC10EF4D8
:10248000E095E7FB51C1E92F77D180F3BA176207D6
:1024900073078407950718F071F49EF58FC10EF449
:1024A000E0950B2EBA2FA02D0B01B90190010C0164
:1024B000CA01A0011124FF27591B99F0593F50F47C
:1024C000503E68F11A16F040A22F232F342F4427D4
:1024D000585FF3CF469537952795A795F0405395CC
:1024E000C9F77EF41F16BA0B620B730B840BBAF09C
:1024F0009150A1F0FF0FBB1F661F771F881FC2F707
:102500000EC0BA0F621F731F841F48F4879577951A
:102510006795B795F7959E3F08F0B3CF9395880FD1
:1025200008F09927EE0F979587950895D9D008F46C
:1025300081E008950CD00FC107D140F0FED030F0FB
:1025400021F45F3F19F0F0C0511139C1F3C014D12B
:1025500098F39923C9F35523B1F3951B550BBB276A
:10256000AA2762177307840738F09F5F5F4F220F17
:10257000331F441FAA1FA9F333D00E2E3AF0E0E810
:1025800030D091505040E695001CCAF729D0FE2F5C
:1025900027D0660F771F881FBB1F261737074807EE
:1025A000AB07B0E809F0BB0B802DBF01FF279358A4
:1025B0005F4F2AF09E3F510568F0B6C000C15F3FF3
:1025C000ECF3983EDCF3869577956795B795F7958C
:1025D0009F5FC9F7880F911D9695879597F9089584
:1025E000E1E0660F771F881FBB1F62177307840720
:1025F000BA0720F0621B730B840BBA0BEE1F88F72F
:10260000E095089504D06894B111D9C00895BCD064
:1026100088F09F5790F0B92F9927B751A0F0D1F0CB
:10262000660F771F881F991F1AF0BA95C9F712C055
:10263000B13081F0C3D0B1E00895C0C0672F782FCA
:102640008827B85F39F0B93FCCF3869577956795C1
:10265000B395D9F73EF490958095709561957F4F2D
:102660008F4F9F4F0895E89409C097FB3EF49095D3
:102670008095709561957F4F8F4F9F4F9923A9F05B
:10268000F92F96E9BB279395F695879577956795EA
:10269000B795F111F8CFFAF4BB0F11F460FF1BC02E
:1026A0006F5F7F4F8F4F9F4F16C0882311F096E9C1
:1026B00011C0772321F09EE8872F762F05C066236F
:1026C00071F096E8862F70E060E02AF09A95660F28
:1026D000771F881FDAF7880F9695879597F90895E1
:1026E000990F0008550FAA0BE0E8FEEF1616170623
:1026F000E807F907C0F012161306E407F50798F08B
:10270000621B730B840B950B39F40A2661F0232BA3
:10271000242B252B21F408950A2609F4A140A6951F
:102720008FEF811D811D089597F99F6780E870E004
:1027300060E008959FEF80EC089500240A94161637
:10274000170618060906089500240A94121613069F
:10275000140605060895092E0394000C11F488232D
:1027600052F0BB0F40F4BF2B11F460FF04C06F5F49
:102770007F4F8F4F9F4F089557FD9058440F551F1F
:1027800059F05F3F71F04795880F97FB991F61F0F3
:102790009F3F79F087950895121613061406551F6A
:1027A000F2CF4695F1DF08C0161617061806991FD6
:1027B000F1CF86957105610508940895E894BB27CB
:1027C00066277727CB0197F908950BD0C4CFB5DFE3
:1027D00028F0BADF18F0952309F0A6CFABCF11246B
:1027E000EECFCADFA0F3959FD1F3950F50E0551FB0
:1027F000629FF001729FBB27F00DB11D639FAA2756
:10280000F00DB11DAA1F649F6627B00DA11D661FA4
:10281000829F2227B00DA11D621F739FB00DA11DC5
:10282000621F839FA00D611D221F749F3327A00D7F
:10283000611D231F849F600D211D822F762F6A2F1B
:1028400011249F5750408AF0E1F088234AF0EE0FA0
:10285000FF1FBB1F661F771F881F91505040A9F7AD
:102860009E3F510570F060CFAACF5F3FECF3983EDA
:10287000DCF3869577956795B795F795E7959F5F14
:10288000C1F7FE2B880F911D9695879597F90895AE
:10289000629FD001739FF001829FE00DF11D649F44
:1028A000E00DF11D929FF00D839FF00D749FF00DD0
:1028B000659FF00D9927729FB00DE11DF91F639F71
:1028C000B00DE11DF91FBD01CF011124089597FB43
:1028D000092E07260AD077FD04D049D006D0002063
:1028E0001AF4709561957F4F0895F6F7909581954C
:1028F0009F4F0895A1E21A2EAA1BBB1BFD010DC01C
:10290000AA1FBB1FEE1FFF1FA217B307E407F5079F
:1029100020F0A21BB30BE40BF50B661F771F881F7B
:10292000991F1A9469F760957095809590959B0111
:10293000AC01BD01CF01089597FB092E05260ED0ED
:1029400057FD04D0D7DF0AD0001C38F450954095CD
:10295000309521953F4F4F4F5F4F0895F6F7909573
:102960008095709561957F4F8F4F9F4F0895AA1B5B
:10297000BB1B51E107C0AA1FBB1FA617B70710F06A
:10298000A61BB70B881F991F5A95A9F7809590959C
:10299000BC01CD010895EE0FFF1F0590F491E02DCD
:0629A0000994F894FFCF3A
:1029A600456E7465722073746172742064656C611F
:1029B6007920696E206D696E75746573202D207897
:1029C600787820287061642066726F6E742077694B
:1029D6007468207A65726F65732900737461727406
:1029E6002064656C61792073657420746F20002003
:1029F6006D696E75746528732900456E746572205D
:102A0600746865206C6F6767696E6720696E7465A8
:102A16007276616C20696E206D696E7574657320BF
:102A26002D2078787820287061642066726F6E7425
:102A36002077697468207A65726F657329004C6F18
:102A46006767696E6720696E74657276616C20735C
:102A5600657420746F20003A00456E7465722074A8
:102A6600696D65202D2068686D6D0020006C6F67AC
:102A760067696E6720737461727465642061743A65
:102A8600200009696E74657276616C203D2000092C
:102A960064657669636520636F756E7420284545A5
:102AA60070726F6D20706F736974696F6E20332951
:102AB600203D20002D002C000900636F756E7409FF
:102AC6006164647265737300204800204C003D3ECB
:102AD600006D656D6F72792066756C6C2E2073744F
:102AE6006F707065642061742061646472657373CD
:102AF6003A006C6F6767696E6720646973636F6E0F
:102B060074696E756564002C2000480043002D2D05
:102B16002D2D2D456E746572207320746F2073659C
:102B2600742074696D652C206D20746F2073657434
:102B360020696E74657276616C286D696E75746550
:102B460073292C206420746F20646973706C61791A
:102B56002073797374656D20696E666F20287469B9
:102B66006D652C20696E74657276616C2C207465B7
:102B76006D706572617475726573202E2E2E2C0031
:102B860020202020204420746F20736574207374E5
:102B96006172742064656C61792C207420746F20D6
:102BA600746573742C204C20746F20626567696E9F
:102BB600206C6F6767696E672C204F20746F206FDB
:102BC600757470757420454550524F4D00696E748A
:102BD600657276616C2069732073657420746F204A
:102BE60000206D696E757465732E202053746172B2
:102BF600742064656C61792069732000206D696EAC
:102C0600757465732E0074727920616761696E0050
:102C16004C4344207365747570006465766963651A
:102C260020636F756E7420697320002A2A2A2A2A67
:102C36002A2A2A2A2A2A2A2A2A2A2A2A2A002E003E
:102C46000D000B00010002001F1C1F1E1F1E1F1F70
:0E2C56001E1F1E1F05373705000000006D0E03
:00000001FF
