:100000000C94C0000C94E8000C94E8000C94E800F8
:100010000C94E8000C94E8000C94E8000C94E800C0
:100020000C94E8000C94E8000C94E8000C94E800B0
:100030000C94E8000C94E8000C94E8000C94E800A0
:100040000C94990E0C94E8000C94930B0C94E8001B
:100050000C94E8000C94E8000C94E8000C94E80080
:100060000C94E8000C94E8004A616E7561727900A6
:100070004665627275617279004D61726368004114
:100080007072696C004D6179004A756E65004A7541
:100090006C79004175677573740053657074656D94
:1000A000626572004F63746F626572004E6F7665B1
:1000B0006D62657200446563656D6265720068001B
:1000C000700079007F00850089008E0093009A00FF
:1000D000A400AC00B50053756E646179004D6F6E7D
:1000E0006461790054756573646179005765646E65
:1000F0006573646179005468757273646179004650
:10010000726964617900536174757264617900D6B3
:1001100000DD00E400EC00F600FF00060100000036
:1001200000240027002A0000000000250028002BE2
:100130000000000000230026002900040404040439
:100140000404040202020202020303030303030184
:10015000020408102040800102040810200102045B
:100160000810200000000700020100000304060040
:100170000000000000000000E4016C02EF04940C99
:1001800011241FBECFEFD8E0DEBFCDBF13E0A0E04B
:10019000B1E0EEECF5E202C005900D92A03BB10794
:1001A000D9F714E0A0EBB3E001C01D92AC3AB1075F
:1001B000E1F711E0C0E8D1E004C02297FE010E94FF
:1001C000E112C837D107C9F70E948C0B0C94E512D5
:1001D0000C940000FB01DC0105900D920020E1F77A
:1001E00008952F923F924F925F926F927F928F92DB
:1001F0009F92AF92BF92CF92DF92EF92FF920F93B6
:100200001F93DF93CF9300D000D0CDB7DEB7FB01B3
:100210003A0129011801FA82E982BC82AB825401B9
:10022000E080F18002811381C801B7012CE330E046
:1002300040E050E00E94B012D3016C93C801B701B6
:100240002CE330E040E050E00E94B012122F032F68
:10025000F42EE52E622F732F842F952F2CE330E0A0
:1002600040E050E00E94B012F2016083612F702FD5
:100270008F2D9E2D2CE330E040E050E00E94B01224
:10028000122F032FF42EE52E622F732F842F952F1C
:1002900028E130E040E050E00E94B012D1016C93C0
:1002A000612F702F8F2D9E2D28E130E040E050E02F
:1002B0000E94B01279018A01C801B7016C5F7F4FBB
:1002C0008F4F9F4F27E030E040E050E00E94B01297
:1002D000F6016083E6E420E030E040E050E001C059
:1002E000EF5F6E2F70E0637070706115710529F01B
:1002F0008DE691E0A0E0B0E004C08EE691E0A0E0E1
:10030000B0E0280F391F4A1F5B1FC901A0E0B0E011
:10031000E816F9060A071B071CF7D501EC936115CF
:10032000710529F48EE691E0A0E0B0E004C08DE60E
:1003300091E0A0E0B0E0281B390B4A0B5B0BD80121
:10034000C701821B930BA40BB50B9C01AD01EAE91D
:10035000F3E090E0913039F46115710511F08CE112
:1003600003C08DE101C08081E82EFF2400E010E091
:100370002E153F054007510744F02E193F09400B49
:10038000510B9F5F31969C3029F7AB81BC819C93C8
:10039000822F8F5FE981FA8180830F900F900F90F9
:1003A0000F90CF91DF911F910F91FF90EF90DF9011
:1003B000CF90BF90AF909F908F907F906F905F9005
:1003C0004F903F902F9008951092B9031092B80368
:1003D0000895CF93DF93EC0113C088819981AA819E
:1003E000BB810196A11DB11D88839983AA83BB831C
:1003F00028513C4F4F4F5F4F2C833D834E835F838B
:100400000E94090F2C813D814E815F81621B730B1D
:10041000840B950B685E734080409040F0F66881D5
:1004200079818A819B81DF91CF9108958F929F92EC
:10043000AF92BF92CF92DF92EF92FF920F931F93F2
:10044000CF93DF93EC0188859985892B11F480E0A7
:1004500020C0CE010E94E9019E01255F3F4F8E0121
:10046000065F1F4FFE013D96DE011E969FE0A92EFE
:10047000B12CAC0EBD1E80E1882E912C8C0E9D1EE1
:10048000CE01BE012C96AE017F016D010E94F100EC
:1004900081E0DF91CF911F910F91FF90EF90DF905E
:1004A000CF90BF90AF909F908F9008950F931F9320
:1004B0008C01FC0140835183628373830E94090F86
:1004C000F801648375838683978382E090E0918747
:1004D00080871F910F9108951092CA0308950F937A
:1004E0001F93182F092FE62FF0E0EE0FFF1FE15F9B
:1004F000FE4F65917491812F0E94EA00812F902F09
:100500001F910F9108950F931F93182F092FE62F16
:10051000F0E0EE0FFF1FE254FF4F65917491902FB2
:100520000E94EA00812F902F1F910F910895F99951
:10053000FECF72BD61BDF89A80B50895F999FECFDE
:100540001FBA72BD61BD40BD0FB6F894FA9AF99A10
:100550000FBE0895DC011A966C931A97462F50E04F
:10056000CA01855C9E4FFC0124911B962C931B971E
:10057000415B5E4FFA0184911C968C931C9730E08E
:10058000220F331FF901E95DFE4F859194911E966C
:100590009C938E931D97F901EF5CFE4F859194918A
:1005A00050969C938E931F97F901E35EFE4F8591C1
:1005B000949152969C938E9351978FEF18968C93AB
:1005C000189719961C92199787E0FD01E80FF11D05
:1005D0001082882311F08150F8CF0895DC018FEF4D
:1005E00018968C93189719961C92199787E0FD011D
:1005F000E80FF11D1082882311F08150F8CF089583
:10060000FF920F931F938C01DC015196ED91FC91A9
:10061000529780811C969C911C97892B80831D96F4
:10062000ED91FC911E9790811C968C918095892369
:10063000808381E090E00E94410FD8015196ED91B6
:10064000FC91529790811C968C9180958923808390
:1006500085E090E00E94410FD8011F96ED91FC913A
:1006600050972081FF2430E01C968C9190E0282345
:100670003923232B11F0FF24F39482E390E00E94AE
:10068000410F8F2D1F910F91FF900895EF92FF92D0
:100690000F931F93CF93DF937C0101E010E0C0E044
:1006A000D0E0C7010E9400038111102B000F21969A
:1006B000C830D105B1F7812FDF91CF911F910F91F4
:1006C000FF90EF900895EF92FF920F931F937C019C
:1006D000062FDC015196ED91FC91529780811C967A
:1006E0009C911C97892B80831D96ED91FC911E9700
:1006F00090811C968C91809589238083017010E0F5
:10070000F801E855FC4F808190E00E94410FD7012D
:100710001D96ED91FC911E9780811C969C91892BD2
:1007200080830A551C4FF801808190E00E94410FA0
:100730001F910F91FF90EF900895CF92DF92EF926B
:10074000FF920F931F93CF93DF938C01E42EFF242E
:10075000F394C0E0D0E0C62EDD2460E08F2D90E061
:100760008C219D21892B09F061E0C8010E9463035F
:10077000FF0C2196C830D10581F7EE2051F4F80125
:10078000828560E00E94890FF801828560E00E9406
:10079000A90FDF91CF911F910F91FF90EF90DF9004
:1007A000CF900895EF92FF920F931F93CF93DF9313
:1007B0008C017B0165E540E00E949D03C0E0D0E034
:1007C000F701EC0FFD1FC801608140E00E949D030E
:1007D0002196C830D105A1F7DF91CF911F910F91DC
:1007E000FF90EF9008951F93CF93DF93EC018A85DC
:1007F00060E00E94890F1DE7115010F410E028C03E
:1008000082E090E00E94410F8A850E94F60F892BBA
:1008100099F38A8560E00E94A90F8A8561E00E94B1
:10082000890F84EF91E00E94410F8A8560E00E9469
:10083000890F81E490E00E94410F8A850E94F60FA3
:1008400010E0892B09F411E08AEE91E00E94410F3B
:10085000812FDF91CF911F9108958F929F92AF9238
:10086000BF92DF92EF92FF920F931F93CF93DF938C
:10087000EC015B018985882309F080C0CE010E94CC
:10088000F303882309F47AC0CE0160EF40E00E94B0
:100890009D03DD24DA94EE24E39400E010E021E0EF
:1008A000822E912CCE010E940003F82ECE010E94D0
:1008B0000003282F502F569556955695C8018770DE
:1008C0009070B40102C0660F771F8A95E2F7462F39
:1008D000FF2029F0222309F051C09F2D21C022239F
:1008E00039F58885992787FD90950817190711F420
:1008F000D8860EC0081719076CF4262F30E0FE01C9
:10090000E50FF11D808190E028233923232B19F076
:1009100091E003C0088790E0EE24D02E992341F0A7
:10092000FE01E50FF11D8081842B8083F92E07C025
:10093000FE01E50FF11D4095808148234083CE01E3
:100940006F2D0E9463030F5F1F4F0034110509F0E4
:10095000A9CFEE2011F081E0898720E030E0F50199
:10096000E20FF31FDE01A20FB31F8C9180832F5F74
:100970003F4F2830310599F781E001C080E0DF91D9
:10098000CF911F910F91FF90EF90DF90BF90AF90AC
:100990009F908F9008959C0164E070E00E947B120C
:1009A000AB01B901660F771F620F731F660F771FC8
:1009B000640F751F882777FD8095982F0E94491135
:1009C0006093D7037093D8038093D9039093DA038D
:1009D00020E030E048EC52E40E94AE10089580EF31
:1009E00093E06AE00E94AA0208958EE894E00E94D3
:1009F000390C8823D1F38EE894E00E944D0C982F97
:100A000080538A3030F4292F332727FD3095205327
:100A10003040C9010895AF92BF92CF92DF92EF921A
:100A2000FF920F931F935C016EE8C62E64E0D62EF2
:100A3000C60160E071E00E94120D0E94F5049C0165
:100A40008C0153E0000F111F5A95E1F7220F331F5D
:100A5000020F131F0E94F504080F191F780133E0DD
:100A6000EE0CFF1C3A95E1F7000F111FE00EF11E8E
:100A70000E94F504E80EF91EF501F182E082C6013C
:100A80006BE371E00E94D30CF50160817181C601B6
:100A90000E94B90DC6016FE471E00E94120D81E061
:100AA0001F910F91FF90EF90DF90CF90BF90AF908C
:100AB0000895AF92BF92CF92DF92EF92FF920F9381
:100AC0001F935C01BEE8CB2EB4E0DB2EC6016AE5C5
:100AD00071E00E94120D0E94F5049C018C01A3E0BC
:100AE000000F111FAA95E1F7220F331F020F131FEA
:100AF0000E94F504080F191F7801E3E0EE0CFF1CBB
:100B0000EA95E1F7000F111FE00EF11E0E94F504B7
:100B1000E80EF91EF501F182E082C6016EE971E08E
:100B20000E94D30CF50160817181C6010E94B90D4C
:100B3000C6016FE471E00E94120D81E01F910F91D8
:100B4000FF90EF90DF90CF90BF90AF9008951F93EC
:100B5000182F8EE894E067EB71E00E94D30C1A30F6
:100B600028F48EE894E060E30E94CB0C412F50E023
:100B700060E070E08EE894E02AE030E00E94EE0D44
:100B80001F910895AF92BF92CF92DF92EF92FF92A2
:100B90000F931F938EE894E069EB71E00E94120DB1
:100BA0000E94F504AA2797FDA095BA2FBC01CD019C
:100BB0002AE030E040E050E00E945C127B018C01B2
:100BC0000E94F504AA2797FDA095BA2FE80EF91EFA
:100BD0000A1F1B1F88E1E816F1040105110508F042
:100BE00053C00E94F504AA2797FDA095BA2FBC0117
:100BF000CD012AE030E040E050E00E945C125B0151
:100C00006C010E94F504AA2797FDA095BA2FA80EA3
:100C1000B91ECA1EDB1E9CE3A916B104C104D1048F
:100C200098F58EE894E0B801A7010E94BF0D8A2DC7
:100C30000E94A7058EE894E00E94EB0CC801B70162
:100C400020E13EE040E050E00E945C127B018C011C
:100C500080E893E4ADE6B8E3E80EF91E0A1F1B1F17
:100C6000C601B5012CE330E040E050E00E945C1288
:100C7000E60EF71E081F191F80EB93E0B801A701CD
:100C80000E94560281E001C080E01F910F91FF9009
:100C9000EF90DF90CF90BF90AF900895CF93DF9308
:100CA000C8EED3E0499150E060E070E08EE894E057
:100CB00020E130E00E94EE0D83E0C03FD80791F7BD
:100CC000DF91CF910895CF92DF92EF92FF920F9331
:100CD0001F9380EB93E00E9416020EE814E040910F
:100CE000BA0350E060E070E0C8012AE030E00E9402
:100CF000EE0D8091BB030E94A7058091BC030E946A
:100D0000A7059BECE92E91E0F92EC801B7010E94DE
:100D1000D30C81ECC82E83E0D82EC6016091BE03AF
:100D20000E946F02BC01C8010E94D30CC801B70128
:100D30000E94D30CC6016091BF030E948302BC01D4
:100D4000C8010E94D30CC801B7010E94D30C409186
:100D5000BD0350E060E070E0C8012AE030E00E948E
:100D6000030E1F910F91FF90EF90DF90CF900895A9
:100D7000CF93DF93C0E0D0E08BEC93E0BE010E9404
:100D80009702482F50E060E070E08EE894E020E0A9
:100D900030E00E94EE0D219682E0C030D80761F766
:100DA0008EE894E00E94EB0CDF91CF9108958EE8DD
:100DB00094E00E94390C8823D1F38EE894E00E94DD
:100DC0004D0C813639F40E94B8068EE894E00E94FA
:100DD000750CEDCF08954F925F926F927F928F9234
:100DE0009F92AF92BF92CF92DF92EF92FF920F93BA
:100DF0001F93CF93DF938EE894E06DEC71E00E9437
:100E0000D30C8BEC93E060E070E00E949702482FD7
:100E100050E060E070E08EE894E02AE030E00E946C
:100E2000EE0D8EE894E067EB71E00E94D30C8BEC42
:100E300093E061E070E00E949702482F50E060E08C
:100E400070E08EE894E02AE030E00E94EE0D8EE83B
:100E500094E062EE71E00E94D30C8BEC93E062E0D0
:100E600070E00E949702482F50E060E070E08EE84A
:100E700094E02AE030E00E94EE0D8EE894E06FEE00
:100E800071E00E94D30C8BEC93E063E070E00E9471
:100E90009702482F50E060E070E08EE894E02AE08E
:100EA00030E00E94030E64E070E074C0B601A5015A
:100EB000440D551D661D771D8EE894E02AE030E054
:100EC0000E94EE0D8EE894E064E172E00E94D30C83
:100ED0008E018BEC93E0BE010E949702E82EFF2466
:100EE000A701662757FD6095762F8EE894E020E1F4
:100EF00030E00E94EE0D8EE894E06BEC71E00E9411
:100F0000D30C22960F5F1F4F8BEC93E0B8010E9429
:100F10009702082F10E0A801662757FD6095762FED
:100F20008EE894E020E130E00E94EE0D8EE894E03F
:100F300066E172E00E94D30CFE2CEE24C701800F04
:100F4000911F0E94CB04AB01BC018EE894E00E948B
:100F5000950E8EE894E068E172E00E94D30C08944C
:100F6000811C911C82E090E0A0E0B0E0A80EB91EC8
:100F7000CA1EDB1E8091CC0390E0881699060CF403
:100F800095CF8EE894E00E94EB0C91E0CF3FD9071B
:100F90006CF4BE01EB0188249924AA24BB246501CA
:100FA0002B01662457FC6094762CE4CF8EE894E005
:100FB0000E94EB0CDF91CF911F910F91FF90EF906A
:100FC000DF90CF90BF90AF909F908F907F906F9069
:100FD0005F904F9008951F938EE894E06AE172E06D
:100FE0000E94120D10E017C01F5F412F50E060E01B
:100FF00070E08EE894E02AE030E00E94EE0D8EE88A
:1010000094E068E172E00E94D30C0E944E068EE8E4
:1010100094E00E94EB0C80EF93E068EE73E00E9496
:101020002D04882309F7812F1F910895CF93DF9313
:10103000C4E0D0E08BEC93E0BE0140E00E949E0251
:10104000219682E0C030D807A9F710920904DF91F9
:10105000CF91089580EB93E00E941602882379F0E7
:101060008BEC93E060E070E04091BA030E949E0236
:101070008BEC93E061E070E04091BB030CC08BEC23
:1010800093E060E070E04FEF0E949E028BEC93E0F3
:1010900061E070E04FEF0E949E028BEC93E062E013
:1010A00070E04091CD030E949E028BEC93E063E0E0
:1010B00070E04091CC030E949E0208954F925F928F
:1010C0006F927F928F929F92AF92BF92CF92DF9258
:1010D000EF92FF920F931F93DF93CF93CDB7DEB7BD
:1010E000A7970FB6F894DEBF0FBECDBF8E010B5E83
:1010F0001F4FC8016AE00E94AA02C8010E94EE02C6
:10110000AA2468014E010894811C911C59E0452EC7
:10111000512C4C0E5D1E42E1642E712C6C0E7D1E16
:10112000CCC0C601B4010E942D04C6010E94F30385
:10113000C601B4010E94D203C60164E441E00E94EA
:101140009D0368EE73E080E090E00E94170FC601F7
:101150000E94F303C601B4010E94D203C6016EEBE4
:1011600040E00E949D038201C6010E944603F801EF
:1011700081938F01E615F705B9F7B9844A85609127
:10118000070470910804F1E06F3F7F070CF07BC00B
:10119000EB2CFF24042F10E08BEC93E00E949E02C6
:1011A0004091070450910804662757FD6095762FFB
:1011B0008EE894E02AE030E00E94EE0D8EE894E0A4
:1011C00068E272E00E94D30CA801662757FD609583
:1011D000762F8EE894E020E130E00E94EE0D6091E1
:1011E0000704709108046F5F7F4F70930804609349
:1011F00007048BEC93E04B2D0E949E024091070464
:1012000050910804662757FD6095762F8EE894E08C
:101210002AE030E00E94EE0D8EE894E06BE272E08E
:101220000E94D30CA701662757FD6095762F8EE8A4
:1012300094E020E130E00E94EE0D8EE894E06BEC4B
:1012400071E00E94D30C8EE894E06EE272E00E949E
:10125000D30C102F00270E0D1F1D8EE894E0B8014F
:101260000E94E60D8EE894E068E172E00E94D30CE3
:10127000809107049091080401969093080480934C
:101280000704A3941AC081E0809309048EE894E0D7
:1012900061E372E00E94D30C40910704509108046E
:1012A00041505040662757FD6095762F8EE894E0B8
:1012B0002AE030E00E94030E05C08091CC03A816FE
:1012C00008F42FCF8EE894E00E94EB0CA7960FB69F
:1012D000F894DEBF0FBECDBFCF91DF911F910F916C
:1012E000FF90EF90DF90CF90BF90AF909F908F9046
:1012F0007F906F905F904F900895FF920F931F9390
:10130000CF93DF9380EF93E00E94EE02FF24BBC0F7
:1013100080EF93E068EE73E00E942D044F2D50E0C3
:1013200060E070E08EE894E02AE030E00E94EE0D8C
:101330008EE894E064E172E00E94D30C0E944E06B5
:101340008EE894E062E572E00E94D30C80EF93E0B7
:101350000E94F30380EF93E068EE73E00E94D203F3
:1013600080EF93E064E441E00E949D0368EE73E047
:1013700080E090E00E94170F80EF93E00E94F3035B
:101380008093DB0380EF93E068EE73E00E94D2036A
:1013900080EF93E06EEB40E00E949D03CCEDD3E044
:1013A00080EF93E00E944603899383E0C53ED8070F
:1013B000B9F78091DC0390E09093D4038093D3033A
:1013C0002091DD032093D1031092D203122F00E06D
:1013D000800F911F9093D6038093D5038EE894E0FD
:1013E00065E572E00E94D30C4091D1035091D20385
:1013F000662757FD6095762F8EE894E020E130E077
:101400000E94EE0D8EE894E06BE272E00E94D30C35
:101410004091D3035091D403662757FD6095762FF2
:101420008EE894E020E130E00E94EE0D8EE894E03A
:101430006EE272E00E94D30C6091D5037091D603E6
:101440008EE894E00E94E60D8EE894E06BEC71E08B
:101450000E94D30C8091D5039091D6030E94CB04B7
:10146000AB01BC018EE894E00E94950E8EE894E0FA
:1014700067E572E00E94D30C8EE894E068E172E0C8
:101480000E94D30CF3948091CC03F81608F440CF5B
:101490008EE894E00E94EB0CDF91CF911F910F91A9
:1014A000FF900895EF92FF920F931F930E94090FF0
:1014B0007B018C018091030490910404A0910504A8
:1014C000B0910604E81AF90A0A0B1B0B6091CD03D0
:1014D0007091CE0380E090E020E63AEE40E050E0EC
:1014E0000E945C126E157F058007910710F080E066
:1014F0000BC00E94090F609303047093040480934F
:1015000005049093060481E01F910F91FF90EF90E6
:1015100008958091960361E00E94A90F84E090E015
:1015200090930804809307040E942A080E941608DA
:101530008EE894E00E94750C6091CF037091D00307
:1015400080E090E020E63AEE40E050E00E945C123D
:101550000E94170F0AC00E94520A882311F00E94AD
:101560005E0880910904882331F48EE894E00E949B
:10157000390C882381F38EE894E069E572E00E94DB
:10158000120D8EE894E00E94750C8091960360E045
:101590000E94A90F08951F938EE894E06EE672E012
:1015A0000E94120D8EE894E060EE72E00E94120D2F
:1015B0008EE894E00E94390C8823D1F38EE894E001
:1015C0000E944D0C182F8EE894E0612F0E94020DAE
:1015D000133719F40E94C2052FC0143639F50E9442
:1015E00063068EE894E06DE273E00E94D30C609194
:1015F000CD037091CE038EE894E00E94B90D8EE881
:1016000094E061E473E00E94D30C6091CF03709189
:10161000D0038EE894E00E94B90D8EE894E06CE56A
:1016200073E00E94120D0E947D0922C0143439F427
:101630008FEC93E00E940B058823D9F019C01D366A
:1016400029F48DEC93E00E945905F6CF1C3419F46F
:101650000E94890A0DC01F3419F40E94EB0608C0CD
:10166000143711F080E005C00E947D090E945E08D9
:1016700081E01F9108950E94CB0A882381F48EE8AF
:1016800094E066E673E00E94120D8EE894E00E94FA
:10169000750C64E670E080E090E00E94170F0895FA
:1016A0000F931F930EE814E0C80140E855E260E094
:1016B00070E00E94D00B0E94D70680EB93E040E8D8
:1016C00053E46DE678E30E9456020E94630680911F
:1016D000960361E00E94890F8091980361E00E9467
:1016E000890F0E94EB078093CC03C80160E773E089
:1016F0000E94D30C4091CC0350E060E070E0C80140
:101700002AE030E00E94030EC80161E873E00E9405
:10171000120D1F910F9108950E944F0F0E94500BC0
:101720000E943B0BFDCF1F920F920FB60F92112418
:101730002F933F934F935F936F937F938F939F93D9
:10174000AF93BF93EF93FF934091C600E0918A045B
:10175000F0918B04CF01019660E870E00E947B124B
:101760009C0180918C0490918D042817390739F0E1
:10177000E65FFB4F408330938B0420938A04FF91F4
:10178000EF91BF91AF919F918F917F916F915F91F9
:101790004F913F912F910F900FBE0F901F90189572
:1017A000AF92BF92CF92DF92EF92FF920F931F936F
:1017B000CF93DF936C017A018B01DC011496AD901D
:1017C000BC901597CB01BA0122E030E040E050E038
:1017D0000E94B012205C3D4B404F5F4FCA01B901DF
:1017E000A80197010E94B012C901DA010197A1096D
:1017F000B109292F3A2F4B2F552747FD5A950196AE
:10180000A11DB11DE5012883E601EE81FF81815014
:101810008083EA85FB85208141E050E0CA010E8487
:1018200002C0880F991F0A94E2F7282B2083EA85CB
:10183000FB852081CA010F8402C0880F991F0A947A
:10184000E2F7282B2083EA85FB858081088802C087
:10185000440F551F0A94E2F7842B8083DF91CF91C8
:101860001F910F91FF90EF90DF90CF90BF90AF90BE
:101870000895DC011296ED91FC911397E058FF4F0B
:101880008191919180589F4F20813181821B930BD0
:1018900060E870E00E947B120895CF93DF93DC0133
:1018A0001296ED91FC911397EF01CE57DF4F4881CF
:1018B0005981E058FF4F80819181E058F0408417B2
:1018C000950719F42FEF3FEF0CC0E40FF51F2081AF
:1018D000CA01019660E870E00E947B1299838883B8
:1018E00030E0C901DF91CF910895DC011296ED91AE
:1018F000FC911397EE57FF4F8081918192938293D1
:101900000895FC01A085B18521898C9190E0022E7B
:1019100002C0959587950A94E2F780FFF6CF04847C
:10192000F585E02D608308958EEA93E090938F040F
:1019300080938E048AE094E09093910480939004C5
:1019400085EC90E0909393048093920484EC90E073
:10195000909395048093940480EC90E09093970486
:101960008093960481EC90E090939904809398047E
:1019700086EC90E090939B0480939A0484E080939B
:101980009C0483E080939D0487E080939E0485E01F
:1019900080939F040895DC01ED91FC910190F0810A
:1019A000E02D099508950F931F93CF93DF938C013A
:1019B000EB0109C02196D801ED91FC910190F081D5
:1019C000E02DC801099568816623A1F7DF91CF91C9
:1019D0001F910F9108950F931F938C01DC01ED91DE
:1019E000FC910190F081E02D6DE00995D801ED9119
:1019F000FC910190F081E02DC8016AE009951F91EA
:101A00000F9108950F931F938C01DC01ED91FC91D0
:101A10000190F081E02D0995C8010E94EB0C1F9107
:101A20000F9108950F931F938C010E94D30CC8014E
:101A30000E94EB0C1F910F9108952F923F924F92AD
:101A40005F926F927F928F929F92AF92BF92CF924E
:101A5000DF92EF92FF920F931F93DF93CF93CDB757
:101A6000DEB7A0970FB6F894DEBF0FBECDBF1C0146
:101A70006A017B01411551056105710549F4DC01DD
:101A8000ED91FC910190F081E02D60E3099554C047
:101A9000882499245401422E55246624772401E099
:101AA00010E00C0F1D1F080D191DC701B601A30181
:101AB00092010E948E12F80160830894811C911C8F
:101AC000A11CB11CC701B601A30192010E948E1294
:101AD000C901DA016C017D01C114D104E104F104F2
:101AE000F1F681E0E82EF12CEC0EFD1EE80CF91C5D
:101AF0003E010894611C711CD501C4010197A10924
:101B0000B1096C01C818D90814C0F601EE0DFF1D0B
:101B100060816A3010F4605D01C0695CD101ED91B3
:101B2000FC910190F081E02DC10109950894E10834
:101B3000F1086E147F0449F7A0960FB6F894DEBF43
:101B40000FBECDBFCF91DF911F910F91FF90EF900E
:101B5000DF90CF90BF90AF909F908F907F906F90CD
:101B60005F904F903F902F9008952AE00E941D0DA6
:101B70000895AB0160E070E00E94B50D0895EF920A
:101B8000FF920F931F93CF93DF93EC017A018B01A8
:101B900077FF0FC0E881F9810190F081E02D6DE2BF
:101BA000099510950095F094E094E11CF11C011D3D
:101BB000111DCE01B801A7012AE00E941D0DDF9181
:101BC000CF911F910F91FF90EF900895AB01662781
:101BD00057FD6095762F0E94BF0D0895DC012115F9
:101BE000310541F4ED91FC910190F081E02D642FDD
:101BF000099508952A30310519F40E94BF0D089502
:101C00000E941D0D08950F931F938C010E94EE0DED
:101C1000C8010E94EB0C1F910F9108959F92AF9203
:101C2000BF92CF92DF92EF92FF920F931F93CF93C9
:101C3000DF93EC017A018B01922ECB01BA0120E0F7
:101C400030E040E050E00E94AA10882364F4E8816C
:101C5000F9810190F081E02DCE016DE2099517FB2D
:101C6000109517F9109520E030E040E05FE3AA24DA
:101C70000BC0CA01B90120E030E040E251E40E940B
:101C8000AE109B01AC01A394A91498F3C801B7014D
:101C90000E9446105B016C010E941B117B018C01AC
:101CA000CE01B801A7010E94B50D992029F0CE01FF
:101CB00064E973E00E94D30CC801B7010E94471188
:101CC0009B01AC01C601B5010E94451020C020E077
:101CD00030E040E251E40E94F9117B018C010E9446
:101CE00016115B016C01CC24B7FCC094DC2CCE0136
:101CF000B601A5010E94BF0DC601B5010E944911A0
:101D00009B01AC01C801B7010E9445109A9499202B
:101D1000F1F6DF91CF911F910F91FF90EF90DF903F
:101D2000CF90BF90AF909F90089522E00E940E0E3A
:101D300008951F920F920FB60F9211242F938F9335
:101D40009F93AF93BF938091A0049091A104A09121
:101D5000A204B091A3040196A11DB11D8093A0041B
:101D60009093A104A093A204B093A3048091A4042F
:101D70009091A504A091A604B091A7048050904C26
:101D8000AF4FBF4F8093A4049093A504A093A604E3
:101D9000B093A70427C08091A4049091A504A091BA
:101DA000A604B091A70480589E43A040B040809301
:101DB000A4049093A504A093A604B093A7048091D3
:101DC000A8049091A904A091AA04B091AB04019633
:101DD000A11DB11D8093A8049093A904A093AA0407
:101DE000B093AB048091A4049091A504A091A604A3
:101DF000B091A70481589E43A040B04060F6BF91C7
:101E0000AF919F918F912F910F900FBE0F901F90C8
:101E100018958FB7F8942091A8043091A9044091A7
:101E2000AA045091AB048FBFB901CA010895EF9283
:101E3000FF920F931F937B018C018FB7F894409111
:101E4000A8045091A9046091AA047091AB048FBFBB
:101E50002FB7F8948091A8049091A904A091AA04A6
:101E6000B091AB042FBF841B950BA60BB70BE816E4
:101E7000F9060A071B0760F71F910F91FF90EF907B
:101E80000895019759F0FC01EE0FFF1FEE0FFF1FA1
:101E900032978FB7F8943197F1F78FBF0895789400
:101EA00084B5826084BD84B5816084BD85B582605F
:101EB00085BD85B5816085BDEEE6F0E080818160FD
:101EC0008083E1E8F0E080818260808380818160AE
:101ED0008083E0E8F0E0808181608083E1EBF0E0E6
:101EE000808184608083E0EBF0E08081816080838A
:101EF000EAE7F0E080818460808380818260808373
:101F00008081816080838081806880831092C1009D
:101F10000895282F30E0C901815B9E4FFC01949108
:101F2000255C3E4FF9018491882391F0E82FF0E081
:101F3000EE0FFF1FE35EFE4FA591B491662329F4D7
:101F40008C91909589238C9308958C91892B8C93F7
:101F50000895482F50E0CA018D599E4FFC012491ED
:101F6000CA01815B9E4FFC019491455C5E4FFA0172
:101F700034913323D1F1222331F1233021F48091A4
:101F800080008F7705C0243031F4809180008F7DF0
:101F90008093800018C0213019F484B58F7704C075
:101FA000223021F484B58F7D84BD0DC0263021F40C
:101FB0008091B0008F7705C0273029F48091B00060
:101FC0008F7D8093B000E32FF0E0EE0FFF1FE95DFF
:101FD000FE4FA591B491662329F48C9190958923A5
:101FE0008C9308958C91892B8C930895682F70E0C1
:101FF000CB018D599E4FFC012491CB01815B9E4FFB
:10200000FC014491655C7E4FFB019491992319F486
:1020100020E030E038C0222331F1233021F48091D8
:1020200080008F7705C0243031F4809180008F7D4F
:102030008093800018C0213019F484B58F7704C0D4
:10204000223021F484B58F7D84BD0DC0263021F46B
:102050008091B0008F7705C0273029F48091B000BF
:102060008F7D8093B000892F90E0880F991F8F5C3F
:102070009E4FFC01A591B4918C9120E030E0842327
:1020800011F021E030E0C90108955058BB27AA277C
:102090000ED075C166D130F06BD120F031F49F3F86
:1020A00011F41EF45BC10EF4E095E7FB51C1E92F7A
:1020B00077D180F3BA17620773078407950718F082
:1020C00071F49EF58FC10EF4E0950B2EBA2FA02D62
:1020D0000B01B90190010C01CA01A0011124FF27D5
:1020E000591B99F0593F50F4503E68F11A16F040D0
:1020F000A22F232F342F4427585FF3CF46953795CF
:102100002795A795F0405395C9F77EF41F16BA0B93
:10211000620B730B840BBAF09150A1F0FF0FBB1F41
:10212000661F771F881FC2F70EC0BA0F621F731F8A
:10213000841F48F4879577956795B795F7959E3FE7
:1021400008F0B3CF9395880F08F09927EE0F979575
:1021500087950895D9D008F481E008950CD00FC177
:1021600007D140F0FED030F021F45F3F19F0F0C00D
:10217000511139C1F3C014D198F39923C9F35523F0
:10218000B1F3951B550BBB27AA276217730784076A
:1021900038F09F5F5F4F220F331F441FAA1FA9F320
:1021A00033D00E2E3AF0E0E830D091505040E69512
:1021B000001CCAF729D0FE2F27D0660F771F881F73
:1021C000BB1F261737074807AB07B0E809F0BB0B62
:1021D000802DBF01FF2793585F4F2AF09E3F510586
:1021E00068F0B6C000C15F3FECF3983EDCF3869523
:1021F00077956795B795F7959F5FC9F7880F911DFC
:102200009695879597F90895E1E0660F771F881FE7
:10221000BB1F621773078407BA0720F0621B730B9A
:10222000840BBA0BEE1F88F7E095089504D06894EC
:10223000B111D9C00895BCD088F09F5790F0B92F44
:102240009927B751A0F0D1F0660F771F881F991F0B
:102250001AF0BA95C9F712C0B13081F0C3D0B1E01D
:102260000895C0C0672F782F8827B85F39F0B93F2D
:10227000CCF3869577956795B395D9F73EF490950D
:102280008095709561957F4F8F4F9F4F0895E8948B
:1022900009C097FB3EF490958095709561957F4FAE
:1022A0008F4F9F4F9923A9F0F92F96E9BB2793955C
:1022B000F695879577956795B795F111F8CFFAF46C
:1022C000BB0F11F460FF1BC06F5F7F4F8F4F9F4F9D
:1022D00016C0882311F096E911C0772321F09EE8FB
:1022E000872F762F05C0662371F096E8862F70E061
:1022F00060E02AF09A95660F771F881FDAF7880F3B
:102300009695879597F90895990F0008550FAA0B90
:10231000E0E8FEEF16161706E807F907C0F01216F8
:102320001306E407F50798F0621B730B840B950BFB
:1023300039F40A2661F0232B242B252B21F4089550
:102340000A2609F4A140A6958FEF811D811D0895ED
:1023500097F99F6780E870E060E008959FEF80EC58
:10236000089500240A9416161706180609060895FB
:1023700000240A9412161306140605060895092E61
:102380000394000C11F4882352F0BB0F40F4BF2BD0
:1023900011F460FF04C06F5F7F4F8F4F9F4F089510
:1023A00057FD9058440F551F59F05F3F71F0479506
:1023B000880F97FB991F61F09F3F79F087950895EB
:1023C000121613061406551FF2CF4695F1DF08C00A
:1023D000161617061806991FF1CF86957105610527
:1023E00008940895E894BB2766277727CB0197F9CF
:1023F00008950BD0C4CFB5DF28F0BADF18F09523CD
:1024000009F0A6CFABCF1124EECFCADFA0F3959F82
:10241000D1F3950F50E0551F629FF001729FBB27CB
:10242000F00DB11D639FAA27F00DB11DAA1F649F77
:102430006627B00DA11D661F829F2227B00DA11D2A
:10244000621F739FB00DA11D621F839FA00D611DB0
:10245000221F749F3327A00D611D231F849F600DD1
:10246000211D822F762F6A2F11249F5750408AF00A
:10247000E1F088234AF0EE0FFF1FBB1F661F771F96
:10248000881F91505040A9F79E3F510570F060CFD2
:10249000AACF5F3FECF3983EDCF38695779567957E
:1024A000B795F795E7959F5FC1F7FE2B880F911DB4
:1024B0009695879597F90895629FD001739FF001D3
:1024C000829FE00DF11D649FE00DF11D929FF00DC4
:1024D000839FF00D749FF00D659FF00D9927729FFB
:1024E000B00DE11DF91F639FB00DE11DF91FBD0186
:1024F000CF011124089597FB092E07260AD077FDF6
:1025000004D049D006D000201AF4709561957F4F11
:102510000895F6F7909581959F4F0895A1E21A2EA0
:10252000AA1BBB1BFD010DC0AA1FBB1FEE1FFF1F77
:10253000A217B307E407F50720F0A21BB30BE40BC7
:10254000F50B661F771F881F991F1A9469F760950E
:102550007095809590959B01AC01BD01CF010895C8
:1025600097FB092E05260ED057FD04D0D7DF0AD0E1
:10257000001C38F450954095309521953F4F4F4FB2
:102580005F4F0895F6F790958095709561957F4F10
:102590008F4F9F4F0895AA1BBB1B51E107C0AA1F75
:1025A000BB1FA617B70710F0A61BB70B881F991FF4
:1025B0005A95A9F780959095BC01CD010895EE0F2D
:0E25C000FF1F0590F491E02D0994F894FFCFD1
:1025CE00456E7465722073746172742064656C61FB
:1025DE007920696E206D696E75746573202D207873
:1025EE00787820287061642066726F6E7420776927
:1025FE007468207A65726F657329007374617274E2
:10260E002064656C61792073657420746F200020DE
:10261E006D696E75746528732900456E7465722038
:10262E00746865206C6F6767696E6720696E746584
:10263E007276616C20696E206D696E75746573209B
:10264E002D2078787820287061642066726F6E7401
:10265E002077697468207A65726F657329004C6FF4
:10266E006767696E6720696E74657276616C207338
:10267E00657420746F20003A00456E746572207484
:10268E00696D65202D2068686D6D0020006C6F6788
:10269E0067696E6720737461727465642061743A41
:1026AE00200009696E74657276616C203D20000908
:1026BE0064657669636520636F756E742028454581
:1026CE0070726F6D20706F736974696F6E2033292D
:1026DE00203D20002D002C000900636F756E7409DB
:1026EE006164647265737300204800204C003D3EA7
:1026FE00006D656D6F72792066756C6C2E2073742B
:10270E006F707065642061742061646472657373A8
:10271E003A002C2000480043006C6F6767696E67B3
:10272E0020646973636F6E74696E756564002D2D18
:10273E002D2D2D456E746572207320746F20736578
:10274E00742074696D652C206D20746F2073657410
:10275E0020696E74657276616C286D696E7574652C
:10276E0073292C206420746F20646973706C6179F6
:10277E002073797374656D20696E666F2028746995
:10278E006D652C20696E74657276616C2C20746593
:10279E006D706572617475726573202E2E2E2C000D
:1027AE0020202020204420746F20736574207374C1
:1027BE006172742064656C61792C207420746F20B2
:1027CE00746573742C204C20746F20626567696E7B
:1027DE00206C6F6767696E672C204F20746F206FB7
:1027EE00757470757420454550524F4D00696E7466
:1027FE00657276616C2069732073657420746F2026
:10280E0000206D696E757465732E2020537461728D
:10281E00742064656C61792069732000206D696E87
:10282E00757465732E0074727920616761696E002C
:10283E0064657669636520636F756E7420697320B5
:10284E00002A2A2A2A2A2A2A2A2A2A2A2A2A2A2A04
:10285E002A2A2A002E000D000B001F1C1F1E1F1EF1
:10286E001F1F1E1F1E1F0537370500000000810C9D
:00000001FF
