:100000000C9435000C945D000C945D000C945D0024
:100010000C945D000C945D000C945D000C945D00EC
:100020000C945D000C945D000C945D000C945D00DC
:100030000C945D000C945D000C945D000C945D00CC
:100040000C94CC020C945D000C9492000C945D0016
:100050000C945D000C945D000C945D000C945D00AC
:100060000C945D000C945D00870111241FBECFEF3E
:10007000D8E0DEBFCDBF11E0A0E0B1E0E4ECF7E0F6
:1000800002C005900D92A431B107D9F711E0A4E1A7
:10009000B1E001C01D92A83BB107E1F710E0CAE64C
:1000A000D0E004C02297FE010E94DC03C836D107CD
:1000B000C9F70E948B000C94E0030C9400008AE9BD
:1000C00091E00E9438018823E1F08AE991E00E94E2
:1000D0004C0190931501809314018AE991E060E04E
:1000E00071E00E94BE0140911401509115016627F4
:1000F00057FD6095762F8AE991E02AE030E00E9472
:10010000C10208958AE991E040E855E260E070E0BC
:100110000E94CF0008950E943C030E9482000E942A
:100120005F00FDCF1F920F920FB60F9211242F93F5
:100130003F934F935F936F937F938F939F93AF936F
:10014000BF93EF93FF934091C600E0919601F09129
:100150009701CF01019660E870E00E9476039C0150
:1001600080919801909199012817390739F0EA5E3A
:10017000FE4F40833093970120939601FF91EF91BA
:10018000BF91AF919F918F917F916F915F914F91AF
:100190003F912F910F900FBE0F901F901895AF9227
:1001A000BF92CF92DF92EF92FF920F931F93CF9364
:1001B000DF936C017A018B01DC011496AD90BC9049
:1001C0001597CB01BA0122E030E040E050E00E94F8
:1001D000AB03205C3D4B404F5F4FCA01B901A80102
:1001E00097010E94AB03C901DA010197A109B10986
:1001F000292F3A2F4B2F552747FD5A950196A11DC0
:10020000B11DE5012883E601EE81FF8181508083E5
:10021000EA85FB85208141E050E0CA010E8402C0DE
:10022000880F991F0A94E2F7282B2083EA85FB8523
:100230002081CA010F8402C0880F991F0A94E2F737
:10024000282B2083EA85FB858081088802C0440F23
:10025000551F0A94E2F7842B8083DF91CF911F9181
:100260000F91FF90EF90DF90CF90BF90AF900895E7
:10027000DC011296ED91FC911397E058FF4F8191AC
:10028000919180589F4F20813181821B930B60E8B0
:1002900070E00E9476030895CF93DF93DC011296FD
:1002A000ED91FC911397EF01CE57DF4F48815981B3
:1002B000E058FF4F80819181E058F0408417950706
:1002C00019F42FEF3FEF0CC0E40FF51F2081CA0196
:1002D000019660E870E00E9476039983888330E09D
:1002E000C901DF91CF910895FC01A085B1852189D5
:1002F0008C9190E0022E02C0959587950A94E2F7C2
:1003000080FFF6CF0484F585E02D6083089581E1B8
:1003100091E090939B0180939A0186E191E0909304
:100320009D0180939C0185EC90E090939F018093C8
:100330009E0184EC90E09093A1018093A00180EC59
:1003400090E09093A3018093A20181EC90E09093C0
:10035000A5018093A40186EC90E09093A70180937F
:10036000A60184E08093A80183E08093A90187E03F
:100370008093AA0185E08093AB0108950F931F93AA
:10038000CF93DF938C01EB0109C02196D801ED9149
:10039000FC910190F081E02DC801099568816623E8
:1003A000A1F7DF91CF911F910F9108950F931F93A4
:1003B0008C01DC01ED91FC910190F081E02D6DE06C
:1003C0000995D801ED91FC910190F081E02DC801D3
:1003D0006AE009951F910F9108952F923F924F92D5
:1003E0005F926F927F928F929F92AF92BF92CF92C5
:1003F000DF92EF92FF920F931F93DF93CF93CDB7CE
:10040000DEB7A0970FB6F894DEBF0FBECDBF1C01BC
:100410006A017B01411551056105710549F4DC0153
:10042000ED91FC910190F081E02D60E3099554C0BD
:10043000882499245401422E55246624772401E00F
:1004400010E00C0F1D1F080D191DC701B601A301F7
:1004500092010E948903F80160830894811C911C19
:10046000A11CB11CC701B601A30192010E9489031E
:10047000C901DA016C017D01C114D104E104F10468
:10048000F1F681E0E82EF12CEC0EFD1EE80CF91CD3
:100490003E010894611C711CD501C4010197A1099A
:1004A000B1096C01C818D90814C0F601EE0DFF1D82
:1004B00060816A3010F4605D01C0695CD101ED912A
:1004C000FC910190F081E02DC10109950894E108AB
:1004D000F1086E147F0449F7A0960FB6F894DEBFBA
:1004E0000FBECDBFCF91DF911F910F91FF90EF9085
:1004F000DF90CF90BF90AF909F908F907F906F9044
:100500005F904F903F902F900895EF92FF920F933E
:100510001F93CF93DF93EC017A018B0177FF0FC01C
:10052000E881F9810190F081E02D6DE20995109547
:100530000095F094E094E11CF11C011D111DCE0109
:10054000B801A7012AE00E94ED01DF91CF911F9130
:100550000F91FF90EF900895DC012115310541F4D2
:10056000ED91FC910190F081E02D642F09950895A3
:100570002A30310519F40E94850208950E94ED0188
:1005800008950F931F938C010E94AC02C8010E9432
:10059000D6011F910F9108951F920F920FB60F92DF
:1005A00011242F938F939F93AF93BF938091AC01AE
:1005B0009091AD01A091AE01B091AF010196A11D46
:1005C000B11D8093AC019093AD01A093AE01B093A7
:1005D000AF018091B0019091B101A091B201B091B1
:1005E000B3018050904CAF4FBF4F8093B0019093B8
:1005F000B101A093B201B093B30127C08091B001C3
:100600009091B101A091B201B091B30180589E4385
:10061000A040B0408093B0019093B101A093B2018B
:10062000B093B3018091B4019091B501A091B6014E
:10063000B091B7010196A11DB11D8093B4019093B3
:10064000B501A093B601B093B7018091B00190912C
:10065000B101A091B201B091B30181589E43A04075
:10066000B04060F6BF91AF919F918F912F910F9005
:100670000FBE0F901F901895789484B5826084BD4A
:1006800084B5816084BD85B5826085BD85B5816096
:1006900085BDEEE6F0E0808181608083E1E8F0E0F6
:1006A000808182608083808181608083E0E8F0E0E7
:1006B000808181608083E1EBF0E0808184608083D1
:1006C000E0EBF0E0808181608083EAE7F0E0808108
:1006D0008460808380818260808380818160808368
:1006E0008081806880831092C100089597FB092E55
:1006F00007260AD077FD04D049D006D000201AF48E
:10070000709561957F4F0895F6F7909581959F4F6D
:100710000895A1E21A2EAA1BBB1BFD010DC0AA1F42
:10072000BB1FEE1FFF1FA217B307E407F50720F05A
:10073000A21BB30BE40BF50B661F771F881F991FD5
:100740001A9469F760957095809590959B01AC011E
:10075000BD01CF01089597FB092E05260ED057FD48
:1007600004D0D7DF0AD0001C38F45095409530955E
:1007700021953F4F4F4F5F4F0895F6F79095809525
:10078000709561957F4F8F4F9F4F0895AA1BBB1B9C
:1007900051E107C0AA1FBB1FA617B70710F0A61B81
:1007A000B70B881F991F5A95A9F780959095BC01A2
:1007B000CD010895EE0FFF1F0590F491E02D0994EF
:0407C000F894FFCFDB
:1007C400492072656365697665643A20000000001B
:0407D40000740100AC
:00000001FF
